{
	"contracts/CrowdfundingDAO.sol": {
		"CrowdfundingDAO": {
			"abi": [
				{
					"inputs": [],
					"name": "AlreadyVoted",
					"type": "error"
				},
				{
					"inputs": [],
					"name": "AmountExceedsAvailableFunds",
					"type": "error"
				},
				{
					"inputs": [],
					"name": "CampaignDoesNotExist",
					"type": "error"
				},
				{
					"inputs": [],
					"name": "CampaignEnded",
					"type": "error"
				},
				{
					"inputs": [],
					"name": "CampaignNotFunded",
					"type": "error"
				},
				{
					"inputs": [],
					"name": "CampaignStillActive",
					"type": "error"
				},
				{
					"inputs": [],
					"name": "CampaignSucceeded",
					"type": "error"
				},
				{
					"inputs": [],
					"name": "InvalidDeadline",
					"type": "error"
				},
				{
					"inputs": [],
					"name": "InvalidVotingPeriod",
					"type": "error"
				},
				{
					"inputs": [],
					"name": "NotCampaignCreator",
					"type": "error"
				},
				{
					"inputs": [],
					"name": "NotContributor",
					"type": "error"
				},
				{
					"inputs": [],
					"name": "NothingToRefund",
					"type": "error"
				},
				{
					"inputs": [],
					"name": "ProposalAlreadyExecuted",
					"type": "error"
				},
				{
					"inputs": [],
					"name": "ProposalDoesNotExist",
					"type": "error"
				},
				{
					"inputs": [],
					"name": "ProposalNotApproved",
					"type": "error"
				},
				{
					"inputs": [],
					"name": "ReentrancyGuardReentrantCall",
					"type": "error"
				},
				{
					"inputs": [],
					"name": "TransferFailed",
					"type": "error"
				},
				{
					"inputs": [],
					"name": "VotingPeriodEnded",
					"type": "error"
				},
				{
					"inputs": [],
					"name": "VotingPeriodNotEnded",
					"type": "error"
				},
				{
					"inputs": [],
					"name": "ZeroContribution",
					"type": "error"
				},
				{
					"inputs": [],
					"name": "ZeroGoal",
					"type": "error"
				},
				{
					"inputs": [],
					"name": "ZeroProposalAmount",
					"type": "error"
				},
				{
					"anonymous": false,
					"inputs": [
						{
							"indexed": true,
							"internalType": "uint256",
							"name": "campaignId",
							"type": "uint256"
						},
						{
							"indexed": true,
							"internalType": "address",
							"name": "creator",
							"type": "address"
						},
						{
							"indexed": false,
							"internalType": "uint256",
							"name": "goal",
							"type": "uint256"
						},
						{
							"indexed": false,
							"internalType": "uint256",
							"name": "deadline",
							"type": "uint256"
						}
					],
					"name": "CampaignCreated",
					"type": "event"
				},
				{
					"anonymous": false,
					"inputs": [
						{
							"indexed": true,
							"internalType": "uint256",
							"name": "campaignId",
							"type": "uint256"
						},
						{
							"indexed": true,
							"internalType": "address",
							"name": "contributor",
							"type": "address"
						},
						{
							"indexed": false,
							"internalType": "uint256",
							"name": "amount",
							"type": "uint256"
						},
						{
							"indexed": false,
							"internalType": "uint256",
							"name": "totalRaised",
							"type": "uint256"
						}
					],
					"name": "Funded",
					"type": "event"
				},
				{
					"anonymous": false,
					"inputs": [
						{
							"indexed": true,
							"internalType": "uint256",
							"name": "campaignId",
							"type": "uint256"
						},
						{
							"indexed": true,
							"internalType": "uint256",
							"name": "proposalId",
							"type": "uint256"
						},
						{
							"indexed": true,
							"internalType": "address",
							"name": "creator",
							"type": "address"
						},
						{
							"indexed": false,
							"internalType": "uint256",
							"name": "amount",
							"type": "uint256"
						}
					],
					"name": "FundsReleased",
					"type": "event"
				},
				{
					"anonymous": false,
					"inputs": [
						{
							"indexed": true,
							"internalType": "uint256",
							"name": "campaignId",
							"type": "uint256"
						},
						{
							"indexed": true,
							"internalType": "uint256",
							"name": "proposalId",
							"type": "uint256"
						},
						{
							"indexed": true,
							"internalType": "address",
							"name": "creator",
							"type": "address"
						},
						{
							"indexed": false,
							"internalType": "uint256",
							"name": "amount",
							"type": "uint256"
						},
						{
							"indexed": false,
							"internalType": "uint256",
							"name": "votingDeadline",
							"type": "uint256"
						},
						{
							"indexed": false,
							"internalType": "string",
							"name": "description",
							"type": "string"
						}
					],
					"name": "ProposalCreated",
					"type": "event"
				},
				{
					"anonymous": false,
					"inputs": [
						{
							"indexed": true,
							"internalType": "uint256",
							"name": "campaignId",
							"type": "uint256"
						},
						{
							"indexed": true,
							"internalType": "address",
							"name": "contributor",
							"type": "address"
						},
						{
							"indexed": false,
							"internalType": "uint256",
							"name": "amount",
							"type": "uint256"
						}
					],
					"name": "RefundClaimed",
					"type": "event"
				},
				{
					"anonymous": false,
					"inputs": [
						{
							"indexed": true,
							"internalType": "uint256",
							"name": "campaignId",
							"type": "uint256"
						},
						{
							"indexed": true,
							"internalType": "uint256",
							"name": "proposalId",
							"type": "uint256"
						},
						{
							"indexed": true,
							"internalType": "address",
							"name": "voter",
							"type": "address"
						},
						{
							"indexed": false,
							"internalType": "bool",
							"name": "support",
							"type": "bool"
						},
						{
							"indexed": false,
							"internalType": "uint256",
							"name": "weight",
							"type": "uint256"
						}
					],
					"name": "Voted",
					"type": "event"
				},
				{
					"inputs": [],
					"name": "APPROVAL_THRESHOLD_BPS",
					"outputs": [
						{
							"internalType": "uint256",
							"name": "",
							"type": "uint256"
						}
					],
					"stateMutability": "view",
					"type": "function"
				},
				{
					"inputs": [
						{
							"internalType": "uint256",
							"name": "campaignId",
							"type": "uint256"
						}
					],
					"name": "availableFunds",
					"outputs": [
						{
							"internalType": "uint256",
							"name": "",
							"type": "uint256"
						}
					],
					"stateMutability": "view",
					"type": "function"
				},
				{
					"inputs": [
						{
							"internalType": "uint256",
							"name": "campaignId",
							"type": "uint256"
						}
					],
					"name": "claimRefund",
					"outputs": [],
					"stateMutability": "nonpayable",
					"type": "function"
				},
				{
					"inputs": [
						{
							"internalType": "uint256",
							"name": "campaignId",
							"type": "uint256"
						}
					],
					"name": "contribute",
					"outputs": [],
					"stateMutability": "payable",
					"type": "function"
				},
				{
					"inputs": [
						{
							"internalType": "uint256",
							"name": "",
							"type": "uint256"
						},
						{
							"internalType": "address",
							"name": "",
							"type": "address"
						}
					],
					"name": "contributions",
					"outputs": [
						{
							"internalType": "uint256",
							"name": "",
							"type": "uint256"
						}
					],
					"stateMutability": "view",
					"type": "function"
				},
				{
					"inputs": [
						{
							"internalType": "uint256",
							"name": "goal",
							"type": "uint256"
						},
						{
							"internalType": "uint256",
							"name": "durationSeconds",
							"type": "uint256"
						}
					],
					"name": "createCampaign",
					"outputs": [
						{
							"internalType": "uint256",
							"name": "campaignId",
							"type": "uint256"
						}
					],
					"stateMutability": "nonpayable",
					"type": "function"
				},
				{
					"inputs": [
						{
							"internalType": "uint256",
							"name": "campaignId",
							"type": "uint256"
						},
						{
							"internalType": "uint256",
							"name": "amount",
							"type": "uint256"
						},
						{
							"internalType": "string",
							"name": "description",
							"type": "string"
						},
						{
							"internalType": "uint256",
							"name": "votingDurationSecs",
							"type": "uint256"
						}
					],
					"name": "createProposal",
					"outputs": [
						{
							"internalType": "uint256",
							"name": "proposalId",
							"type": "uint256"
						}
					],
					"stateMutability": "nonpayable",
					"type": "function"
				},
				{
					"inputs": [
						{
							"internalType": "uint256",
							"name": "campaignId",
							"type": "uint256"
						}
					],
					"name": "getCampaign",
					"outputs": [
						{
							"components": [
								{
									"internalType": "address",
									"name": "creator",
									"type": "address"
								},
								{
									"internalType": "uint256",
									"name": "goal",
									"type": "uint256"
								},
								{
									"internalType": "uint256",
									"name": "deadline",
									"type": "uint256"
								},
								{
									"internalType": "uint256",
									"name": "raised",
									"type": "uint256"
								},
								{
									"internalType": "uint256",
									"name": "releasedAmount",
									"type": "uint256"
								},
								{
									"internalType": "uint256",
									"name": "contributorCount",
									"type": "uint256"
								},
								{
									"internalType": "uint256",
									"name": "proposalCount",
									"type": "uint256"
								},
								{
									"internalType": "bool",
									"name": "exists",
									"type": "bool"
								}
							],
							"internalType": "struct CrowdfundingDAO.Campaign",
							"name": "",
							"type": "tuple"
						}
					],
					"stateMutability": "view",
					"type": "function"
				},
				{
					"inputs": [
						{
							"internalType": "uint256",
							"name": "campaignId",
							"type": "uint256"
						},
						{
							"internalType": "uint256",
							"name": "proposalId",
							"type": "uint256"
						}
					],
					"name": "getProposal",
					"outputs": [
						{
							"components": [
								{
									"internalType": "string",
									"name": "description",
									"type": "string"
								},
								{
									"internalType": "uint256",
									"name": "amount",
									"type": "uint256"
								},
								{
									"internalType": "uint256",
									"name": "votingDeadline",
									"type": "uint256"
								},
								{
									"internalType": "uint256",
									"name": "votesFor",
									"type": "uint256"
								},
								{
									"internalType": "uint256",
									"name": "votesAgainst",
									"type": "uint256"
								},
								{
									"internalType": "bool",
									"name": "executed",
									"type": "bool"
								}
							],
							"internalType": "struct CrowdfundingDAO.Proposal",
							"name": "",
							"type": "tuple"
						}
					],
					"stateMutability": "view",
					"type": "function"
				},
				{
					"inputs": [
						{
							"internalType": "uint256",
							"name": "",
							"type": "uint256"
						},
						{
							"internalType": "uint256",
							"name": "",
							"type": "uint256"
						},
						{
							"internalType": "address",
							"name": "",
							"type": "address"
						}
					],
					"name": "hasVoted",
					"outputs": [
						{
							"internalType": "bool",
							"name": "",
							"type": "bool"
						}
					],
					"stateMutability": "view",
					"type": "function"
				},
				{
					"inputs": [],
					"name": "nextCampaignId",
					"outputs": [
						{
							"internalType": "uint256",
							"name": "",
							"type": "uint256"
						}
					],
					"stateMutability": "view",
					"type": "function"
				},
				{
					"inputs": [
						{
							"internalType": "uint256",
							"name": "campaignId",
							"type": "uint256"
						},
						{
							"internalType": "uint256",
							"name": "proposalId",
							"type": "uint256"
						}
					],
					"name": "releaseFunds",
					"outputs": [],
					"stateMutability": "nonpayable",
					"type": "function"
				},
				{
					"inputs": [
						{
							"internalType": "uint256",
							"name": "campaignId",
							"type": "uint256"
						},
						{
							"internalType": "uint256",
							"name": "proposalId",
							"type": "uint256"
						},
						{
							"internalType": "bool",
							"name": "support",
							"type": "bool"
						}
					],
					"name": "vote",
					"outputs": [],
					"stateMutability": "nonpayable",
					"type": "function"
				},
				{
					"inputs": [
						{
							"internalType": "uint256",
							"name": "campaignId",
							"type": "uint256"
						},
						{
							"internalType": "address",
							"name": "account",
							"type": "address"
						}
					],
					"name": "votingPowerOf",
					"outputs": [
						{
							"internalType": "uint256",
							"name": "",
							"type": "uint256"
						}
					],
					"stateMutability": "view",
					"type": "function"
				},
				{
					"stateMutability": "payable",
					"type": "receive"
				}
			],
			"devdoc": {
				"author": "Kiril Boshnakoski",
				"details": "Security architecture overview:      - ReentrancyGuard protects every function that performs an external ETH transfer        ({contribute} refunds are pull-based; {releaseFunds} and {claimRefund} send ETH).      - The Checks-Effects-Interactions (CEI) pattern is strictly enforced: all storage        mutations happen BEFORE any external call, so a malicious recipient contract        cannot observe or exploit an inconsistent intermediate state.      - Voting power is proportional to the wei each address contributed to that specific        campaign, preventing non-contributors or low-stake actors from hijacking decisions.      - Custom errors are used everywhere instead of revert strings to minimize gas and        keep failure modes machine-readable.      - All ETH is escrowed inside this contract; per-campaign accounting (`raised`,        `releasedAmount`) guarantees one campaign can never spend another campaign's funds.",
				"errors": {
					"ReentrancyGuardReentrantCall()": [
						{
							"details": "Unauthorized reentrant call."
						}
					]
				},
				"kind": "dev",
				"methods": {
					"claimRefund(uint256)": {
						"details": "Refunds are pull-based (each contributor withdraws their own funds) to avoid      unbounded loops and griefing. CHECKS: campaign ended, goal not met, caller has      a non-zero balance. EFFECTS: the caller's contribution is zeroed and `raised`      reduced BEFORE the transfer. INTERACTIONS: ETH is sent last, guarded by      `nonReentrant`, fully implementing CEI.",
						"params": {
							"campaignId": "The failed campaign to refund from."
						}
					},
					"contribute(uint256)": {
						"details": "CHECKS: campaign exists, deadline not passed, msg.value > 0.      EFFECTS: contribution and raised totals are updated before any event.      INTERACTIONS: none (ETH is simply held by this contract).      `nonReentrant` is applied defensively even though no external call is made,      keeping fund-handling entry points uniformly protected.",
						"params": {
							"campaignId": "The campaign to fund."
						}
					},
					"createCampaign(uint256,uint256)": {
						"details": "CHECKS: goal and duration are validated. EFFECTS: campaign is written to storage      and the id counter is incremented. No external interactions occur here.",
						"params": {
							"durationSeconds": "Seconds from now until the contribution deadline. Must be > 0.",
							"goal": "Funding goal in wei. Must be greater than zero."
						},
						"returns": {
							"campaignId": "     The id assigned to the new campaign."
						}
					},
					"createProposal(uint256,uint256,string,uint256)": {
						"details": "CHECKS: caller is creator, campaign reached its goal, amount is valid and does not      exceed `raised - releasedAmount`. EFFECTS: proposal stored, counter incremented.      Validating against available (not total) funds prevents the creator from proposing      to spend money already released by earlier proposals.",
						"params": {
							"amount": "Wei requested. Must be > 0 and within currently available funds.",
							"campaignId": "The funded campaign.",
							"description": "Human-readable purpose of the spend.",
							"votingDurationSecs": "Seconds the proposal stays open for voting. Must be > 0."
						},
						"returns": {
							"proposalId": "        The id assigned to the new proposal."
						}
					},
					"releaseFunds(uint256,uint256)": {
						"details": "Anyone may trigger execution (the outcome is deterministic), but funds always go      to the campaign creator. CHECKS: proposal exists, not already executed, voting      period over, approval threshold met, and the amount still fits within available      funds (re-validated to be safe against any prior releases). EFFECTS: `executed`      is set and `releasedAmount` increased BEFORE the transfer. INTERACTIONS: ETH is      sent last under `nonReentrant`, fully respecting CEI.",
						"params": {
							"campaignId": "The campaign the proposal belongs to.",
							"proposalId": "The approved proposal to execute."
						}
					},
					"vote(uint256,uint256,bool)": {
						"details": "CHECKS: campaign & proposal exist, caller is a contributor, proposal not executed,      voting window open, caller has not already voted. EFFECTS: the vote is recorded and      weighted by the caller's contribution. No external interactions occur.",
						"params": {
							"campaignId": "The campaign the proposal belongs to.",
							"proposalId": "The proposal to vote on.",
							"support": "True to vote in favour, false to vote against."
						}
					}
				},
				"stateVariables": {
					"APPROVAL_THRESHOLD_BPS": {
						"details": "5000 bps = 50%. A proposal needs `votesFor * 10000 > raised * APPROVAL_THRESHOLD_BPS`,      i.e. strictly MORE than 50% of all contributed weight must vote in favour."
					}
				},
				"title": "CrowdfundingDAO",
				"version": 1
			},
			"evm": {
				"assembly": "    /* \"contracts/CrowdfundingDAO.sol\":1599:20648  contract CrowdfundingDAO is ReentrancyGuard {... */\n  mstore(0x40, 0x80)\n  callvalue\n  dup1\n  iszero\n  tag_1\n  jumpi\n  revert(0x00, 0x00)\ntag_1:\n  pop\n    /* \"@openzeppelin/contracts/utils/ReentrancyGuard.sol\":2365:2366  1 */\n  0x01\n    /* \"@openzeppelin/contracts/utils/ReentrancyGuard.sol\":2539:2585  _reentrancyGuardStorageSlot().getUint256Slot() */\n  tag_4\n    /* \"@openzeppelin/contracts/utils/ReentrancyGuard.sol\":2539:2568  _reentrancyGuardStorageSlot() */\n  tag_5\n    /* \"@openzeppelin/contracts/utils/ReentrancyGuard.sol\":2539:2566  _reentrancyGuardStorageSlot */\n  shl(0x20, tag_6)\n    /* \"@openzeppelin/contracts/utils/ReentrancyGuard.sol\":2539:2568  _reentrancyGuardStorageSlot() */\n  0x20\n  shr\n  jump\t// in\ntag_5:\n    /* \"@openzeppelin/contracts/utils/ReentrancyGuard.sol\":2539:2583  _reentrancyGuardStorageSlot().getUint256Slot */\n  shl(0x20, tag_7)\n    /* \"@openzeppelin/contracts/utils/ReentrancyGuard.sol\":2539:2585  _reentrancyGuardStorageSlot().getUint256Slot() */\n  0x20\n  shr\n  jump\t// in\ntag_4:\n    /* \"@openzeppelin/contracts/utils/ReentrancyGuard.sol\":2539:2591  _reentrancyGuardStorageSlot().getUint256Slot().value */\n  0x00\n  add\n    /* \"@openzeppelin/contracts/utils/ReentrancyGuard.sol\":2539:2605  _reentrancyGuardStorageSlot().getUint256Slot().value = NOT_ENTERED */\n  dup2\n  swap1\n  sstore\n  pop\n    /* \"contracts/CrowdfundingDAO.sol\":1599:20648  contract CrowdfundingDAO is ReentrancyGuard {... */\n  jump(tag_8)\n    /* \"@openzeppelin/contracts/utils/ReentrancyGuard.sol\":4636:4763  function _reentrancyGuardStorageSlot() internal pure virtual returns (bytes32) {... */\ntag_6:\n    /* \"@openzeppelin/contracts/utils/ReentrancyGuard.sol\":4706:4713  bytes32 */\n  0x00\n    /* \"@openzeppelin/contracts/utils/ReentrancyGuard.sol\":1505:1571  0x9b779b17422d0df92223018b32b4d1fa46e071723d6817e2486d003becc55f00 */\n  0x9b779b17422d0df92223018b32b4d1fa46e071723d6817e2486d003becc55f00\n    /* \"@openzeppelin/contracts/utils/ReentrancyGuard.sol\":4732:4756  REENTRANCY_GUARD_STORAGE */\n  0x00\n  shl\n    /* \"@openzeppelin/contracts/utils/ReentrancyGuard.sol\":4725:4756  return REENTRANCY_GUARD_STORAGE */\n  swap1\n  pop\n    /* \"@openzeppelin/contracts/utils/ReentrancyGuard.sol\":4636:4763  function _reentrancyGuardStorageSlot() internal pure virtual returns (bytes32) {... */\n  swap1\n  jump\t// out\n    /* \"@openzeppelin/contracts/utils/StorageSlot.sol\":2679:2842  function getUint256Slot(bytes32 slot) internal pure returns (Uint256Slot storage r) {... */\ntag_7:\n    /* \"@openzeppelin/contracts/utils/StorageSlot.sol\":2740:2761  Uint256Slot storage r */\n  0x00\n    /* \"@openzeppelin/contracts/utils/StorageSlot.sol\":2822:2826  slot */\n  dup2\n    /* \"@openzeppelin/contracts/utils/StorageSlot.sol\":2812:2826  r.slot := slot */\n  swap1\n  pop\n    /* \"@openzeppelin/contracts/utils/StorageSlot.sol\":2679:2842  function getUint256Slot(bytes32 slot) internal pure returns (Uint256Slot storage r) {... */\n  swap2\n  swap1\n  pop\n  jump\t// out\n    /* \"contracts/CrowdfundingDAO.sol\":1599:20648  contract CrowdfundingDAO is ReentrancyGuard {... */\ntag_8:\n  dataSize(sub_0)\n  dup1\n  dataOffset(sub_0)\n  0x00\n  codecopy\n  0x00\n  return\nstop\n\nsub_0: assembly {\n        /* \"contracts/CrowdfundingDAO.sol\":1599:20648  contract CrowdfundingDAO is ReentrancyGuard {... */\n      mstore(0x40, 0x80)\n      jumpi(tag_1, lt(calldatasize, 0x04))\n      shr(0xe0, calldataload(0x00))\n      dup1\n      0x7903a756\n      gt\n      tag_17\n      jumpi\n      dup1\n      0xc1cbbca7\n      gt\n      tag_18\n      jumpi\n      dup1\n      0xc1cbbca7\n      eq\n      tag_13\n      jumpi\n      dup1\n      0xc28fe7d5\n      eq\n      tag_14\n      jumpi\n      dup1\n      0xcd89fd41\n      eq\n      tag_15\n      jumpi\n      dup1\n      0xdf7843ae\n      eq\n      tag_16\n      jumpi\n      jump(tag_2)\n    tag_18:\n      dup1\n      0x7903a756\n      eq\n      tag_10\n      jumpi\n      dup1\n      0x7995ea8f\n      eq\n      tag_11\n      jumpi\n      dup1\n      0xaba21009\n      eq\n      tag_12\n      jumpi\n      jump(tag_2)\n    tag_17:\n      dup1\n      0x5598f8cc\n      gt\n      tag_19\n      jumpi\n      dup1\n      0x5598f8cc\n      eq\n      tag_6\n      jumpi\n      dup1\n      0x5b7baf64\n      eq\n      tag_7\n      jumpi\n      dup1\n      0x5d0ed3b0\n      eq\n      tag_8\n      jumpi\n      dup1\n      0x6a18ff7a\n      eq\n      tag_9\n      jumpi\n      jump(tag_2)\n    tag_19:\n      dup1\n      0x0d39a1d3\n      eq\n      tag_3\n      jumpi\n      dup1\n      0x22502268\n      eq\n      tag_4\n      jumpi\n      dup1\n      0x3d891f59\n      eq\n      tag_5\n      jumpi\n      jump(tag_2)\n    tag_1:\n      jumpi(tag_2, calldatasize)\n        /* \"contracts/CrowdfundingDAO.sol\":20619:20637  ZeroContribution() */\n      mload(0x40)\n      0xab82a24800000000000000000000000000000000000000000000000000000000\n      dup2\n      mstore\n      0x04\n      add\n      mload(0x40)\n      dup1\n      swap2\n      sub\n      swap1\n      revert\n        /* \"contracts/CrowdfundingDAO.sol\":1599:20648  contract CrowdfundingDAO is ReentrancyGuard {... */\n    tag_2:\n      revert(0x00, 0x00)\n        /* \"contracts/CrowdfundingDAO.sol\":6043:6123  mapping(uint256 => mapping(uint256 => mapping(address => bool))) public hasVoted */\n    tag_3:\n      callvalue\n      dup1\n      iszero\n      tag_22\n      jumpi\n      revert(0x00, 0x00)\n    tag_22:\n      pop\n      tag_23\n      0x04\n      dup1\n      calldatasize\n      sub\n      dup2\n      add\n      swap1\n      tag_24\n      swap2\n      swap1\n      tag_25\n      jump\t// in\n    tag_24:\n      tag_26\n      jump\t// in\n    tag_23:\n      mload(0x40)\n      tag_27\n      swap2\n      swap1\n      tag_28\n      jump\t// in\n    tag_27:\n      mload(0x40)\n      dup1\n      swap2\n      sub\n      swap1\n      return\n        /* \"contracts/CrowdfundingDAO.sol\":8948:9716  function createCampaign(uint256 goal, uint256 durationSeconds)... */\n    tag_4:\n      callvalue\n      dup1\n      iszero\n      tag_29\n      jumpi\n      revert(0x00, 0x00)\n    tag_29:\n      pop\n      tag_30\n      0x04\n      dup1\n      calldatasize\n      sub\n      dup2\n      add\n      swap1\n      tag_31\n      swap2\n      swap1\n      tag_32\n      jump\t// in\n    tag_31:\n      tag_33\n      jump\t// in\n    tag_30:\n      mload(0x40)\n      tag_34\n      swap2\n      swap1\n      tag_35\n      jump\t// in\n    tag_34:\n      mload(0x40)\n      dup1\n      swap2\n      sub\n      swap1\n      return\n        /* \"contracts/CrowdfundingDAO.sol\":5743:5811  mapping(uint256 => mapping(address => uint256)) public contributions */\n    tag_5:\n      callvalue\n      dup1\n      iszero\n      tag_36\n      jumpi\n      revert(0x00, 0x00)\n    tag_36:\n      pop\n      tag_37\n      0x04\n      dup1\n      calldatasize\n      sub\n      dup2\n      add\n      swap1\n      tag_38\n      swap2\n      swap1\n      tag_39\n      jump\t// in\n    tag_38:\n      tag_40\n      jump\t// in\n    tag_37:\n      mload(0x40)\n      tag_41\n      swap2\n      swap1\n      tag_35\n      jump\t// in\n    tag_41:\n      mload(0x40)\n      dup1\n      swap2\n      sub\n      swap1\n      return\n        /* \"contracts/CrowdfundingDAO.sol\":19082:19279  function getCampaign(uint256 campaignId)... */\n    tag_6:\n      callvalue\n      dup1\n      iszero\n      tag_42\n      jumpi\n      revert(0x00, 0x00)\n    tag_42:\n      pop\n      tag_43\n      0x04\n      dup1\n      calldatasize\n      sub\n      dup2\n      add\n      swap1\n      tag_44\n      swap2\n      swap1\n      tag_45\n      jump\t// in\n    tag_44:\n      tag_46\n      jump\t// in\n    tag_43:\n      mload(0x40)\n      tag_47\n      swap2\n      swap1\n      tag_48\n      jump\t// in\n    tag_47:\n      mload(0x40)\n      dup1\n      swap2\n      sub\n      swap1\n      return\n        /* \"contracts/CrowdfundingDAO.sol\":11599:12420  function claimRefund(uint256 campaignId)... */\n    tag_7:\n      callvalue\n      dup1\n      iszero\n      tag_49\n      jumpi\n      revert(0x00, 0x00)\n    tag_49:\n      pop\n      tag_50\n      0x04\n      dup1\n      calldatasize\n      sub\n      dup2\n      add\n      swap1\n      tag_51\n      swap2\n      swap1\n      tag_45\n      jump\t// in\n    tag_51:\n      tag_52\n      jump\t// in\n    tag_50:\n      stop\n        /* \"contracts/CrowdfundingDAO.sol\":13510:14855  function createProposal(... */\n    tag_8:\n      callvalue\n      dup1\n      iszero\n      tag_53\n      jumpi\n      revert(0x00, 0x00)\n    tag_53:\n      pop\n      tag_54\n      0x04\n      dup1\n      calldatasize\n      sub\n      dup2\n      add\n      swap1\n      tag_55\n      swap2\n      swap1\n      tag_56\n      jump\t// in\n    tag_55:\n      tag_57\n      jump\t// in\n    tag_54:\n      mload(0x40)\n      tag_58\n      swap2\n      swap1\n      tag_35\n      jump\t// in\n    tag_58:\n      mload(0x40)\n      dup1\n      swap2\n      sub\n      swap1\n      return\n        /* \"contracts/CrowdfundingDAO.sol\":15454:16411  function vote(uint256 campaignId, uint256 proposalId, bool support)... */\n    tag_9:\n      callvalue\n      dup1\n      iszero\n      tag_59\n      jumpi\n      revert(0x00, 0x00)\n    tag_59:\n      pop\n      tag_60\n      0x04\n      dup1\n      calldatasize\n      sub\n      dup2\n      add\n      swap1\n      tag_61\n      swap2\n      swap1\n      tag_62\n      jump\t// in\n    tag_61:\n      tag_63\n      jump\t// in\n    tag_60:\n      stop\n        /* \"contracts/CrowdfundingDAO.sol\":5506:5535  uint256 public nextCampaignId */\n    tag_10:\n      callvalue\n      dup1\n      iszero\n      tag_64\n      jumpi\n      revert(0x00, 0x00)\n    tag_64:\n      pop\n      tag_65\n      tag_66\n      jump\t// in\n    tag_65:\n      mload(0x40)\n      tag_67\n      swap2\n      swap1\n      tag_35\n      jump\t// in\n    tag_67:\n      mload(0x40)\n      dup1\n      swap2\n      sub\n      swap1\n      return\n        /* \"contracts/CrowdfundingDAO.sol\":19824:20096  function availableFunds(uint256 campaignId)... */\n    tag_11:\n      callvalue\n      dup1\n      iszero\n      tag_68\n      jumpi\n      revert(0x00, 0x00)\n    tag_68:\n      pop\n      tag_69\n      0x04\n      dup1\n      calldatasize\n      sub\n      dup2\n      add\n      swap1\n      tag_70\n      swap2\n      swap1\n      tag_45\n      jump\t// in\n    tag_70:\n      tag_71\n      jump\t// in\n    tag_69:\n      mload(0x40)\n      tag_72\n      swap2\n      swap1\n      tag_35\n      jump\t// in\n    tag_72:\n      mload(0x40)\n      dup1\n      swap2\n      sub\n      swap1\n      return\n        /* \"contracts/CrowdfundingDAO.sol\":19375:19730  function getProposal(uint256 campaignId, uint256 proposalId)... */\n    tag_12:\n      callvalue\n      dup1\n      iszero\n      tag_73\n      jumpi\n      revert(0x00, 0x00)\n    tag_73:\n      pop\n      tag_74\n      0x04\n      dup1\n      calldatasize\n      sub\n      dup2\n      add\n      swap1\n      tag_75\n      swap2\n      swap1\n      tag_32\n      jump\t// in\n    tag_75:\n      tag_76\n      jump\t// in\n    tag_74:\n      mload(0x40)\n      tag_77\n      swap2\n      swap1\n      tag_78\n      jump\t// in\n    tag_77:\n      mload(0x40)\n      dup1\n      swap2\n      sub\n      swap1\n      return\n        /* \"contracts/CrowdfundingDAO.sol\":10278:10966  function contribute(uint256 campaignId)... */\n    tag_13:\n      tag_79\n      0x04\n      dup1\n      calldatasize\n      sub\n      dup2\n      add\n      swap1\n      tag_80\n      swap2\n      swap1\n      tag_45\n      jump\t// in\n    tag_80:\n      tag_81\n      jump\t// in\n    tag_79:\n      stop\n        /* \"contracts/CrowdfundingDAO.sol\":20198:20382  function votingPowerOf(uint256 campaignId, address account)... */\n    tag_14:\n      callvalue\n      dup1\n      iszero\n      tag_82\n      jumpi\n      revert(0x00, 0x00)\n    tag_82:\n      pop\n      tag_83\n      0x04\n      dup1\n      calldatasize\n      sub\n      dup2\n      add\n      swap1\n      tag_84\n      swap2\n      swap1\n      tag_39\n      jump\t// in\n    tag_84:\n      tag_85\n      jump\t// in\n    tag_83:\n      mload(0x40)\n      tag_86\n      swap2\n      swap1\n      tag_35\n      jump\t// in\n    tag_86:\n      mload(0x40)\n      dup1\n      swap2\n      sub\n      swap1\n      return\n        /* \"contracts/CrowdfundingDAO.sol\":5312:5365  uint256 public constant APPROVAL_THRESHOLD_BPS = 5000 */\n    tag_15:\n      callvalue\n      dup1\n      iszero\n      tag_87\n      jumpi\n      revert(0x00, 0x00)\n    tag_87:\n      pop\n      tag_88\n      tag_89\n      jump\t// in\n    tag_88:\n      mload(0x40)\n      tag_90\n      swap2\n      swap1\n      tag_35\n      jump\t// in\n    tag_90:\n      mload(0x40)\n      dup1\n      swap2\n      sub\n      swap1\n      return\n        /* \"contracts/CrowdfundingDAO.sol\":17194:18797  function releaseFunds(uint256 campaignId, uint256 proposalId)... */\n    tag_16:\n      callvalue\n      dup1\n      iszero\n      tag_91\n      jumpi\n      revert(0x00, 0x00)\n    tag_91:\n      pop\n      tag_92\n      0x04\n      dup1\n      calldatasize\n      sub\n      dup2\n      add\n      swap1\n      tag_93\n      swap2\n      swap1\n      tag_32\n      jump\t// in\n    tag_93:\n      tag_94\n      jump\t// in\n    tag_92:\n      stop\n        /* \"contracts/CrowdfundingDAO.sol\":6043:6123  mapping(uint256 => mapping(uint256 => mapping(address => bool))) public hasVoted */\n    tag_26:\n      mstore(0x20, 0x04)\n      dup3\n      0x00\n      mstore\n      mstore(0x20, keccak256(0x00, 0x40))\n      dup2\n      0x00\n      mstore\n      mstore(0x20, keccak256(0x00, 0x40))\n      dup1\n      0x00\n      mstore\n      keccak256(0x00, 0x40)\n      0x00\n      swap3\n      pop\n      swap3\n      pop\n      pop\n      swap1\n      sload\n      swap1\n      0x0100\n      exp\n      swap1\n      div\n      0xff\n      and\n      dup2\n      jump\t// out\n        /* \"contracts/CrowdfundingDAO.sol\":8948:9716  function createCampaign(uint256 goal, uint256 durationSeconds)... */\n    tag_33:\n        /* \"contracts/CrowdfundingDAO.sol\":9047:9065  uint256 campaignId */\n      0x00\n        /* \"contracts/CrowdfundingDAO.sol\":9122:9123  0 */\n      0x00\n        /* \"contracts/CrowdfundingDAO.sol\":9114:9118  goal */\n      dup4\n        /* \"contracts/CrowdfundingDAO.sol\":9114:9123  goal == 0 */\n      sub\n        /* \"contracts/CrowdfundingDAO.sol\":9110:9142  if (goal == 0) revert ZeroGoal() */\n      tag_96\n      jumpi\n        /* \"contracts/CrowdfundingDAO.sol\":9132:9142  ZeroGoal() */\n      mload(0x40)\n      0x16f3c52900000000000000000000000000000000000000000000000000000000\n      dup2\n      mstore\n      0x04\n      add\n      mload(0x40)\n      dup1\n      swap2\n      sub\n      swap1\n      revert\n        /* \"contracts/CrowdfundingDAO.sol\":9110:9142  if (goal == 0) revert ZeroGoal() */\n    tag_96:\n        /* \"contracts/CrowdfundingDAO.sol\":9176:9177  0 */\n      0x00\n        /* \"contracts/CrowdfundingDAO.sol\":9157:9172  durationSeconds */\n      dup3\n        /* \"contracts/CrowdfundingDAO.sol\":9157:9177  durationSeconds == 0 */\n      sub\n        /* \"contracts/CrowdfundingDAO.sol\":9153:9203  if (durationSeconds == 0) revert InvalidDeadline() */\n      tag_97\n      jumpi\n        /* \"contracts/CrowdfundingDAO.sol\":9186:9203  InvalidDeadline() */\n      mload(0x40)\n      0x769d11e400000000000000000000000000000000000000000000000000000000\n      dup2\n      mstore\n      0x04\n      add\n      mload(0x40)\n      dup1\n      swap2\n      sub\n      swap1\n      revert\n        /* \"contracts/CrowdfundingDAO.sol\":9153:9203  if (durationSeconds == 0) revert InvalidDeadline() */\n    tag_97:\n        /* \"contracts/CrowdfundingDAO.sol\":9257:9271  nextCampaignId */\n      0x00\n      0x00\n        /* \"contracts/CrowdfundingDAO.sol\":9257:9273  nextCampaignId++ */\n      dup2\n      sload\n      dup1\n      swap3\n      swap2\n      swap1\n      tag_98\n      swap1\n      tag_99\n      jump\t// in\n    tag_98:\n      swap2\n      swap1\n      pop\n      sstore\n        /* \"contracts/CrowdfundingDAO.sol\":9244:9273  campaignId = nextCampaignId++ */\n      swap1\n      pop\n        /* \"contracts/CrowdfundingDAO.sol\":9284:9300  uint256 deadline */\n      0x00\n        /* \"contracts/CrowdfundingDAO.sol\":9321:9336  durationSeconds */\n      dup3\n        /* \"contracts/CrowdfundingDAO.sol\":9303:9318  block.timestamp */\n      timestamp\n        /* \"contracts/CrowdfundingDAO.sol\":9303:9336  block.timestamp + durationSeconds */\n      tag_100\n      swap2\n      swap1\n      tag_101\n      jump\t// in\n    tag_100:\n        /* \"contracts/CrowdfundingDAO.sol\":9284:9336  uint256 deadline = block.timestamp + durationSeconds */\n      swap1\n      pop\n        /* \"contracts/CrowdfundingDAO.sol\":9374:9635  Campaign({... */\n      mload(0x40)\n      dup1\n      0x0100\n      add\n      0x40\n      mstore\n      dup1\n        /* \"contracts/CrowdfundingDAO.sol\":9407:9417  msg.sender */\n      caller\n        /* \"contracts/CrowdfundingDAO.sol\":9374:9635  Campaign({... */\n      0xffffffffffffffffffffffffffffffffffffffff\n      and\n      dup2\n      mstore\n      0x20\n      add\n        /* \"contracts/CrowdfundingDAO.sol\":9438:9442  goal */\n      dup6\n        /* \"contracts/CrowdfundingDAO.sol\":9374:9635  Campaign({... */\n      dup2\n      mstore\n      0x20\n      add\n        /* \"contracts/CrowdfundingDAO.sol\":9467:9475  deadline */\n      dup3\n        /* \"contracts/CrowdfundingDAO.sol\":9374:9635  Campaign({... */\n      dup2\n      mstore\n      0x20\n      add\n        /* \"contracts/CrowdfundingDAO.sol\":9498:9499  0 */\n      0x00\n        /* \"contracts/CrowdfundingDAO.sol\":9374:9635  Campaign({... */\n      dup2\n      mstore\n      0x20\n      add\n        /* \"contracts/CrowdfundingDAO.sol\":9530:9531  0 */\n      0x00\n        /* \"contracts/CrowdfundingDAO.sol\":9374:9635  Campaign({... */\n      dup2\n      mstore\n      0x20\n      add\n        /* \"contracts/CrowdfundingDAO.sol\":9564:9565  0 */\n      0x00\n        /* \"contracts/CrowdfundingDAO.sol\":9374:9635  Campaign({... */\n      dup2\n      mstore\n      0x20\n      add\n        /* \"contracts/CrowdfundingDAO.sol\":9595:9596  0 */\n      0x00\n        /* \"contracts/CrowdfundingDAO.sol\":9374:9635  Campaign({... */\n      dup2\n      mstore\n      0x20\n      add\n        /* \"contracts/CrowdfundingDAO.sol\":9619:9623  true */\n      0x01\n        /* \"contracts/CrowdfundingDAO.sol\":9374:9635  Campaign({... */\n      iszero\n      iszero\n      dup2\n      mstore\n      pop\n        /* \"contracts/CrowdfundingDAO.sol\":9349:9359  _campaigns */\n      0x01\n        /* \"contracts/CrowdfundingDAO.sol\":9349:9371  _campaigns[campaignId] */\n      0x00\n        /* \"contracts/CrowdfundingDAO.sol\":9360:9370  campaignId */\n      dup5\n        /* \"contracts/CrowdfundingDAO.sol\":9349:9371  _campaigns[campaignId] */\n      dup2\n      mstore\n      0x20\n      add\n      swap1\n      dup2\n      mstore\n      0x20\n      add\n      0x00\n      keccak256\n        /* \"contracts/CrowdfundingDAO.sol\":9349:9635  _campaigns[campaignId] = Campaign({... */\n      0x00\n      dup3\n      add\n      mload\n      dup2\n      0x00\n      add\n      exp(0x0100, 0x00)\n      dup2\n      sload\n      dup2\n      0xffffffffffffffffffffffffffffffffffffffff\n      mul\n      not\n      and\n      swap1\n      dup4\n      0xffffffffffffffffffffffffffffffffffffffff\n      and\n      mul\n      or\n      swap1\n      sstore\n      pop\n      0x20\n      dup3\n      add\n      mload\n      dup2\n      0x01\n      add\n      sstore\n      0x40\n      dup3\n      add\n      mload\n      dup2\n      0x02\n      add\n      sstore\n      0x60\n      dup3\n      add\n      mload\n      dup2\n      0x03\n      add\n      sstore\n      0x80\n      dup3\n      add\n      mload\n      dup2\n      0x04\n      add\n      sstore\n      0xa0\n      dup3\n      add\n      mload\n      dup2\n      0x05\n      add\n      sstore\n      0xc0\n      dup3\n      add\n      mload\n      dup2\n      0x06\n      add\n      sstore\n      0xe0\n      dup3\n      add\n      mload\n      dup2\n      0x07\n      add\n      exp(0x0100, 0x00)\n      dup2\n      sload\n      dup2\n      0xff\n      mul\n      not\n      and\n      swap1\n      dup4\n      iszero\n      iszero\n      mul\n      or\n      swap1\n      sstore\n      pop\n      swap1\n      pop\n      pop\n        /* \"contracts/CrowdfundingDAO.sol\":9681:9691  msg.sender */\n      caller\n        /* \"contracts/CrowdfundingDAO.sol\":9653:9708  CampaignCreated(campaignId, msg.sender, goal, deadline) */\n      0xffffffffffffffffffffffffffffffffffffffff\n      and\n        /* \"contracts/CrowdfundingDAO.sol\":9669:9679  campaignId */\n      dup3\n        /* \"contracts/CrowdfundingDAO.sol\":9653:9708  CampaignCreated(campaignId, msg.sender, goal, deadline) */\n      0x91b289a829e71d811b8c69e4a24ba2d40d115d8a236e9a724cb3bb2d43cf7223\n        /* \"contracts/CrowdfundingDAO.sol\":9693:9697  goal */\n      dup7\n        /* \"contracts/CrowdfundingDAO.sol\":9699:9707  deadline */\n      dup5\n        /* \"contracts/CrowdfundingDAO.sol\":9653:9708  CampaignCreated(campaignId, msg.sender, goal, deadline) */\n      mload(0x40)\n      tag_102\n      swap3\n      swap2\n      swap1\n      tag_103\n      jump\t// in\n    tag_102:\n      mload(0x40)\n      dup1\n      swap2\n      sub\n      swap1\n      log3\n        /* \"contracts/CrowdfundingDAO.sol\":9072:9716  {... */\n      pop\n        /* \"contracts/CrowdfundingDAO.sol\":8948:9716  function createCampaign(uint256 goal, uint256 durationSeconds)... */\n      swap3\n      swap2\n      pop\n      pop\n      jump\t// out\n        /* \"contracts/CrowdfundingDAO.sol\":5743:5811  mapping(uint256 => mapping(address => uint256)) public contributions */\n    tag_40:\n      mstore(0x20, 0x02)\n      dup2\n      0x00\n      mstore\n      mstore(0x20, keccak256(0x00, 0x40))\n      dup1\n      0x00\n      mstore\n      keccak256(0x00, 0x40)\n      0x00\n      swap2\n      pop\n      swap2\n      pop\n      pop\n      sload\n      dup2\n      jump\t// out\n        /* \"contracts/CrowdfundingDAO.sol\":19082:19279  function getCampaign(uint256 campaignId)... */\n    tag_46:\n        /* \"contracts/CrowdfundingDAO.sol\":19209:19224  Campaign memory */\n      tag_104\n      tag_105\n      jump\t// in\n    tag_104:\n        /* \"contracts/CrowdfundingDAO.sol\":19179:19189  campaignId */\n      dup2\n        /* \"contracts/CrowdfundingDAO.sol\":7688:7698  _campaigns */\n      0x01\n        /* \"contracts/CrowdfundingDAO.sol\":7688:7710  _campaigns[campaignId] */\n      0x00\n        /* \"contracts/CrowdfundingDAO.sol\":7699:7709  campaignId */\n      dup3\n        /* \"contracts/CrowdfundingDAO.sol\":7688:7710  _campaigns[campaignId] */\n      dup2\n      mstore\n      0x20\n      add\n      swap1\n      dup2\n      mstore\n      0x20\n      add\n      0x00\n      keccak256\n        /* \"contracts/CrowdfundingDAO.sol\":7688:7717  _campaigns[campaignId].exists */\n      0x07\n      add\n      0x00\n      swap1\n      sload\n      swap1\n      0x0100\n      exp\n      swap1\n      div\n      0xff\n      and\n        /* \"contracts/CrowdfundingDAO.sol\":7683:7748  if (!_campaigns[campaignId].exists) revert CampaignDoesNotExist() */\n      tag_107\n      jumpi\n        /* \"contracts/CrowdfundingDAO.sol\":7726:7748  CampaignDoesNotExist() */\n      mload(0x40)\n      0x9b35ed3b00000000000000000000000000000000000000000000000000000000\n      dup2\n      mstore\n      0x04\n      add\n      mload(0x40)\n      dup1\n      swap2\n      sub\n      swap1\n      revert\n        /* \"contracts/CrowdfundingDAO.sol\":7683:7748  if (!_campaigns[campaignId].exists) revert CampaignDoesNotExist() */\n    tag_107:\n        /* \"contracts/CrowdfundingDAO.sol\":19249:19259  _campaigns */\n      0x01\n        /* \"contracts/CrowdfundingDAO.sol\":19249:19271  _campaigns[campaignId] */\n      0x00\n        /* \"contracts/CrowdfundingDAO.sol\":19260:19270  campaignId */\n      dup5\n        /* \"contracts/CrowdfundingDAO.sol\":19249:19271  _campaigns[campaignId] */\n      dup2\n      mstore\n      0x20\n      add\n      swap1\n      dup2\n      mstore\n      0x20\n      add\n      0x00\n      keccak256\n        /* \"contracts/CrowdfundingDAO.sol\":19242:19271  return _campaigns[campaignId] */\n      mload(0x40)\n      dup1\n      0x0100\n      add\n      0x40\n      mstore\n      swap1\n      dup2\n      0x00\n      dup3\n      add\n      0x00\n      swap1\n      sload\n      swap1\n      0x0100\n      exp\n      swap1\n      div\n      0xffffffffffffffffffffffffffffffffffffffff\n      and\n      0xffffffffffffffffffffffffffffffffffffffff\n      and\n      0xffffffffffffffffffffffffffffffffffffffff\n      and\n      dup2\n      mstore\n      0x20\n      add\n      0x01\n      dup3\n      add\n      sload\n      dup2\n      mstore\n      0x20\n      add\n      0x02\n      dup3\n      add\n      sload\n      dup2\n      mstore\n      0x20\n      add\n      0x03\n      dup3\n      add\n      sload\n      dup2\n      mstore\n      0x20\n      add\n      0x04\n      dup3\n      add\n      sload\n      dup2\n      mstore\n      0x20\n      add\n      0x05\n      dup3\n      add\n      sload\n      dup2\n      mstore\n      0x20\n      add\n      0x06\n      dup3\n      add\n      sload\n      dup2\n      mstore\n      0x20\n      add\n      0x07\n      dup3\n      add\n      0x00\n      swap1\n      sload\n      swap1\n      0x0100\n      exp\n      swap1\n      div\n      0xff\n      and\n      iszero\n      iszero\n      iszero\n      iszero\n      dup2\n      mstore\n      pop\n      pop\n      swap2\n      pop\n        /* \"contracts/CrowdfundingDAO.sol\":19082:19279  function getCampaign(uint256 campaignId)... */\n      pop\n      swap2\n      swap1\n      pop\n      jump\t// out\n        /* \"contracts/CrowdfundingDAO.sol\":11599:12420  function claimRefund(uint256 campaignId)... */\n    tag_52:\n        /* \"@openzeppelin/contracts/utils/ReentrancyGuard.sol\":3023:3044  _nonReentrantBefore() */\n      tag_110\n        /* \"@openzeppelin/contracts/utils/ReentrancyGuard.sol\":3023:3042  _nonReentrantBefore */\n      tag_111\n        /* \"@openzeppelin/contracts/utils/ReentrancyGuard.sol\":3023:3044  _nonReentrantBefore() */\n      jump\t// in\n    tag_110:\n        /* \"contracts/CrowdfundingDAO.sol\":11704:11714  campaignId */\n      dup1\n        /* \"contracts/CrowdfundingDAO.sol\":7688:7698  _campaigns */\n      0x01\n        /* \"contracts/CrowdfundingDAO.sol\":7688:7710  _campaigns[campaignId] */\n      0x00\n        /* \"contracts/CrowdfundingDAO.sol\":7699:7709  campaignId */\n      dup3\n        /* \"contracts/CrowdfundingDAO.sol\":7688:7710  _campaigns[campaignId] */\n      dup2\n      mstore\n      0x20\n      add\n      swap1\n      dup2\n      mstore\n      0x20\n      add\n      0x00\n      keccak256\n        /* \"contracts/CrowdfundingDAO.sol\":7688:7717  _campaigns[campaignId].exists */\n      0x07\n      add\n      0x00\n      swap1\n      sload\n      swap1\n      0x0100\n      exp\n      swap1\n      div\n      0xff\n      and\n        /* \"contracts/CrowdfundingDAO.sol\":7683:7748  if (!_campaigns[campaignId].exists) revert CampaignDoesNotExist() */\n      tag_113\n      jumpi\n        /* \"contracts/CrowdfundingDAO.sol\":7726:7748  CampaignDoesNotExist() */\n      mload(0x40)\n      0x9b35ed3b00000000000000000000000000000000000000000000000000000000\n      dup2\n      mstore\n      0x04\n      add\n      mload(0x40)\n      dup1\n      swap2\n      sub\n      swap1\n      revert\n        /* \"contracts/CrowdfundingDAO.sol\":7683:7748  if (!_campaigns[campaignId].exists) revert CampaignDoesNotExist() */\n    tag_113:\n        /* \"contracts/CrowdfundingDAO.sol\":11732:11757  Campaign storage campaign */\n      0x00\n        /* \"contracts/CrowdfundingDAO.sol\":11760:11770  _campaigns */\n      0x01\n        /* \"contracts/CrowdfundingDAO.sol\":11760:11782  _campaigns[campaignId] */\n      0x00\n        /* \"contracts/CrowdfundingDAO.sol\":11771:11781  campaignId */\n      dup5\n        /* \"contracts/CrowdfundingDAO.sol\":11760:11782  _campaigns[campaignId] */\n      dup2\n      mstore\n      0x20\n      add\n      swap1\n      dup2\n      mstore\n      0x20\n      add\n      0x00\n      keccak256\n        /* \"contracts/CrowdfundingDAO.sol\":11732:11782  Campaign storage campaign = _campaigns[campaignId] */\n      swap1\n      pop\n        /* \"contracts/CrowdfundingDAO.sol\":11844:11852  campaign */\n      dup1\n        /* \"contracts/CrowdfundingDAO.sol\":11844:11861  campaign.deadline */\n      0x02\n      add\n      sload\n        /* \"contracts/CrowdfundingDAO.sol\":11826:11841  block.timestamp */\n      timestamp\n        /* \"contracts/CrowdfundingDAO.sol\":11826:11861  block.timestamp < campaign.deadline */\n      lt\n        /* \"contracts/CrowdfundingDAO.sol\":11822:11891  if (block.timestamp < campaign.deadline) revert CampaignStillActive() */\n      iszero\n      tag_115\n      jumpi\n        /* \"contracts/CrowdfundingDAO.sol\":11870:11891  CampaignStillActive() */\n      mload(0x40)\n      0x9cb6acb600000000000000000000000000000000000000000000000000000000\n      dup2\n      mstore\n      0x04\n      add\n      mload(0x40)\n      dup1\n      swap2\n      sub\n      swap1\n      revert\n        /* \"contracts/CrowdfundingDAO.sol\":11822:11891  if (block.timestamp < campaign.deadline) revert CampaignStillActive() */\n    tag_115:\n        /* \"contracts/CrowdfundingDAO.sol\":11925:11933  campaign */\n      dup1\n        /* \"contracts/CrowdfundingDAO.sol\":11925:11938  campaign.goal */\n      0x01\n      add\n      sload\n        /* \"contracts/CrowdfundingDAO.sol\":11906:11914  campaign */\n      dup2\n        /* \"contracts/CrowdfundingDAO.sol\":11906:11921  campaign.raised */\n      0x03\n      add\n      sload\n        /* \"contracts/CrowdfundingDAO.sol\":11906:11938  campaign.raised >= campaign.goal */\n      lt\n        /* \"contracts/CrowdfundingDAO.sol\":11902:11966  if (campaign.raised >= campaign.goal) revert CampaignSucceeded() */\n      tag_116\n      jumpi\n        /* \"contracts/CrowdfundingDAO.sol\":11947:11966  CampaignSucceeded() */\n      mload(0x40)\n      0x26bcd1ab00000000000000000000000000000000000000000000000000000000\n      dup2\n      mstore\n      0x04\n      add\n      mload(0x40)\n      dup1\n      swap2\n      sub\n      swap1\n      revert\n        /* \"contracts/CrowdfundingDAO.sol\":11902:11966  if (campaign.raised >= campaign.goal) revert CampaignSucceeded() */\n    tag_116:\n        /* \"contracts/CrowdfundingDAO.sol\":11979:11993  uint256 amount */\n      0x00\n        /* \"contracts/CrowdfundingDAO.sol\":11996:12009  contributions */\n      0x02\n        /* \"contracts/CrowdfundingDAO.sol\":11996:12021  contributions[campaignId] */\n      0x00\n        /* \"contracts/CrowdfundingDAO.sol\":12010:12020  campaignId */\n      dup6\n        /* \"contracts/CrowdfundingDAO.sol\":11996:12021  contributions[campaignId] */\n      dup2\n      mstore\n      0x20\n      add\n      swap1\n      dup2\n      mstore\n      0x20\n      add\n      0x00\n      keccak256\n        /* \"contracts/CrowdfundingDAO.sol\":11996:12033  contributions[campaignId][msg.sender] */\n      0x00\n        /* \"contracts/CrowdfundingDAO.sol\":12022:12032  msg.sender */\n      caller\n        /* \"contracts/CrowdfundingDAO.sol\":11996:12033  contributions[campaignId][msg.sender] */\n      0xffffffffffffffffffffffffffffffffffffffff\n      and\n      0xffffffffffffffffffffffffffffffffffffffff\n      and\n      dup2\n      mstore\n      0x20\n      add\n      swap1\n      dup2\n      mstore\n      0x20\n      add\n      0x00\n      keccak256\n      sload\n        /* \"contracts/CrowdfundingDAO.sol\":11979:12033  uint256 amount = contributions[campaignId][msg.sender] */\n      swap1\n      pop\n        /* \"contracts/CrowdfundingDAO.sol\":12058:12059  0 */\n      0x00\n        /* \"contracts/CrowdfundingDAO.sol\":12048:12054  amount */\n      dup2\n        /* \"contracts/CrowdfundingDAO.sol\":12048:12059  amount == 0 */\n      sub\n        /* \"contracts/CrowdfundingDAO.sol\":12044:12085  if (amount == 0) revert NothingToRefund() */\n      tag_117\n      jumpi\n        /* \"contracts/CrowdfundingDAO.sol\":12068:12085  NothingToRefund() */\n      mload(0x40)\n      0xf76aef6500000000000000000000000000000000000000000000000000000000\n      dup2\n      mstore\n      0x04\n      add\n      mload(0x40)\n      dup1\n      swap2\n      sub\n      swap1\n      revert\n        /* \"contracts/CrowdfundingDAO.sol\":12044:12085  if (amount == 0) revert NothingToRefund() */\n    tag_117:\n        /* \"contracts/CrowdfundingDAO.sol\":12166:12167  0 */\n      0x00\n        /* \"contracts/CrowdfundingDAO.sol\":12126:12139  contributions */\n      0x02\n        /* \"contracts/CrowdfundingDAO.sol\":12126:12151  contributions[campaignId] */\n      0x00\n        /* \"contracts/CrowdfundingDAO.sol\":12140:12150  campaignId */\n      dup7\n        /* \"contracts/CrowdfundingDAO.sol\":12126:12151  contributions[campaignId] */\n      dup2\n      mstore\n      0x20\n      add\n      swap1\n      dup2\n      mstore\n      0x20\n      add\n      0x00\n      keccak256\n        /* \"contracts/CrowdfundingDAO.sol\":12126:12163  contributions[campaignId][msg.sender] */\n      0x00\n        /* \"contracts/CrowdfundingDAO.sol\":12152:12162  msg.sender */\n      caller\n        /* \"contracts/CrowdfundingDAO.sol\":12126:12163  contributions[campaignId][msg.sender] */\n      0xffffffffffffffffffffffffffffffffffffffff\n      and\n      0xffffffffffffffffffffffffffffffffffffffff\n      and\n      dup2\n      mstore\n      0x20\n      add\n      swap1\n      dup2\n      mstore\n      0x20\n      add\n      0x00\n      keccak256\n        /* \"contracts/CrowdfundingDAO.sol\":12126:12167  contributions[campaignId][msg.sender] = 0 */\n      dup2\n      swap1\n      sstore\n      pop\n        /* \"contracts/CrowdfundingDAO.sol\":12197:12203  amount */\n      dup1\n        /* \"contracts/CrowdfundingDAO.sol\":12178:12186  campaign */\n      dup3\n        /* \"contracts/CrowdfundingDAO.sol\":12178:12193  campaign.raised */\n      0x03\n      add\n      0x00\n        /* \"contracts/CrowdfundingDAO.sol\":12178:12203  campaign.raised -= amount */\n      dup3\n      dup3\n      sload\n      tag_118\n      swap2\n      swap1\n      tag_119\n      jump\t// in\n    tag_118:\n      swap3\n      pop\n      pop\n      dup2\n      swap1\n      sstore\n      pop\n        /* \"contracts/CrowdfundingDAO.sol\":12250:12257  bool ok */\n      0x00\n        /* \"contracts/CrowdfundingDAO.sol\":12271:12281  msg.sender */\n      caller\n        /* \"contracts/CrowdfundingDAO.sol\":12263:12287  payable(msg.sender).call */\n      0xffffffffffffffffffffffffffffffffffffffff\n      and\n        /* \"contracts/CrowdfundingDAO.sol\":12295:12301  amount */\n      dup3\n        /* \"contracts/CrowdfundingDAO.sol\":12263:12306  payable(msg.sender).call{value: amount}(\"\") */\n      mload(0x40)\n      tag_120\n      swap1\n      tag_121\n      jump\t// in\n    tag_120:\n      0x00\n      mload(0x40)\n      dup1\n      dup4\n      sub\n      dup2\n      dup6\n      dup8\n      gas\n      call\n      swap3\n      pop\n      pop\n      pop\n      returndatasize\n      dup1\n      0x00\n      dup2\n      eq\n      tag_124\n      jumpi\n      mload(0x40)\n      swap2\n      pop\n      and(add(returndatasize, 0x3f), not(0x1f))\n      dup3\n      add\n      0x40\n      mstore\n      returndatasize\n      dup3\n      mstore\n      returndatasize\n      0x00\n      0x20\n      dup5\n      add\n      returndatacopy\n      jump(tag_123)\n    tag_124:\n      0x60\n      swap2\n      pop\n    tag_123:\n      pop\n        /* \"contracts/CrowdfundingDAO.sol\":12249:12306  (bool ok, ) = payable(msg.sender).call{value: amount}(\"\") */\n      pop\n      swap1\n      pop\n        /* \"contracts/CrowdfundingDAO.sol\":12322:12324  ok */\n      dup1\n        /* \"contracts/CrowdfundingDAO.sol\":12317:12349  if (!ok) revert TransferFailed() */\n      tag_125\n      jumpi\n        /* \"contracts/CrowdfundingDAO.sol\":12333:12349  TransferFailed() */\n      mload(0x40)\n      0x90b8ec1800000000000000000000000000000000000000000000000000000000\n      dup2\n      mstore\n      0x04\n      add\n      mload(0x40)\n      dup1\n      swap2\n      sub\n      swap1\n      revert\n        /* \"contracts/CrowdfundingDAO.sol\":12317:12349  if (!ok) revert TransferFailed() */\n    tag_125:\n        /* \"contracts/CrowdfundingDAO.sol\":12393:12403  msg.sender */\n      caller\n        /* \"contracts/CrowdfundingDAO.sol\":12367:12412  RefundClaimed(campaignId, msg.sender, amount) */\n      0xffffffffffffffffffffffffffffffffffffffff\n      and\n        /* \"contracts/CrowdfundingDAO.sol\":12381:12391  campaignId */\n      dup6\n        /* \"contracts/CrowdfundingDAO.sol\":12367:12412  RefundClaimed(campaignId, msg.sender, amount) */\n      0xf3f402280ef0a7905e124aa621b65eaeb2725c343e8b36d398ed78c29daf285c\n        /* \"contracts/CrowdfundingDAO.sol\":12405:12411  amount */\n      dup5\n        /* \"contracts/CrowdfundingDAO.sol\":12367:12412  RefundClaimed(campaignId, msg.sender, amount) */\n      mload(0x40)\n      tag_126\n      swap2\n      swap1\n      tag_35\n      jump\t// in\n    tag_126:\n      mload(0x40)\n      dup1\n      swap2\n      sub\n      swap1\n      log3\n        /* \"contracts/CrowdfundingDAO.sol\":11721:12420  {... */\n      pop\n      pop\n      pop\n        /* \"@openzeppelin/contracts/utils/ReentrancyGuard.sol\":3054:3055  _ */\n      pop\n        /* \"@openzeppelin/contracts/utils/ReentrancyGuard.sol\":3065:3085  _nonReentrantAfter() */\n      tag_127\n        /* \"@openzeppelin/contracts/utils/ReentrancyGuard.sol\":3065:3083  _nonReentrantAfter */\n      tag_128\n        /* \"@openzeppelin/contracts/utils/ReentrancyGuard.sol\":3065:3085  _nonReentrantAfter() */\n      jump\t// in\n    tag_127:\n        /* \"contracts/CrowdfundingDAO.sol\":11599:12420  function claimRefund(uint256 campaignId)... */\n      pop\n      jump\t// out\n        /* \"contracts/CrowdfundingDAO.sol\":13510:14855  function createProposal(... */\n    tag_57:\n        /* \"contracts/CrowdfundingDAO.sol\":13775:13793  uint256 proposalId */\n      0x00\n        /* \"contracts/CrowdfundingDAO.sol\":13712:13722  campaignId */\n      dup6\n        /* \"contracts/CrowdfundingDAO.sol\":7688:7698  _campaigns */\n      0x01\n        /* \"contracts/CrowdfundingDAO.sol\":7688:7710  _campaigns[campaignId] */\n      0x00\n        /* \"contracts/CrowdfundingDAO.sol\":7699:7709  campaignId */\n      dup3\n        /* \"contracts/CrowdfundingDAO.sol\":7688:7710  _campaigns[campaignId] */\n      dup2\n      mstore\n      0x20\n      add\n      swap1\n      dup2\n      mstore\n      0x20\n      add\n      0x00\n      keccak256\n        /* \"contracts/CrowdfundingDAO.sol\":7688:7717  _campaigns[campaignId].exists */\n      0x07\n      add\n      0x00\n      swap1\n      sload\n      swap1\n      0x0100\n      exp\n      swap1\n      div\n      0xff\n      and\n        /* \"contracts/CrowdfundingDAO.sol\":7683:7748  if (!_campaigns[campaignId].exists) revert CampaignDoesNotExist() */\n      tag_130\n      jumpi\n        /* \"contracts/CrowdfundingDAO.sol\":7726:7748  CampaignDoesNotExist() */\n      mload(0x40)\n      0x9b35ed3b00000000000000000000000000000000000000000000000000000000\n      dup2\n      mstore\n      0x04\n      add\n      mload(0x40)\n      dup1\n      swap2\n      sub\n      swap1\n      revert\n        /* \"contracts/CrowdfundingDAO.sol\":7683:7748  if (!_campaigns[campaignId].exists) revert CampaignDoesNotExist() */\n    tag_130:\n        /* \"contracts/CrowdfundingDAO.sol\":13745:13755  campaignId */\n      dup7\n        /* \"contracts/CrowdfundingDAO.sol\":7909:7919  _campaigns */\n      0x01\n        /* \"contracts/CrowdfundingDAO.sol\":7909:7931  _campaigns[campaignId] */\n      0x00\n        /* \"contracts/CrowdfundingDAO.sol\":7920:7930  campaignId */\n      dup3\n        /* \"contracts/CrowdfundingDAO.sol\":7909:7931  _campaigns[campaignId] */\n      dup2\n      mstore\n      0x20\n      add\n      swap1\n      dup2\n      mstore\n      0x20\n      add\n      0x00\n      keccak256\n        /* \"contracts/CrowdfundingDAO.sol\":7909:7939  _campaigns[campaignId].creator */\n      0x00\n      add\n      0x00\n      swap1\n      sload\n      swap1\n      0x0100\n      exp\n      swap1\n      div\n      0xffffffffffffffffffffffffffffffffffffffff\n      and\n        /* \"contracts/CrowdfundingDAO.sol\":7895:7939  msg.sender != _campaigns[campaignId].creator */\n      0xffffffffffffffffffffffffffffffffffffffff\n      and\n        /* \"contracts/CrowdfundingDAO.sol\":7895:7905  msg.sender */\n      caller\n        /* \"contracts/CrowdfundingDAO.sol\":7895:7939  msg.sender != _campaigns[campaignId].creator */\n      0xffffffffffffffffffffffffffffffffffffffff\n      and\n      eq\n        /* \"contracts/CrowdfundingDAO.sol\":7891:7968  if (msg.sender != _campaigns[campaignId].creator) revert NotCampaignCreator() */\n      tag_132\n      jumpi\n        /* \"contracts/CrowdfundingDAO.sol\":7948:7968  NotCampaignCreator() */\n      mload(0x40)\n      0xe681a15c00000000000000000000000000000000000000000000000000000000\n      dup2\n      mstore\n      0x04\n      add\n      mload(0x40)\n      dup1\n      swap2\n      sub\n      swap1\n      revert\n        /* \"contracts/CrowdfundingDAO.sol\":7891:7968  if (msg.sender != _campaigns[campaignId].creator) revert NotCampaignCreator() */\n    tag_132:\n        /* \"contracts/CrowdfundingDAO.sol\":13811:13836  Campaign storage campaign */\n      0x00\n        /* \"contracts/CrowdfundingDAO.sol\":13839:13849  _campaigns */\n      0x01\n        /* \"contracts/CrowdfundingDAO.sol\":13839:13861  _campaigns[campaignId] */\n      0x00\n        /* \"contracts/CrowdfundingDAO.sol\":13850:13860  campaignId */\n      dup11\n        /* \"contracts/CrowdfundingDAO.sol\":13839:13861  _campaigns[campaignId] */\n      dup2\n      mstore\n      0x20\n      add\n      swap1\n      dup2\n      mstore\n      0x20\n      add\n      0x00\n      keccak256\n        /* \"contracts/CrowdfundingDAO.sol\":13811:13861  Campaign storage campaign = _campaigns[campaignId] */\n      swap1\n      pop\n        /* \"contracts/CrowdfundingDAO.sol\":13923:13931  campaign */\n      dup1\n        /* \"contracts/CrowdfundingDAO.sol\":13923:13936  campaign.goal */\n      0x01\n      add\n      sload\n        /* \"contracts/CrowdfundingDAO.sol\":13905:13913  campaign */\n      dup2\n        /* \"contracts/CrowdfundingDAO.sol\":13905:13920  campaign.raised */\n      0x03\n      add\n      sload\n        /* \"contracts/CrowdfundingDAO.sol\":13905:13936  campaign.raised < campaign.goal */\n      lt\n        /* \"contracts/CrowdfundingDAO.sol\":13901:13964  if (campaign.raised < campaign.goal) revert CampaignNotFunded() */\n      iszero\n      tag_134\n      jumpi\n        /* \"contracts/CrowdfundingDAO.sol\":13945:13964  CampaignNotFunded() */\n      mload(0x40)\n      0x329f104f00000000000000000000000000000000000000000000000000000000\n      dup2\n      mstore\n      0x04\n      add\n      mload(0x40)\n      dup1\n      swap2\n      sub\n      swap1\n      revert\n        /* \"contracts/CrowdfundingDAO.sol\":13901:13964  if (campaign.raised < campaign.goal) revert CampaignNotFunded() */\n    tag_134:\n        /* \"contracts/CrowdfundingDAO.sol\":14001:14002  0 */\n      0x00\n        /* \"contracts/CrowdfundingDAO.sol\":13979:13997  votingDurationSecs */\n      dup6\n        /* \"contracts/CrowdfundingDAO.sol\":13979:14002  votingDurationSecs == 0 */\n      sub\n        /* \"contracts/CrowdfundingDAO.sol\":13975:14032  if (votingDurationSecs == 0) revert InvalidVotingPeriod() */\n      tag_135\n      jumpi\n        /* \"contracts/CrowdfundingDAO.sol\":14011:14032  InvalidVotingPeriod() */\n      mload(0x40)\n      0x05a612e300000000000000000000000000000000000000000000000000000000\n      dup2\n      mstore\n      0x04\n      add\n      mload(0x40)\n      dup1\n      swap2\n      sub\n      swap1\n      revert\n        /* \"contracts/CrowdfundingDAO.sol\":13975:14032  if (votingDurationSecs == 0) revert InvalidVotingPeriod() */\n    tag_135:\n        /* \"contracts/CrowdfundingDAO.sol\":14057:14058  0 */\n      0x00\n        /* \"contracts/CrowdfundingDAO.sol\":14047:14053  amount */\n      dup9\n        /* \"contracts/CrowdfundingDAO.sol\":14047:14058  amount == 0 */\n      sub\n        /* \"contracts/CrowdfundingDAO.sol\":14043:14087  if (amount == 0) revert ZeroProposalAmount() */\n      tag_136\n      jumpi\n        /* \"contracts/CrowdfundingDAO.sol\":14067:14087  ZeroProposalAmount() */\n      mload(0x40)\n      0xbc5a91e400000000000000000000000000000000000000000000000000000000\n      dup2\n      mstore\n      0x04\n      add\n      mload(0x40)\n      dup1\n      swap2\n      sub\n      swap1\n      revert\n        /* \"contracts/CrowdfundingDAO.sol\":14043:14087  if (amount == 0) revert ZeroProposalAmount() */\n    tag_136:\n        /* \"contracts/CrowdfundingDAO.sol\":14100:14117  uint256 available */\n      0x00\n        /* \"contracts/CrowdfundingDAO.sol\":14138:14146  campaign */\n      dup2\n        /* \"contracts/CrowdfundingDAO.sol\":14138:14161  campaign.releasedAmount */\n      0x04\n      add\n      sload\n        /* \"contracts/CrowdfundingDAO.sol\":14120:14128  campaign */\n      dup3\n        /* \"contracts/CrowdfundingDAO.sol\":14120:14135  campaign.raised */\n      0x03\n      add\n      sload\n        /* \"contracts/CrowdfundingDAO.sol\":14120:14161  campaign.raised - campaign.releasedAmount */\n      tag_137\n      swap2\n      swap1\n      tag_119\n      jump\t// in\n    tag_137:\n        /* \"contracts/CrowdfundingDAO.sol\":14100:14161  uint256 available = campaign.raised - campaign.releasedAmount */\n      swap1\n      pop\n        /* \"contracts/CrowdfundingDAO.sol\":14185:14194  available */\n      dup1\n        /* \"contracts/CrowdfundingDAO.sol\":14176:14182  amount */\n      dup10\n        /* \"contracts/CrowdfundingDAO.sol\":14176:14194  amount > available */\n      gt\n        /* \"contracts/CrowdfundingDAO.sol\":14172:14232  if (amount > available) revert AmountExceedsAvailableFunds() */\n      iszero\n      tag_138\n      jumpi\n        /* \"contracts/CrowdfundingDAO.sol\":14203:14232  AmountExceedsAvailableFunds() */\n      mload(0x40)\n      0x62d5bfec00000000000000000000000000000000000000000000000000000000\n      dup2\n      mstore\n      0x04\n      add\n      mload(0x40)\n      dup1\n      swap2\n      sub\n      swap1\n      revert\n        /* \"contracts/CrowdfundingDAO.sol\":14172:14232  if (amount > available) revert AmountExceedsAvailableFunds() */\n    tag_138:\n        /* \"contracts/CrowdfundingDAO.sol\":14286:14294  campaign */\n      dup2\n        /* \"contracts/CrowdfundingDAO.sol\":14286:14308  campaign.proposalCount */\n      0x06\n      add\n      0x00\n        /* \"contracts/CrowdfundingDAO.sol\":14286:14310  campaign.proposalCount++ */\n      dup2\n      sload\n      dup1\n      swap3\n      swap2\n      swap1\n      tag_139\n      swap1\n      tag_99\n      jump\t// in\n    tag_139:\n      swap2\n      swap1\n      pop\n      sstore\n        /* \"contracts/CrowdfundingDAO.sol\":14273:14310  proposalId = campaign.proposalCount++ */\n      swap5\n      pop\n        /* \"contracts/CrowdfundingDAO.sol\":14321:14343  uint256 votingDeadline */\n      0x00\n        /* \"contracts/CrowdfundingDAO.sol\":14364:14382  votingDurationSecs */\n      dup7\n        /* \"contracts/CrowdfundingDAO.sol\":14346:14361  block.timestamp */\n      timestamp\n        /* \"contracts/CrowdfundingDAO.sol\":14346:14382  block.timestamp + votingDurationSecs */\n      tag_140\n      swap2\n      swap1\n      tag_101\n      jump\t// in\n    tag_140:\n        /* \"contracts/CrowdfundingDAO.sol\":14321:14382  uint256 votingDeadline = block.timestamp + votingDurationSecs */\n      swap1\n      pop\n        /* \"contracts/CrowdfundingDAO.sol\":14432:14652  Proposal({... */\n      mload(0x40)\n      dup1\n      0xc0\n      add\n      0x40\n      mstore\n      dup1\n        /* \"contracts/CrowdfundingDAO.sol\":14469:14480  description */\n      dup11\n      dup11\n        /* \"contracts/CrowdfundingDAO.sol\":14432:14652  Proposal({... */\n      dup1\n      dup1\n      0x1f\n      add\n      0x20\n      dup1\n      swap2\n      div\n      mul\n      0x20\n      add\n      mload(0x40)\n      swap1\n      dup2\n      add\n      0x40\n      mstore\n      dup1\n      swap4\n      swap3\n      swap2\n      swap1\n      dup2\n      dup2\n      mstore\n      0x20\n      add\n      dup4\n      dup4\n      dup1\n      dup3\n      dup5\n      calldatacopy\n      0x00\n      dup2\n      dup5\n      add\n      mstore\n      not(0x1f)\n      0x1f\n      dup3\n      add\n      and\n      swap1\n      pop\n      dup1\n      dup4\n      add\n      swap3\n      pop\n      pop\n      pop\n      pop\n      pop\n      pop\n      pop\n      dup2\n      mstore\n      0x20\n      add\n        /* \"contracts/CrowdfundingDAO.sol\":14503:14509  amount */\n      dup12\n        /* \"contracts/CrowdfundingDAO.sol\":14432:14652  Proposal({... */\n      dup2\n      mstore\n      0x20\n      add\n        /* \"contracts/CrowdfundingDAO.sol\":14540:14554  votingDeadline */\n      dup3\n        /* \"contracts/CrowdfundingDAO.sol\":14432:14652  Proposal({... */\n      dup2\n      mstore\n      0x20\n      add\n        /* \"contracts/CrowdfundingDAO.sol\":14579:14580  0 */\n      0x00\n        /* \"contracts/CrowdfundingDAO.sol\":14432:14652  Proposal({... */\n      dup2\n      mstore\n      0x20\n      add\n        /* \"contracts/CrowdfundingDAO.sol\":14609:14610  0 */\n      0x00\n        /* \"contracts/CrowdfundingDAO.sol\":14432:14652  Proposal({... */\n      dup2\n      mstore\n      0x20\n      add\n        /* \"contracts/CrowdfundingDAO.sol\":14635:14640  false */\n      0x00\n        /* \"contracts/CrowdfundingDAO.sol\":14432:14652  Proposal({... */\n      iszero\n      iszero\n      dup2\n      mstore\n      pop\n        /* \"contracts/CrowdfundingDAO.sol\":14395:14405  _proposals */\n      0x03\n        /* \"contracts/CrowdfundingDAO.sol\":14395:14417  _proposals[campaignId] */\n      0x00\n        /* \"contracts/CrowdfundingDAO.sol\":14406:14416  campaignId */\n      dup14\n        /* \"contracts/CrowdfundingDAO.sol\":14395:14417  _proposals[campaignId] */\n      dup2\n      mstore\n      0x20\n      add\n      swap1\n      dup2\n      mstore\n      0x20\n      add\n      0x00\n      keccak256\n        /* \"contracts/CrowdfundingDAO.sol\":14395:14429  _proposals[campaignId][proposalId] */\n      0x00\n        /* \"contracts/CrowdfundingDAO.sol\":14418:14428  proposalId */\n      dup9\n        /* \"contracts/CrowdfundingDAO.sol\":14395:14429  _proposals[campaignId][proposalId] */\n      dup2\n      mstore\n      0x20\n      add\n      swap1\n      dup2\n      mstore\n      0x20\n      add\n      0x00\n      keccak256\n        /* \"contracts/CrowdfundingDAO.sol\":14395:14652  _proposals[campaignId][proposalId] = Proposal({... */\n      0x00\n      dup3\n      add\n      mload\n      dup2\n      0x00\n      add\n      swap1\n      dup2\n      tag_141\n      swap2\n      swap1\n      tag_142\n      jump\t// in\n    tag_141:\n      pop\n      0x20\n      dup3\n      add\n      mload\n      dup2\n      0x01\n      add\n      sstore\n      0x40\n      dup3\n      add\n      mload\n      dup2\n      0x02\n      add\n      sstore\n      0x60\n      dup3\n      add\n      mload\n      dup2\n      0x03\n      add\n      sstore\n      0x80\n      dup3\n      add\n      mload\n      dup2\n      0x04\n      add\n      sstore\n      0xa0\n      dup3\n      add\n      mload\n      dup2\n      0x05\n      add\n      exp(0x0100, 0x00)\n      dup2\n      sload\n      dup2\n      0xff\n      mul\n      not\n      and\n      swap1\n      dup4\n      iszero\n      iszero\n      mul\n      or\n      swap1\n      sstore\n      pop\n      swap1\n      pop\n      pop\n        /* \"contracts/CrowdfundingDAO.sol\":14750:14760  msg.sender */\n      caller\n        /* \"contracts/CrowdfundingDAO.sol\":14670:14847  ProposalCreated(... */\n      0xffffffffffffffffffffffffffffffffffffffff\n      and\n        /* \"contracts/CrowdfundingDAO.sol\":14725:14735  proposalId */\n      dup7\n        /* \"contracts/CrowdfundingDAO.sol\":14700:14710  campaignId */\n      dup13\n        /* \"contracts/CrowdfundingDAO.sol\":14670:14847  ProposalCreated(... */\n      0x28c5c37659b1971b04de0af85aef515defa8f0fe1e7b7dbd533a98a646671141\n        /* \"contracts/CrowdfundingDAO.sol\":14775:14781  amount */\n      dup14\n        /* \"contracts/CrowdfundingDAO.sol\":14796:14810  votingDeadline */\n      dup6\n        /* \"contracts/CrowdfundingDAO.sol\":14825:14836  description */\n      dup15\n      dup15\n        /* \"contracts/CrowdfundingDAO.sol\":14670:14847  ProposalCreated(... */\n      mload(0x40)\n      tag_143\n      swap5\n      swap4\n      swap3\n      swap2\n      swap1\n      tag_144\n      jump\t// in\n    tag_143:\n      mload(0x40)\n      dup1\n      swap2\n      sub\n      swap1\n      log4\n        /* \"contracts/CrowdfundingDAO.sol\":13800:14855  {... */\n      pop\n      pop\n      pop\n        /* \"contracts/CrowdfundingDAO.sol\":7759:7760  _ */\n      pop\n        /* \"contracts/CrowdfundingDAO.sol\":13510:14855  function createProposal(... */\n      pop\n      swap6\n      swap5\n      pop\n      pop\n      pop\n      pop\n      pop\n      jump\t// out\n        /* \"contracts/CrowdfundingDAO.sol\":15454:16411  function vote(uint256 campaignId, uint256 proposalId, bool support)... */\n    tag_63:\n        /* \"contracts/CrowdfundingDAO.sol\":15564:15574  campaignId */\n      dup3\n        /* \"contracts/CrowdfundingDAO.sol\":7688:7698  _campaigns */\n      0x01\n        /* \"contracts/CrowdfundingDAO.sol\":7688:7710  _campaigns[campaignId] */\n      0x00\n        /* \"contracts/CrowdfundingDAO.sol\":7699:7709  campaignId */\n      dup3\n        /* \"contracts/CrowdfundingDAO.sol\":7688:7710  _campaigns[campaignId] */\n      dup2\n      mstore\n      0x20\n      add\n      swap1\n      dup2\n      mstore\n      0x20\n      add\n      0x00\n      keccak256\n        /* \"contracts/CrowdfundingDAO.sol\":7688:7717  _campaigns[campaignId].exists */\n      0x07\n      add\n      0x00\n      swap1\n      sload\n      swap1\n      0x0100\n      exp\n      swap1\n      div\n      0xff\n      and\n        /* \"contracts/CrowdfundingDAO.sol\":7683:7748  if (!_campaigns[campaignId].exists) revert CampaignDoesNotExist() */\n      tag_146\n      jumpi\n        /* \"contracts/CrowdfundingDAO.sol\":7726:7748  CampaignDoesNotExist() */\n      mload(0x40)\n      0x9b35ed3b00000000000000000000000000000000000000000000000000000000\n      dup2\n      mstore\n      0x04\n      add\n      mload(0x40)\n      dup1\n      swap2\n      sub\n      swap1\n      revert\n        /* \"contracts/CrowdfundingDAO.sol\":7683:7748  if (!_campaigns[campaignId].exists) revert CampaignDoesNotExist() */\n    tag_146:\n        /* \"contracts/CrowdfundingDAO.sol\":15601:15611  campaignId */\n      dup4\n        /* \"contracts/CrowdfundingDAO.sol\":8181:8182  0 */\n      0x00\n        /* \"contracts/CrowdfundingDAO.sol\":8140:8153  contributions */\n      0x02\n        /* \"contracts/CrowdfundingDAO.sol\":8140:8165  contributions[campaignId] */\n      0x00\n        /* \"contracts/CrowdfundingDAO.sol\":8154:8164  campaignId */\n      dup4\n        /* \"contracts/CrowdfundingDAO.sol\":8140:8165  contributions[campaignId] */\n      dup2\n      mstore\n      0x20\n      add\n      swap1\n      dup2\n      mstore\n      0x20\n      add\n      0x00\n      keccak256\n        /* \"contracts/CrowdfundingDAO.sol\":8140:8177  contributions[campaignId][msg.sender] */\n      0x00\n        /* \"contracts/CrowdfundingDAO.sol\":8166:8176  msg.sender */\n      caller\n        /* \"contracts/CrowdfundingDAO.sol\":8140:8177  contributions[campaignId][msg.sender] */\n      0xffffffffffffffffffffffffffffffffffffffff\n      and\n      0xffffffffffffffffffffffffffffffffffffffff\n      and\n      dup2\n      mstore\n      0x20\n      add\n      swap1\n      dup2\n      mstore\n      0x20\n      add\n      0x00\n      keccak256\n      sload\n        /* \"contracts/CrowdfundingDAO.sol\":8140:8182  contributions[campaignId][msg.sender] == 0 */\n      sub\n        /* \"contracts/CrowdfundingDAO.sol\":8136:8207  if (contributions[campaignId][msg.sender] == 0) revert NotContributor() */\n      tag_148\n      jumpi\n        /* \"contracts/CrowdfundingDAO.sol\":8191:8207  NotContributor() */\n      mload(0x40)\n      0xd764187d00000000000000000000000000000000000000000000000000000000\n      dup2\n      mstore\n      0x04\n      add\n      mload(0x40)\n      dup1\n      swap2\n      sub\n      swap1\n      revert\n        /* \"contracts/CrowdfundingDAO.sol\":8136:8207  if (contributions[campaignId][msg.sender] == 0) revert NotContributor() */\n    tag_148:\n        /* \"contracts/CrowdfundingDAO.sol\":15629:15654  Proposal storage proposal */\n      0x00\n        /* \"contracts/CrowdfundingDAO.sol\":15657:15667  _proposals */\n      0x03\n        /* \"contracts/CrowdfundingDAO.sol\":15657:15679  _proposals[campaignId] */\n      0x00\n        /* \"contracts/CrowdfundingDAO.sol\":15668:15678  campaignId */\n      dup8\n        /* \"contracts/CrowdfundingDAO.sol\":15657:15679  _proposals[campaignId] */\n      dup2\n      mstore\n      0x20\n      add\n      swap1\n      dup2\n      mstore\n      0x20\n      add\n      0x00\n      keccak256\n        /* \"contracts/CrowdfundingDAO.sol\":15657:15691  _proposals[campaignId][proposalId] */\n      0x00\n        /* \"contracts/CrowdfundingDAO.sol\":15680:15690  proposalId */\n      dup7\n        /* \"contracts/CrowdfundingDAO.sol\":15657:15691  _proposals[campaignId][proposalId] */\n      dup2\n      mstore\n      0x20\n      add\n      swap1\n      dup2\n      mstore\n      0x20\n      add\n      0x00\n      keccak256\n        /* \"contracts/CrowdfundingDAO.sol\":15629:15691  Proposal storage proposal = _proposals[campaignId][proposalId] */\n      swap1\n      pop\n        /* \"contracts/CrowdfundingDAO.sol\":15762:15763  0 */\n      0x00\n        /* \"contracts/CrowdfundingDAO.sol\":15735:15743  proposal */\n      dup2\n        /* \"contracts/CrowdfundingDAO.sol\":15735:15758  proposal.votingDeadline */\n      0x02\n      add\n      sload\n        /* \"contracts/CrowdfundingDAO.sol\":15735:15763  proposal.votingDeadline == 0 */\n      sub\n        /* \"contracts/CrowdfundingDAO.sol\":15731:15794  if (proposal.votingDeadline == 0) revert ProposalDoesNotExist() */\n      tag_150\n      jumpi\n        /* \"contracts/CrowdfundingDAO.sol\":15772:15794  ProposalDoesNotExist() */\n      mload(0x40)\n      0xd9c78e0200000000000000000000000000000000000000000000000000000000\n      dup2\n      mstore\n      0x04\n      add\n      mload(0x40)\n      dup1\n      swap2\n      sub\n      swap1\n      revert\n        /* \"contracts/CrowdfundingDAO.sol\":15731:15794  if (proposal.votingDeadline == 0) revert ProposalDoesNotExist() */\n    tag_150:\n        /* \"contracts/CrowdfundingDAO.sol\":15809:15817  proposal */\n      dup1\n        /* \"contracts/CrowdfundingDAO.sol\":15809:15826  proposal.executed */\n      0x05\n      add\n      0x00\n      swap1\n      sload\n      swap1\n      0x0100\n      exp\n      swap1\n      div\n      0xff\n      and\n        /* \"contracts/CrowdfundingDAO.sol\":15805:15860  if (proposal.executed) revert ProposalAlreadyExecuted() */\n      iszero\n      tag_151\n      jumpi\n        /* \"contracts/CrowdfundingDAO.sol\":15835:15860  ProposalAlreadyExecuted() */\n      mload(0x40)\n      0x51618d5300000000000000000000000000000000000000000000000000000000\n      dup2\n      mstore\n      0x04\n      add\n      mload(0x40)\n      dup1\n      swap2\n      sub\n      swap1\n      revert\n        /* \"contracts/CrowdfundingDAO.sol\":15805:15860  if (proposal.executed) revert ProposalAlreadyExecuted() */\n    tag_151:\n        /* \"contracts/CrowdfundingDAO.sol\":15894:15902  proposal */\n      dup1\n        /* \"contracts/CrowdfundingDAO.sol\":15894:15917  proposal.votingDeadline */\n      0x02\n      add\n      sload\n        /* \"contracts/CrowdfundingDAO.sol\":15875:15890  block.timestamp */\n      timestamp\n        /* \"contracts/CrowdfundingDAO.sol\":15875:15917  block.timestamp >= proposal.votingDeadline */\n      lt\n        /* \"contracts/CrowdfundingDAO.sol\":15871:15945  if (block.timestamp >= proposal.votingDeadline) revert VotingPeriodEnded() */\n      tag_152\n      jumpi\n        /* \"contracts/CrowdfundingDAO.sol\":15926:15945  VotingPeriodEnded() */\n      mload(0x40)\n      0xdc3b0dc400000000000000000000000000000000000000000000000000000000\n      dup2\n      mstore\n      0x04\n      add\n      mload(0x40)\n      dup1\n      swap2\n      sub\n      swap1\n      revert\n        /* \"contracts/CrowdfundingDAO.sol\":15871:15945  if (block.timestamp >= proposal.votingDeadline) revert VotingPeriodEnded() */\n    tag_152:\n        /* \"contracts/CrowdfundingDAO.sol\":15960:15968  hasVoted */\n      0x04\n        /* \"contracts/CrowdfundingDAO.sol\":15960:15980  hasVoted[campaignId] */\n      0x00\n        /* \"contracts/CrowdfundingDAO.sol\":15969:15979  campaignId */\n      dup8\n        /* \"contracts/CrowdfundingDAO.sol\":15960:15980  hasVoted[campaignId] */\n      dup2\n      mstore\n      0x20\n      add\n      swap1\n      dup2\n      mstore\n      0x20\n      add\n      0x00\n      keccak256\n        /* \"contracts/CrowdfundingDAO.sol\":15960:15992  hasVoted[campaignId][proposalId] */\n      0x00\n        /* \"contracts/CrowdfundingDAO.sol\":15981:15991  proposalId */\n      dup7\n        /* \"contracts/CrowdfundingDAO.sol\":15960:15992  hasVoted[campaignId][proposalId] */\n      dup2\n      mstore\n      0x20\n      add\n      swap1\n      dup2\n      mstore\n      0x20\n      add\n      0x00\n      keccak256\n        /* \"contracts/CrowdfundingDAO.sol\":15960:16004  hasVoted[campaignId][proposalId][msg.sender] */\n      0x00\n        /* \"contracts/CrowdfundingDAO.sol\":15993:16003  msg.sender */\n      caller\n        /* \"contracts/CrowdfundingDAO.sol\":15960:16004  hasVoted[campaignId][proposalId][msg.sender] */\n      0xffffffffffffffffffffffffffffffffffffffff\n      and\n      0xffffffffffffffffffffffffffffffffffffffff\n      and\n      dup2\n      mstore\n      0x20\n      add\n      swap1\n      dup2\n      mstore\n      0x20\n      add\n      0x00\n      keccak256\n      0x00\n      swap1\n      sload\n      swap1\n      0x0100\n      exp\n      swap1\n      div\n      0xff\n      and\n        /* \"contracts/CrowdfundingDAO.sol\":15956:16027  if (hasVoted[campaignId][proposalId][msg.sender]) revert AlreadyVoted() */\n      iszero\n      tag_153\n      jumpi\n        /* \"contracts/CrowdfundingDAO.sol\":16013:16027  AlreadyVoted() */\n      mload(0x40)\n      0x7c9a1cf900000000000000000000000000000000000000000000000000000000\n      dup2\n      mstore\n      0x04\n      add\n      mload(0x40)\n      dup1\n      swap2\n      sub\n      swap1\n      revert\n        /* \"contracts/CrowdfundingDAO.sol\":15956:16027  if (hasVoted[campaignId][proposalId][msg.sender]) revert AlreadyVoted() */\n    tag_153:\n        /* \"contracts/CrowdfundingDAO.sol\":16040:16054  uint256 weight */\n      0x00\n        /* \"contracts/CrowdfundingDAO.sol\":16057:16070  contributions */\n      0x02\n        /* \"contracts/CrowdfundingDAO.sol\":16057:16082  contributions[campaignId] */\n      0x00\n        /* \"contracts/CrowdfundingDAO.sol\":16071:16081  campaignId */\n      dup9\n        /* \"contracts/CrowdfundingDAO.sol\":16057:16082  contributions[campaignId] */\n      dup2\n      mstore\n      0x20\n      add\n      swap1\n      dup2\n      mstore\n      0x20\n      add\n      0x00\n      keccak256\n        /* \"contracts/CrowdfundingDAO.sol\":16057:16094  contributions[campaignId][msg.sender] */\n      0x00\n        /* \"contracts/CrowdfundingDAO.sol\":16083:16093  msg.sender */\n      caller\n        /* \"contracts/CrowdfundingDAO.sol\":16057:16094  contributions[campaignId][msg.sender] */\n      0xffffffffffffffffffffffffffffffffffffffff\n      and\n      0xffffffffffffffffffffffffffffffffffffffff\n      and\n      dup2\n      mstore\n      0x20\n      add\n      swap1\n      dup2\n      mstore\n      0x20\n      add\n      0x00\n      keccak256\n      sload\n        /* \"contracts/CrowdfundingDAO.sol\":16040:16094  uint256 weight = contributions[campaignId][msg.sender] */\n      swap1\n      pop\n        /* \"contracts/CrowdfundingDAO.sol\":16182:16186  true */\n      0x01\n        /* \"contracts/CrowdfundingDAO.sol\":16135:16143  hasVoted */\n      0x04\n        /* \"contracts/CrowdfundingDAO.sol\":16135:16155  hasVoted[campaignId] */\n      0x00\n        /* \"contracts/CrowdfundingDAO.sol\":16144:16154  campaignId */\n      dup10\n        /* \"contracts/CrowdfundingDAO.sol\":16135:16155  hasVoted[campaignId] */\n      dup2\n      mstore\n      0x20\n      add\n      swap1\n      dup2\n      mstore\n      0x20\n      add\n      0x00\n      keccak256\n        /* \"contracts/CrowdfundingDAO.sol\":16135:16167  hasVoted[campaignId][proposalId] */\n      0x00\n        /* \"contracts/CrowdfundingDAO.sol\":16156:16166  proposalId */\n      dup9\n        /* \"contracts/CrowdfundingDAO.sol\":16135:16167  hasVoted[campaignId][proposalId] */\n      dup2\n      mstore\n      0x20\n      add\n      swap1\n      dup2\n      mstore\n      0x20\n      add\n      0x00\n      keccak256\n        /* \"contracts/CrowdfundingDAO.sol\":16135:16179  hasVoted[campaignId][proposalId][msg.sender] */\n      0x00\n        /* \"contracts/CrowdfundingDAO.sol\":16168:16178  msg.sender */\n      caller\n        /* \"contracts/CrowdfundingDAO.sol\":16135:16179  hasVoted[campaignId][proposalId][msg.sender] */\n      0xffffffffffffffffffffffffffffffffffffffff\n      and\n      0xffffffffffffffffffffffffffffffffffffffff\n      and\n      dup2\n      mstore\n      0x20\n      add\n      swap1\n      dup2\n      mstore\n      0x20\n      add\n      0x00\n      keccak256\n      0x00\n        /* \"contracts/CrowdfundingDAO.sol\":16135:16186  hasVoted[campaignId][proposalId][msg.sender] = true */\n      0x0100\n      exp\n      dup2\n      sload\n      dup2\n      0xff\n      mul\n      not\n      and\n      swap1\n      dup4\n      iszero\n      iszero\n      mul\n      or\n      swap1\n      sstore\n      pop\n        /* \"contracts/CrowdfundingDAO.sol\":16201:16208  support */\n      dup5\n        /* \"contracts/CrowdfundingDAO.sol\":16197:16328  if (support) {... */\n      iszero\n      tag_154\n      jumpi\n        /* \"contracts/CrowdfundingDAO.sol\":16246:16252  weight */\n      dup1\n        /* \"contracts/CrowdfundingDAO.sol\":16225:16233  proposal */\n      dup3\n        /* \"contracts/CrowdfundingDAO.sol\":16225:16242  proposal.votesFor */\n      0x03\n      add\n      0x00\n        /* \"contracts/CrowdfundingDAO.sol\":16225:16252  proposal.votesFor += weight */\n      dup3\n      dup3\n      sload\n      tag_155\n      swap2\n      swap1\n      tag_101\n      jump\t// in\n    tag_155:\n      swap3\n      pop\n      pop\n      dup2\n      swap1\n      sstore\n      pop\n        /* \"contracts/CrowdfundingDAO.sol\":16197:16328  if (support) {... */\n      jump(tag_156)\n    tag_154:\n        /* \"contracts/CrowdfundingDAO.sol\":16310:16316  weight */\n      dup1\n        /* \"contracts/CrowdfundingDAO.sol\":16285:16293  proposal */\n      dup3\n        /* \"contracts/CrowdfundingDAO.sol\":16285:16306  proposal.votesAgainst */\n      0x04\n      add\n      0x00\n        /* \"contracts/CrowdfundingDAO.sol\":16285:16316  proposal.votesAgainst += weight */\n      dup3\n      dup3\n      sload\n      tag_157\n      swap2\n      swap1\n      tag_101\n      jump\t// in\n    tag_157:\n      swap3\n      pop\n      pop\n      dup2\n      swap1\n      sstore\n      pop\n        /* \"contracts/CrowdfundingDAO.sol\":16197:16328  if (support) {... */\n    tag_156:\n        /* \"contracts/CrowdfundingDAO.sol\":16375:16385  msg.sender */\n      caller\n        /* \"contracts/CrowdfundingDAO.sol\":16345:16403  Voted(campaignId, proposalId, msg.sender, support, weight) */\n      0xffffffffffffffffffffffffffffffffffffffff\n      and\n        /* \"contracts/CrowdfundingDAO.sol\":16363:16373  proposalId */\n      dup7\n        /* \"contracts/CrowdfundingDAO.sol\":16351:16361  campaignId */\n      dup9\n        /* \"contracts/CrowdfundingDAO.sol\":16345:16403  Voted(campaignId, proposalId, msg.sender, support, weight) */\n      0xcba8212abe84b02f9ea158460f9fb5f991ed6945b87767b4ffcbe6dda848cd75\n        /* \"contracts/CrowdfundingDAO.sol\":16387:16394  support */\n      dup9\n        /* \"contracts/CrowdfundingDAO.sol\":16396:16402  weight */\n      dup6\n        /* \"contracts/CrowdfundingDAO.sol\":16345:16403  Voted(campaignId, proposalId, msg.sender, support, weight) */\n      mload(0x40)\n      tag_158\n      swap3\n      swap2\n      swap1\n      tag_159\n      jump\t// in\n    tag_158:\n      mload(0x40)\n      dup1\n      swap2\n      sub\n      swap1\n      log4\n        /* \"contracts/CrowdfundingDAO.sol\":15618:16411  {... */\n      pop\n      pop\n        /* \"contracts/CrowdfundingDAO.sol\":7759:7760  _ */\n      pop\n        /* \"contracts/CrowdfundingDAO.sol\":15454:16411  function vote(uint256 campaignId, uint256 proposalId, bool support)... */\n      pop\n      pop\n      pop\n      pop\n      jump\t// out\n        /* \"contracts/CrowdfundingDAO.sol\":5506:5535  uint256 public nextCampaignId */\n    tag_66:\n      sload(0x00)\n      dup2\n      jump\t// out\n        /* \"contracts/CrowdfundingDAO.sol\":19824:20096  function availableFunds(uint256 campaignId)... */\n    tag_71:\n        /* \"contracts/CrowdfundingDAO.sol\":19954:19961  uint256 */\n      0x00\n        /* \"contracts/CrowdfundingDAO.sol\":19924:19934  campaignId */\n      dup2\n        /* \"contracts/CrowdfundingDAO.sol\":7688:7698  _campaigns */\n      0x01\n        /* \"contracts/CrowdfundingDAO.sol\":7688:7710  _campaigns[campaignId] */\n      0x00\n        /* \"contracts/CrowdfundingDAO.sol\":7699:7709  campaignId */\n      dup3\n        /* \"contracts/CrowdfundingDAO.sol\":7688:7710  _campaigns[campaignId] */\n      dup2\n      mstore\n      0x20\n      add\n      swap1\n      dup2\n      mstore\n      0x20\n      add\n      0x00\n      keccak256\n        /* \"contracts/CrowdfundingDAO.sol\":7688:7717  _campaigns[campaignId].exists */\n      0x07\n      add\n      0x00\n      swap1\n      sload\n      swap1\n      0x0100\n      exp\n      swap1\n      div\n      0xff\n      and\n        /* \"contracts/CrowdfundingDAO.sol\":7683:7748  if (!_campaigns[campaignId].exists) revert CampaignDoesNotExist() */\n      tag_161\n      jumpi\n        /* \"contracts/CrowdfundingDAO.sol\":7726:7748  CampaignDoesNotExist() */\n      mload(0x40)\n      0x9b35ed3b00000000000000000000000000000000000000000000000000000000\n      dup2\n      mstore\n      0x04\n      add\n      mload(0x40)\n      dup1\n      swap2\n      sub\n      swap1\n      revert\n        /* \"contracts/CrowdfundingDAO.sol\":7683:7748  if (!_campaigns[campaignId].exists) revert CampaignDoesNotExist() */\n    tag_161:\n        /* \"contracts/CrowdfundingDAO.sol\":19979:20004  Campaign storage campaign */\n      0x00\n        /* \"contracts/CrowdfundingDAO.sol\":20007:20017  _campaigns */\n      0x01\n        /* \"contracts/CrowdfundingDAO.sol\":20007:20029  _campaigns[campaignId] */\n      0x00\n        /* \"contracts/CrowdfundingDAO.sol\":20018:20028  campaignId */\n      dup6\n        /* \"contracts/CrowdfundingDAO.sol\":20007:20029  _campaigns[campaignId] */\n      dup2\n      mstore\n      0x20\n      add\n      swap1\n      dup2\n      mstore\n      0x20\n      add\n      0x00\n      keccak256\n        /* \"contracts/CrowdfundingDAO.sol\":19979:20029  Campaign storage campaign = _campaigns[campaignId] */\n      swap1\n      pop\n        /* \"contracts/CrowdfundingDAO.sol\":20065:20073  campaign */\n      dup1\n        /* \"contracts/CrowdfundingDAO.sol\":20065:20088  campaign.releasedAmount */\n      0x04\n      add\n      sload\n        /* \"contracts/CrowdfundingDAO.sol\":20047:20055  campaign */\n      dup2\n        /* \"contracts/CrowdfundingDAO.sol\":20047:20062  campaign.raised */\n      0x03\n      add\n      sload\n        /* \"contracts/CrowdfundingDAO.sol\":20047:20088  campaign.raised - campaign.releasedAmount */\n      tag_163\n      swap2\n      swap1\n      tag_119\n      jump\t// in\n    tag_163:\n        /* \"contracts/CrowdfundingDAO.sol\":20040:20088  return campaign.raised - campaign.releasedAmount */\n      swap3\n      pop\n      pop\n        /* \"contracts/CrowdfundingDAO.sol\":19824:20096  function availableFunds(uint256 campaignId)... */\n      pop\n      swap2\n      swap1\n      pop\n      jump\t// out\n        /* \"contracts/CrowdfundingDAO.sol\":19375:19730  function getProposal(uint256 campaignId, uint256 proposalId)... */\n    tag_76:\n        /* \"contracts/CrowdfundingDAO.sol\":19522:19537  Proposal memory */\n      tag_164\n      tag_165\n      jump\t// in\n    tag_164:\n        /* \"contracts/CrowdfundingDAO.sol\":19492:19502  campaignId */\n      dup3\n        /* \"contracts/CrowdfundingDAO.sol\":7688:7698  _campaigns */\n      0x01\n        /* \"contracts/CrowdfundingDAO.sol\":7688:7710  _campaigns[campaignId] */\n      0x00\n        /* \"contracts/CrowdfundingDAO.sol\":7699:7709  campaignId */\n      dup3\n        /* \"contracts/CrowdfundingDAO.sol\":7688:7710  _campaigns[campaignId] */\n      dup2\n      mstore\n      0x20\n      add\n      swap1\n      dup2\n      mstore\n      0x20\n      add\n      0x00\n      keccak256\n        /* \"contracts/CrowdfundingDAO.sol\":7688:7717  _campaigns[campaignId].exists */\n      0x07\n      add\n      0x00\n      swap1\n      sload\n      swap1\n      0x0100\n      exp\n      swap1\n      div\n      0xff\n      and\n        /* \"contracts/CrowdfundingDAO.sol\":7683:7748  if (!_campaigns[campaignId].exists) revert CampaignDoesNotExist() */\n      tag_167\n      jumpi\n        /* \"contracts/CrowdfundingDAO.sol\":7726:7748  CampaignDoesNotExist() */\n      mload(0x40)\n      0x9b35ed3b00000000000000000000000000000000000000000000000000000000\n      dup2\n      mstore\n      0x04\n      add\n      mload(0x40)\n      dup1\n      swap2\n      sub\n      swap1\n      revert\n        /* \"contracts/CrowdfundingDAO.sol\":7683:7748  if (!_campaigns[campaignId].exists) revert CampaignDoesNotExist() */\n    tag_167:\n        /* \"contracts/CrowdfundingDAO.sol\":19612:19613  0 */\n      0x00\n        /* \"contracts/CrowdfundingDAO.sol\":19559:19569  _proposals */\n      0x03\n        /* \"contracts/CrowdfundingDAO.sol\":19559:19581  _proposals[campaignId] */\n      0x00\n        /* \"contracts/CrowdfundingDAO.sol\":19570:19580  campaignId */\n      dup7\n        /* \"contracts/CrowdfundingDAO.sol\":19559:19581  _proposals[campaignId] */\n      dup2\n      mstore\n      0x20\n      add\n      swap1\n      dup2\n      mstore\n      0x20\n      add\n      0x00\n      keccak256\n        /* \"contracts/CrowdfundingDAO.sol\":19559:19593  _proposals[campaignId][proposalId] */\n      0x00\n        /* \"contracts/CrowdfundingDAO.sol\":19582:19592  proposalId */\n      dup6\n        /* \"contracts/CrowdfundingDAO.sol\":19559:19593  _proposals[campaignId][proposalId] */\n      dup2\n      mstore\n      0x20\n      add\n      swap1\n      dup2\n      mstore\n      0x20\n      add\n      0x00\n      keccak256\n        /* \"contracts/CrowdfundingDAO.sol\":19559:19608  _proposals[campaignId][proposalId].votingDeadline */\n      0x02\n      add\n      sload\n        /* \"contracts/CrowdfundingDAO.sol\":19559:19613  _proposals[campaignId][proposalId].votingDeadline == 0 */\n      sub\n        /* \"contracts/CrowdfundingDAO.sol\":19555:19671  if (_proposals[campaignId][proposalId].votingDeadline == 0) {... */\n      tag_169\n      jumpi\n        /* \"contracts/CrowdfundingDAO.sol\":19637:19659  ProposalDoesNotExist() */\n      mload(0x40)\n      0xd9c78e0200000000000000000000000000000000000000000000000000000000\n      dup2\n      mstore\n      0x04\n      add\n      mload(0x40)\n      dup1\n      swap2\n      sub\n      swap1\n      revert\n        /* \"contracts/CrowdfundingDAO.sol\":19555:19671  if (_proposals[campaignId][proposalId].votingDeadline == 0) {... */\n    tag_169:\n        /* \"contracts/CrowdfundingDAO.sol\":19688:19698  _proposals */\n      0x03\n        /* \"contracts/CrowdfundingDAO.sol\":19688:19710  _proposals[campaignId] */\n      0x00\n        /* \"contracts/CrowdfundingDAO.sol\":19699:19709  campaignId */\n      dup6\n        /* \"contracts/CrowdfundingDAO.sol\":19688:19710  _proposals[campaignId] */\n      dup2\n      mstore\n      0x20\n      add\n      swap1\n      dup2\n      mstore\n      0x20\n      add\n      0x00\n      keccak256\n        /* \"contracts/CrowdfundingDAO.sol\":19688:19722  _proposals[campaignId][proposalId] */\n      0x00\n        /* \"contracts/CrowdfundingDAO.sol\":19711:19721  proposalId */\n      dup5\n        /* \"contracts/CrowdfundingDAO.sol\":19688:19722  _proposals[campaignId][proposalId] */\n      dup2\n      mstore\n      0x20\n      add\n      swap1\n      dup2\n      mstore\n      0x20\n      add\n      0x00\n      keccak256\n        /* \"contracts/CrowdfundingDAO.sol\":19681:19722  return _proposals[campaignId][proposalId] */\n      mload(0x40)\n      dup1\n      0xc0\n      add\n      0x40\n      mstore\n      swap1\n      dup2\n      0x00\n      dup3\n      add\n      dup1\n      sload\n      tag_170\n      swap1\n      tag_171\n      jump\t// in\n    tag_170:\n      dup1\n      0x1f\n      add\n      0x20\n      dup1\n      swap2\n      div\n      mul\n      0x20\n      add\n      mload(0x40)\n      swap1\n      dup2\n      add\n      0x40\n      mstore\n      dup1\n      swap3\n      swap2\n      swap1\n      dup2\n      dup2\n      mstore\n      0x20\n      add\n      dup3\n      dup1\n      sload\n      tag_172\n      swap1\n      tag_171\n      jump\t// in\n    tag_172:\n      dup1\n      iszero\n      tag_173\n      jumpi\n      dup1\n      0x1f\n      lt\n      tag_174\n      jumpi\n      0x0100\n      dup1\n      dup4\n      sload\n      div\n      mul\n      dup4\n      mstore\n      swap2\n      0x20\n      add\n      swap2\n      jump(tag_173)\n    tag_174:\n      dup3\n      add\n      swap2\n      swap1\n      0x00\n      mstore\n      keccak256(0x00, 0x20)\n      swap1\n    tag_175:\n      dup2\n      sload\n      dup2\n      mstore\n      swap1\n      0x01\n      add\n      swap1\n      0x20\n      add\n      dup1\n      dup4\n      gt\n      tag_175\n      jumpi\n      dup3\n      swap1\n      sub\n      0x1f\n      and\n      dup3\n      add\n      swap2\n    tag_173:\n      pop\n      pop\n      pop\n      pop\n      pop\n      dup2\n      mstore\n      0x20\n      add\n      0x01\n      dup3\n      add\n      sload\n      dup2\n      mstore\n      0x20\n      add\n      0x02\n      dup3\n      add\n      sload\n      dup2\n      mstore\n      0x20\n      add\n      0x03\n      dup3\n      add\n      sload\n      dup2\n      mstore\n      0x20\n      add\n      0x04\n      dup3\n      add\n      sload\n      dup2\n      mstore\n      0x20\n      add\n      0x05\n      dup3\n      add\n      0x00\n      swap1\n      sload\n      swap1\n      0x0100\n      exp\n      swap1\n      div\n      0xff\n      and\n      iszero\n      iszero\n      iszero\n      iszero\n      dup2\n      mstore\n      pop\n      pop\n      swap2\n      pop\n        /* \"contracts/CrowdfundingDAO.sol\":19375:19730  function getProposal(uint256 campaignId, uint256 proposalId)... */\n      pop\n      swap3\n      swap2\n      pop\n      pop\n      jump\t// out\n        /* \"contracts/CrowdfundingDAO.sol\":10278:10966  function contribute(uint256 campaignId)... */\n    tag_81:\n        /* \"@openzeppelin/contracts/utils/ReentrancyGuard.sol\":3023:3044  _nonReentrantBefore() */\n      tag_177\n        /* \"@openzeppelin/contracts/utils/ReentrancyGuard.sol\":3023:3042  _nonReentrantBefore */\n      tag_111\n        /* \"@openzeppelin/contracts/utils/ReentrancyGuard.sol\":3023:3044  _nonReentrantBefore() */\n      jump\t// in\n    tag_177:\n        /* \"contracts/CrowdfundingDAO.sol\":10399:10409  campaignId */\n      dup1\n        /* \"contracts/CrowdfundingDAO.sol\":7688:7698  _campaigns */\n      0x01\n        /* \"contracts/CrowdfundingDAO.sol\":7688:7710  _campaigns[campaignId] */\n      0x00\n        /* \"contracts/CrowdfundingDAO.sol\":7699:7709  campaignId */\n      dup3\n        /* \"contracts/CrowdfundingDAO.sol\":7688:7710  _campaigns[campaignId] */\n      dup2\n      mstore\n      0x20\n      add\n      swap1\n      dup2\n      mstore\n      0x20\n      add\n      0x00\n      keccak256\n        /* \"contracts/CrowdfundingDAO.sol\":7688:7717  _campaigns[campaignId].exists */\n      0x07\n      add\n      0x00\n      swap1\n      sload\n      swap1\n      0x0100\n      exp\n      swap1\n      div\n      0xff\n      and\n        /* \"contracts/CrowdfundingDAO.sol\":7683:7748  if (!_campaigns[campaignId].exists) revert CampaignDoesNotExist() */\n      tag_179\n      jumpi\n        /* \"contracts/CrowdfundingDAO.sol\":7726:7748  CampaignDoesNotExist() */\n      mload(0x40)\n      0x9b35ed3b00000000000000000000000000000000000000000000000000000000\n      dup2\n      mstore\n      0x04\n      add\n      mload(0x40)\n      dup1\n      swap2\n      sub\n      swap1\n      revert\n        /* \"contracts/CrowdfundingDAO.sol\":7683:7748  if (!_campaigns[campaignId].exists) revert CampaignDoesNotExist() */\n    tag_179:\n        /* \"contracts/CrowdfundingDAO.sol\":10427:10452  Campaign storage campaign */\n      0x00\n        /* \"contracts/CrowdfundingDAO.sol\":10455:10465  _campaigns */\n      0x01\n        /* \"contracts/CrowdfundingDAO.sol\":10455:10477  _campaigns[campaignId] */\n      0x00\n        /* \"contracts/CrowdfundingDAO.sol\":10466:10476  campaignId */\n      dup5\n        /* \"contracts/CrowdfundingDAO.sol\":10455:10477  _campaigns[campaignId] */\n      dup2\n      mstore\n      0x20\n      add\n      swap1\n      dup2\n      mstore\n      0x20\n      add\n      0x00\n      keccak256\n        /* \"contracts/CrowdfundingDAO.sol\":10427:10477  Campaign storage campaign = _campaigns[campaignId] */\n      swap1\n      pop\n        /* \"contracts/CrowdfundingDAO.sol\":10540:10548  campaign */\n      dup1\n        /* \"contracts/CrowdfundingDAO.sol\":10540:10557  campaign.deadline */\n      0x02\n      add\n      sload\n        /* \"contracts/CrowdfundingDAO.sol\":10521:10536  block.timestamp */\n      timestamp\n        /* \"contracts/CrowdfundingDAO.sol\":10521:10557  block.timestamp >= campaign.deadline */\n      lt\n        /* \"contracts/CrowdfundingDAO.sol\":10517:10581  if (block.timestamp >= campaign.deadline) revert CampaignEnded() */\n      tag_181\n      jumpi\n        /* \"contracts/CrowdfundingDAO.sol\":10566:10581  CampaignEnded() */\n      mload(0x40)\n      0x553ae05400000000000000000000000000000000000000000000000000000000\n      dup2\n      mstore\n      0x04\n      add\n      mload(0x40)\n      dup1\n      swap2\n      sub\n      swap1\n      revert\n        /* \"contracts/CrowdfundingDAO.sol\":10517:10581  if (block.timestamp >= campaign.deadline) revert CampaignEnded() */\n    tag_181:\n        /* \"contracts/CrowdfundingDAO.sol\":10609:10610  0 */\n      0x00\n        /* \"contracts/CrowdfundingDAO.sol\":10596:10605  msg.value */\n      callvalue\n        /* \"contracts/CrowdfundingDAO.sol\":10596:10610  msg.value == 0 */\n      sub\n        /* \"contracts/CrowdfundingDAO.sol\":10592:10637  if (msg.value == 0) revert ZeroContribution() */\n      tag_182\n      jumpi\n        /* \"contracts/CrowdfundingDAO.sol\":10619:10637  ZeroContribution() */\n      mload(0x40)\n      0xab82a24800000000000000000000000000000000000000000000000000000000\n      dup2\n      mstore\n      0x04\n      add\n      mload(0x40)\n      dup1\n      swap2\n      sub\n      swap1\n      revert\n        /* \"contracts/CrowdfundingDAO.sol\":10592:10637  if (msg.value == 0) revert ZeroContribution() */\n    tag_182:\n        /* \"contracts/CrowdfundingDAO.sol\":10723:10724  0 */\n      0x00\n        /* \"contracts/CrowdfundingDAO.sol\":10682:10695  contributions */\n      0x02\n        /* \"contracts/CrowdfundingDAO.sol\":10682:10707  contributions[campaignId] */\n      0x00\n        /* \"contracts/CrowdfundingDAO.sol\":10696:10706  campaignId */\n      dup6\n        /* \"contracts/CrowdfundingDAO.sol\":10682:10707  contributions[campaignId] */\n      dup2\n      mstore\n      0x20\n      add\n      swap1\n      dup2\n      mstore\n      0x20\n      add\n      0x00\n      keccak256\n        /* \"contracts/CrowdfundingDAO.sol\":10682:10719  contributions[campaignId][msg.sender] */\n      0x00\n        /* \"contracts/CrowdfundingDAO.sol\":10708:10718  msg.sender */\n      caller\n        /* \"contracts/CrowdfundingDAO.sol\":10682:10719  contributions[campaignId][msg.sender] */\n      0xffffffffffffffffffffffffffffffffffffffff\n      and\n      0xffffffffffffffffffffffffffffffffffffffff\n      and\n      dup2\n      mstore\n      0x20\n      add\n      swap1\n      dup2\n      mstore\n      0x20\n      add\n      0x00\n      keccak256\n      sload\n        /* \"contracts/CrowdfundingDAO.sol\":10682:10724  contributions[campaignId][msg.sender] == 0 */\n      sub\n        /* \"contracts/CrowdfundingDAO.sol\":10678:10783  if (contributions[campaignId][msg.sender] == 0) {... */\n      tag_183\n      jumpi\n        /* \"contracts/CrowdfundingDAO.sol\":10770:10771  1 */\n      0x01\n        /* \"contracts/CrowdfundingDAO.sol\":10741:10749  campaign */\n      dup2\n        /* \"contracts/CrowdfundingDAO.sol\":10741:10766  campaign.contributorCount */\n      0x05\n      add\n      0x00\n        /* \"contracts/CrowdfundingDAO.sol\":10741:10771  campaign.contributorCount += 1 */\n      dup3\n      dup3\n      sload\n      tag_184\n      swap2\n      swap1\n      tag_101\n      jump\t// in\n    tag_184:\n      swap3\n      pop\n      pop\n      dup2\n      swap1\n      sstore\n      pop\n        /* \"contracts/CrowdfundingDAO.sol\":10678:10783  if (contributions[campaignId][msg.sender] == 0) {... */\n    tag_183:\n        /* \"contracts/CrowdfundingDAO.sol\":10834:10843  msg.value */\n      callvalue\n        /* \"contracts/CrowdfundingDAO.sol\":10793:10806  contributions */\n      0x02\n        /* \"contracts/CrowdfundingDAO.sol\":10793:10818  contributions[campaignId] */\n      0x00\n        /* \"contracts/CrowdfundingDAO.sol\":10807:10817  campaignId */\n      dup6\n        /* \"contracts/CrowdfundingDAO.sol\":10793:10818  contributions[campaignId] */\n      dup2\n      mstore\n      0x20\n      add\n      swap1\n      dup2\n      mstore\n      0x20\n      add\n      0x00\n      keccak256\n        /* \"contracts/CrowdfundingDAO.sol\":10793:10830  contributions[campaignId][msg.sender] */\n      0x00\n        /* \"contracts/CrowdfundingDAO.sol\":10819:10829  msg.sender */\n      caller\n        /* \"contracts/CrowdfundingDAO.sol\":10793:10830  contributions[campaignId][msg.sender] */\n      0xffffffffffffffffffffffffffffffffffffffff\n      and\n      0xffffffffffffffffffffffffffffffffffffffff\n      and\n      dup2\n      mstore\n      0x20\n      add\n      swap1\n      dup2\n      mstore\n      0x20\n      add\n      0x00\n      keccak256\n      0x00\n        /* \"contracts/CrowdfundingDAO.sol\":10793:10843  contributions[campaignId][msg.sender] += msg.value */\n      dup3\n      dup3\n      sload\n      tag_185\n      swap2\n      swap1\n      tag_101\n      jump\t// in\n    tag_185:\n      swap3\n      pop\n      pop\n      dup2\n      swap1\n      sstore\n      pop\n        /* \"contracts/CrowdfundingDAO.sol\":10873:10882  msg.value */\n      callvalue\n        /* \"contracts/CrowdfundingDAO.sol\":10854:10862  campaign */\n      dup2\n        /* \"contracts/CrowdfundingDAO.sol\":10854:10869  campaign.raised */\n      0x03\n      add\n      0x00\n        /* \"contracts/CrowdfundingDAO.sol\":10854:10882  campaign.raised += msg.value */\n      dup3\n      dup3\n      sload\n      tag_186\n      swap2\n      swap1\n      tag_101\n      jump\t// in\n    tag_186:\n      swap3\n      pop\n      pop\n      dup2\n      swap1\n      sstore\n      pop\n        /* \"contracts/CrowdfundingDAO.sol\":10919:10929  msg.sender */\n      caller\n        /* \"contracts/CrowdfundingDAO.sol\":10900:10958  Funded(campaignId, msg.sender, msg.value, campaign.raised) */\n      0xffffffffffffffffffffffffffffffffffffffff\n      and\n        /* \"contracts/CrowdfundingDAO.sol\":10907:10917  campaignId */\n      dup4\n        /* \"contracts/CrowdfundingDAO.sol\":10900:10958  Funded(campaignId, msg.sender, msg.value, campaign.raised) */\n      0x9a98994924b3f454e430a7e3c884aa145467ff2913f30a4b4c428a25797c7975\n        /* \"contracts/CrowdfundingDAO.sol\":10931:10940  msg.value */\n      callvalue\n        /* \"contracts/CrowdfundingDAO.sol\":10942:10950  campaign */\n      dup5\n        /* \"contracts/CrowdfundingDAO.sol\":10942:10957  campaign.raised */\n      0x03\n      add\n      sload\n        /* \"contracts/CrowdfundingDAO.sol\":10900:10958  Funded(campaignId, msg.sender, msg.value, campaign.raised) */\n      mload(0x40)\n      tag_187\n      swap3\n      swap2\n      swap1\n      tag_103\n      jump\t// in\n    tag_187:\n      mload(0x40)\n      dup1\n      swap2\n      sub\n      swap1\n      log3\n        /* \"contracts/CrowdfundingDAO.sol\":10416:10966  {... */\n      pop\n        /* \"@openzeppelin/contracts/utils/ReentrancyGuard.sol\":3054:3055  _ */\n      pop\n        /* \"@openzeppelin/contracts/utils/ReentrancyGuard.sol\":3065:3085  _nonReentrantAfter() */\n      tag_188\n        /* \"@openzeppelin/contracts/utils/ReentrancyGuard.sol\":3065:3083  _nonReentrantAfter */\n      tag_128\n        /* \"@openzeppelin/contracts/utils/ReentrancyGuard.sol\":3065:3085  _nonReentrantAfter() */\n      jump\t// in\n    tag_188:\n        /* \"contracts/CrowdfundingDAO.sol\":10278:10966  function contribute(uint256 campaignId)... */\n      pop\n      jump\t// out\n        /* \"contracts/CrowdfundingDAO.sol\":20198:20382  function votingPowerOf(uint256 campaignId, address account)... */\n    tag_85:\n        /* \"contracts/CrowdfundingDAO.sol\":20308:20315  uint256 */\n      0x00\n        /* \"contracts/CrowdfundingDAO.sol\":20340:20353  contributions */\n      0x02\n        /* \"contracts/CrowdfundingDAO.sol\":20340:20365  contributions[campaignId] */\n      0x00\n        /* \"contracts/CrowdfundingDAO.sol\":20354:20364  campaignId */\n      dup5\n        /* \"contracts/CrowdfundingDAO.sol\":20340:20365  contributions[campaignId] */\n      dup2\n      mstore\n      0x20\n      add\n      swap1\n      dup2\n      mstore\n      0x20\n      add\n      0x00\n      keccak256\n        /* \"contracts/CrowdfundingDAO.sol\":20340:20374  contributions[campaignId][account] */\n      0x00\n        /* \"contracts/CrowdfundingDAO.sol\":20366:20373  account */\n      dup4\n        /* \"contracts/CrowdfundingDAO.sol\":20340:20374  contributions[campaignId][account] */\n      0xffffffffffffffffffffffffffffffffffffffff\n      and\n      0xffffffffffffffffffffffffffffffffffffffff\n      and\n      dup2\n      mstore\n      0x20\n      add\n      swap1\n      dup2\n      mstore\n      0x20\n      add\n      0x00\n      keccak256\n      sload\n        /* \"contracts/CrowdfundingDAO.sol\":20333:20374  return contributions[campaignId][account] */\n      swap1\n      pop\n        /* \"contracts/CrowdfundingDAO.sol\":20198:20382  function votingPowerOf(uint256 campaignId, address account)... */\n      swap3\n      swap2\n      pop\n      pop\n      jump\t// out\n        /* \"contracts/CrowdfundingDAO.sol\":5312:5365  uint256 public constant APPROVAL_THRESHOLD_BPS = 5000 */\n    tag_89:\n        /* \"contracts/CrowdfundingDAO.sol\":5361:5365  5000 */\n      0x1388\n        /* \"contracts/CrowdfundingDAO.sol\":5312:5365  uint256 public constant APPROVAL_THRESHOLD_BPS = 5000 */\n      dup2\n      jump\t// out\n        /* \"contracts/CrowdfundingDAO.sol\":17194:18797  function releaseFunds(uint256 campaignId, uint256 proposalId)... */\n    tag_94:\n        /* \"@openzeppelin/contracts/utils/ReentrancyGuard.sol\":3023:3044  _nonReentrantBefore() */\n      tag_191\n        /* \"@openzeppelin/contracts/utils/ReentrancyGuard.sol\":3023:3042  _nonReentrantBefore */\n      tag_111\n        /* \"@openzeppelin/contracts/utils/ReentrancyGuard.sol\":3023:3044  _nonReentrantBefore() */\n      jump\t// in\n    tag_191:\n        /* \"contracts/CrowdfundingDAO.sol\":17320:17330  campaignId */\n      dup2\n        /* \"contracts/CrowdfundingDAO.sol\":7688:7698  _campaigns */\n      0x01\n        /* \"contracts/CrowdfundingDAO.sol\":7688:7710  _campaigns[campaignId] */\n      0x00\n        /* \"contracts/CrowdfundingDAO.sol\":7699:7709  campaignId */\n      dup3\n        /* \"contracts/CrowdfundingDAO.sol\":7688:7710  _campaigns[campaignId] */\n      dup2\n      mstore\n      0x20\n      add\n      swap1\n      dup2\n      mstore\n      0x20\n      add\n      0x00\n      keccak256\n        /* \"contracts/CrowdfundingDAO.sol\":7688:7717  _campaigns[campaignId].exists */\n      0x07\n      add\n      0x00\n      swap1\n      sload\n      swap1\n      0x0100\n      exp\n      swap1\n      div\n      0xff\n      and\n        /* \"contracts/CrowdfundingDAO.sol\":7683:7748  if (!_campaigns[campaignId].exists) revert CampaignDoesNotExist() */\n      tag_193\n      jumpi\n        /* \"contracts/CrowdfundingDAO.sol\":7726:7748  CampaignDoesNotExist() */\n      mload(0x40)\n      0x9b35ed3b00000000000000000000000000000000000000000000000000000000\n      dup2\n      mstore\n      0x04\n      add\n      mload(0x40)\n      dup1\n      swap2\n      sub\n      swap1\n      revert\n        /* \"contracts/CrowdfundingDAO.sol\":7683:7748  if (!_campaigns[campaignId].exists) revert CampaignDoesNotExist() */\n    tag_193:\n        /* \"contracts/CrowdfundingDAO.sol\":17348:17373  Campaign storage campaign */\n      0x00\n        /* \"contracts/CrowdfundingDAO.sol\":17376:17386  _campaigns */\n      0x01\n        /* \"contracts/CrowdfundingDAO.sol\":17376:17398  _campaigns[campaignId] */\n      0x00\n        /* \"contracts/CrowdfundingDAO.sol\":17387:17397  campaignId */\n      dup6\n        /* \"contracts/CrowdfundingDAO.sol\":17376:17398  _campaigns[campaignId] */\n      dup2\n      mstore\n      0x20\n      add\n      swap1\n      dup2\n      mstore\n      0x20\n      add\n      0x00\n      keccak256\n        /* \"contracts/CrowdfundingDAO.sol\":17348:17398  Campaign storage campaign = _campaigns[campaignId] */\n      swap1\n      pop\n        /* \"contracts/CrowdfundingDAO.sol\":17409:17434  Proposal storage proposal */\n      0x00\n        /* \"contracts/CrowdfundingDAO.sol\":17437:17447  _proposals */\n      0x03\n        /* \"contracts/CrowdfundingDAO.sol\":17437:17459  _proposals[campaignId] */\n      0x00\n        /* \"contracts/CrowdfundingDAO.sol\":17448:17458  campaignId */\n      dup7\n        /* \"contracts/CrowdfundingDAO.sol\":17437:17459  _proposals[campaignId] */\n      dup2\n      mstore\n      0x20\n      add\n      swap1\n      dup2\n      mstore\n      0x20\n      add\n      0x00\n      keccak256\n        /* \"contracts/CrowdfundingDAO.sol\":17437:17471  _proposals[campaignId][proposalId] */\n      0x00\n        /* \"contracts/CrowdfundingDAO.sol\":17460:17470  proposalId */\n      dup6\n        /* \"contracts/CrowdfundingDAO.sol\":17437:17471  _proposals[campaignId][proposalId] */\n      dup2\n      mstore\n      0x20\n      add\n      swap1\n      dup2\n      mstore\n      0x20\n      add\n      0x00\n      keccak256\n        /* \"contracts/CrowdfundingDAO.sol\":17409:17471  Proposal storage proposal = _proposals[campaignId][proposalId] */\n      swap1\n      pop\n        /* \"contracts/CrowdfundingDAO.sol\":17542:17543  0 */\n      0x00\n        /* \"contracts/CrowdfundingDAO.sol\":17515:17523  proposal */\n      dup2\n        /* \"contracts/CrowdfundingDAO.sol\":17515:17538  proposal.votingDeadline */\n      0x02\n      add\n      sload\n        /* \"contracts/CrowdfundingDAO.sol\":17515:17543  proposal.votingDeadline == 0 */\n      sub\n        /* \"contracts/CrowdfundingDAO.sol\":17511:17574  if (proposal.votingDeadline == 0) revert ProposalDoesNotExist() */\n      tag_195\n      jumpi\n        /* \"contracts/CrowdfundingDAO.sol\":17552:17574  ProposalDoesNotExist() */\n      mload(0x40)\n      0xd9c78e0200000000000000000000000000000000000000000000000000000000\n      dup2\n      mstore\n      0x04\n      add\n      mload(0x40)\n      dup1\n      swap2\n      sub\n      swap1\n      revert\n        /* \"contracts/CrowdfundingDAO.sol\":17511:17574  if (proposal.votingDeadline == 0) revert ProposalDoesNotExist() */\n    tag_195:\n        /* \"contracts/CrowdfundingDAO.sol\":17589:17597  proposal */\n      dup1\n        /* \"contracts/CrowdfundingDAO.sol\":17589:17606  proposal.executed */\n      0x05\n      add\n      0x00\n      swap1\n      sload\n      swap1\n      0x0100\n      exp\n      swap1\n      div\n      0xff\n      and\n        /* \"contracts/CrowdfundingDAO.sol\":17585:17640  if (proposal.executed) revert ProposalAlreadyExecuted() */\n      iszero\n      tag_196\n      jumpi\n        /* \"contracts/CrowdfundingDAO.sol\":17615:17640  ProposalAlreadyExecuted() */\n      mload(0x40)\n      0x51618d5300000000000000000000000000000000000000000000000000000000\n      dup2\n      mstore\n      0x04\n      add\n      mload(0x40)\n      dup1\n      swap2\n      sub\n      swap1\n      revert\n        /* \"contracts/CrowdfundingDAO.sol\":17585:17640  if (proposal.executed) revert ProposalAlreadyExecuted() */\n    tag_196:\n        /* \"contracts/CrowdfundingDAO.sol\":17673:17681  proposal */\n      dup1\n        /* \"contracts/CrowdfundingDAO.sol\":17673:17696  proposal.votingDeadline */\n      0x02\n      add\n      sload\n        /* \"contracts/CrowdfundingDAO.sol\":17655:17670  block.timestamp */\n      timestamp\n        /* \"contracts/CrowdfundingDAO.sol\":17655:17696  block.timestamp < proposal.votingDeadline */\n      lt\n        /* \"contracts/CrowdfundingDAO.sol\":17651:17727  if (block.timestamp < proposal.votingDeadline) revert VotingPeriodNotEnded() */\n      iszero\n      tag_197\n      jumpi\n        /* \"contracts/CrowdfundingDAO.sol\":17705:17727  VotingPeriodNotEnded() */\n      mload(0x40)\n      0x335f0a6400000000000000000000000000000000000000000000000000000000\n      dup2\n      mstore\n      0x04\n      add\n      mload(0x40)\n      dup1\n      swap2\n      sub\n      swap1\n      revert\n        /* \"contracts/CrowdfundingDAO.sol\":17651:17727  if (block.timestamp < proposal.votingDeadline) revert VotingPeriodNotEnded() */\n    tag_197:\n        /* \"contracts/CrowdfundingDAO.sol\":17919:17935  bool majorityFor */\n      0x00\n        /* \"contracts/CrowdfundingDAO.sol\":17958:17966  proposal */\n      dup2\n        /* \"contracts/CrowdfundingDAO.sol\":17958:17979  proposal.votesAgainst */\n      0x04\n      add\n      sload\n        /* \"contracts/CrowdfundingDAO.sol\":17938:17946  proposal */\n      dup3\n        /* \"contracts/CrowdfundingDAO.sol\":17938:17955  proposal.votesFor */\n      0x03\n      add\n      sload\n        /* \"contracts/CrowdfundingDAO.sol\":17938:17979  proposal.votesFor > proposal.votesAgainst */\n      gt\n        /* \"contracts/CrowdfundingDAO.sol\":17919:17979  bool majorityFor = proposal.votesFor > proposal.votesAgainst */\n      swap1\n      pop\n        /* \"contracts/CrowdfundingDAO.sol\":17990:18007  bool thresholdMet */\n      0x00\n        /* \"contracts/CrowdfundingDAO.sol\":5361:5365  5000 */\n      0x1388\n        /* \"contracts/CrowdfundingDAO.sol\":18074:18082  campaign */\n      dup5\n        /* \"contracts/CrowdfundingDAO.sol\":18074:18089  campaign.raised */\n      0x03\n      add\n      sload\n        /* \"contracts/CrowdfundingDAO.sol\":18074:18114  campaign.raised * APPROVAL_THRESHOLD_BPS */\n      tag_198\n      swap2\n      swap1\n      tag_199\n      jump\t// in\n    tag_198:\n        /* \"contracts/CrowdfundingDAO.sol\":5415:5420  10000 */\n      0x2710\n        /* \"contracts/CrowdfundingDAO.sol\":18023:18031  proposal */\n      dup5\n        /* \"contracts/CrowdfundingDAO.sol\":18023:18040  proposal.votesFor */\n      0x03\n      add\n      sload\n        /* \"contracts/CrowdfundingDAO.sol\":18023:18058  proposal.votesFor * BPS_DENOMINATOR */\n      tag_200\n      swap2\n      swap1\n      tag_199\n      jump\t// in\n    tag_200:\n        /* \"contracts/CrowdfundingDAO.sol\":18023:18114  proposal.votesFor * BPS_DENOMINATOR >... */\n      gt\n        /* \"contracts/CrowdfundingDAO.sol\":17990:18114  bool thresholdMet =... */\n      swap1\n      pop\n        /* \"contracts/CrowdfundingDAO.sol\":18130:18141  majorityFor */\n      dup2\n        /* \"contracts/CrowdfundingDAO.sol\":18129:18141  !majorityFor */\n      iszero\n        /* \"contracts/CrowdfundingDAO.sol\":18129:18158  !majorityFor || !thresholdMet */\n      dup1\n      tag_201\n      jumpi\n      pop\n        /* \"contracts/CrowdfundingDAO.sol\":18146:18158  thresholdMet */\n      dup1\n        /* \"contracts/CrowdfundingDAO.sol\":18145:18158  !thresholdMet */\n      iszero\n        /* \"contracts/CrowdfundingDAO.sol\":18129:18158  !majorityFor || !thresholdMet */\n    tag_201:\n        /* \"contracts/CrowdfundingDAO.sol\":18125:18188  if (!majorityFor || !thresholdMet) revert ProposalNotApproved() */\n      iszero\n      tag_202\n      jumpi\n        /* \"contracts/CrowdfundingDAO.sol\":18167:18188  ProposalNotApproved() */\n      mload(0x40)\n      0xcc6633c500000000000000000000000000000000000000000000000000000000\n      dup2\n      mstore\n      0x04\n      add\n      mload(0x40)\n      dup1\n      swap2\n      sub\n      swap1\n      revert\n        /* \"contracts/CrowdfundingDAO.sol\":18125:18188  if (!majorityFor || !thresholdMet) revert ProposalNotApproved() */\n    tag_202:\n        /* \"contracts/CrowdfundingDAO.sol\":18279:18296  uint256 available */\n      0x00\n        /* \"contracts/CrowdfundingDAO.sol\":18317:18325  campaign */\n      dup5\n        /* \"contracts/CrowdfundingDAO.sol\":18317:18340  campaign.releasedAmount */\n      0x04\n      add\n      sload\n        /* \"contracts/CrowdfundingDAO.sol\":18299:18307  campaign */\n      dup6\n        /* \"contracts/CrowdfundingDAO.sol\":18299:18314  campaign.raised */\n      0x03\n      add\n      sload\n        /* \"contracts/CrowdfundingDAO.sol\":18299:18340  campaign.raised - campaign.releasedAmount */\n      tag_203\n      swap2\n      swap1\n      tag_119\n      jump\t// in\n    tag_203:\n        /* \"contracts/CrowdfundingDAO.sol\":18279:18340  uint256 available = campaign.raised - campaign.releasedAmount */\n      swap1\n      pop\n        /* \"contracts/CrowdfundingDAO.sol\":18373:18382  available */\n      dup1\n        /* \"contracts/CrowdfundingDAO.sol\":18355:18363  proposal */\n      dup5\n        /* \"contracts/CrowdfundingDAO.sol\":18355:18370  proposal.amount */\n      0x01\n      add\n      sload\n        /* \"contracts/CrowdfundingDAO.sol\":18355:18382  proposal.amount > available */\n      gt\n        /* \"contracts/CrowdfundingDAO.sol\":18351:18420  if (proposal.amount > available) revert AmountExceedsAvailableFunds() */\n      iszero\n      tag_204\n      jumpi\n        /* \"contracts/CrowdfundingDAO.sol\":18391:18420  AmountExceedsAvailableFunds() */\n      mload(0x40)\n      0x62d5bfec00000000000000000000000000000000000000000000000000000000\n      dup2\n      mstore\n      0x04\n      add\n      mload(0x40)\n      dup1\n      swap2\n      sub\n      swap1\n      revert\n        /* \"contracts/CrowdfundingDAO.sol\":18351:18420  if (proposal.amount > available) revert AmountExceedsAvailableFunds() */\n    tag_204:\n        /* \"contracts/CrowdfundingDAO.sol\":18481:18485  true */\n      0x01\n        /* \"contracts/CrowdfundingDAO.sol\":18461:18469  proposal */\n      dup5\n        /* \"contracts/CrowdfundingDAO.sol\":18461:18478  proposal.executed */\n      0x05\n      add\n      0x00\n        /* \"contracts/CrowdfundingDAO.sol\":18461:18485  proposal.executed = true */\n      0x0100\n      exp\n      dup2\n      sload\n      dup2\n      0xff\n      mul\n      not\n      and\n      swap1\n      dup4\n      iszero\n      iszero\n      mul\n      or\n      swap1\n      sstore\n      pop\n        /* \"contracts/CrowdfundingDAO.sol\":18523:18531  proposal */\n      dup4\n        /* \"contracts/CrowdfundingDAO.sol\":18523:18538  proposal.amount */\n      0x01\n      add\n      sload\n        /* \"contracts/CrowdfundingDAO.sol\":18496:18504  campaign */\n      dup6\n        /* \"contracts/CrowdfundingDAO.sol\":18496:18519  campaign.releasedAmount */\n      0x04\n      add\n      0x00\n        /* \"contracts/CrowdfundingDAO.sol\":18496:18538  campaign.releasedAmount += proposal.amount */\n      dup3\n      dup3\n      sload\n      tag_205\n      swap2\n      swap1\n      tag_101\n      jump\t// in\n    tag_205:\n      swap3\n      pop\n      pop\n      dup2\n      swap1\n      sstore\n      pop\n        /* \"contracts/CrowdfundingDAO.sol\":18585:18592  bool ok */\n      0x00\n        /* \"contracts/CrowdfundingDAO.sol\":18606:18614  campaign */\n      dup6\n        /* \"contracts/CrowdfundingDAO.sol\":18606:18622  campaign.creator */\n      0x00\n      add\n      0x00\n      swap1\n      sload\n      swap1\n      0x0100\n      exp\n      swap1\n      div\n      0xffffffffffffffffffffffffffffffffffffffff\n      and\n        /* \"contracts/CrowdfundingDAO.sol\":18598:18628  payable(campaign.creator).call */\n      0xffffffffffffffffffffffffffffffffffffffff\n      and\n        /* \"contracts/CrowdfundingDAO.sol\":18636:18644  proposal */\n      dup6\n        /* \"contracts/CrowdfundingDAO.sol\":18636:18651  proposal.amount */\n      0x01\n      add\n      sload\n        /* \"contracts/CrowdfundingDAO.sol\":18598:18656  payable(campaign.creator).call{value: proposal.amount}(\"\") */\n      mload(0x40)\n      tag_206\n      swap1\n      tag_121\n      jump\t// in\n    tag_206:\n      0x00\n      mload(0x40)\n      dup1\n      dup4\n      sub\n      dup2\n      dup6\n      dup8\n      gas\n      call\n      swap3\n      pop\n      pop\n      pop\n      returndatasize\n      dup1\n      0x00\n      dup2\n      eq\n      tag_209\n      jumpi\n      mload(0x40)\n      swap2\n      pop\n      and(add(returndatasize, 0x3f), not(0x1f))\n      dup3\n      add\n      0x40\n      mstore\n      returndatasize\n      dup3\n      mstore\n      returndatasize\n      0x00\n      0x20\n      dup5\n      add\n      returndatacopy\n      jump(tag_208)\n    tag_209:\n      0x60\n      swap2\n      pop\n    tag_208:\n      pop\n        /* \"contracts/CrowdfundingDAO.sol\":18584:18656  (bool ok, ) = payable(campaign.creator).call{value: proposal.amount}(\"\") */\n      pop\n      swap1\n      pop\n        /* \"contracts/CrowdfundingDAO.sol\":18672:18674  ok */\n      dup1\n        /* \"contracts/CrowdfundingDAO.sol\":18667:18699  if (!ok) revert TransferFailed() */\n      tag_210\n      jumpi\n        /* \"contracts/CrowdfundingDAO.sol\":18683:18699  TransferFailed() */\n      mload(0x40)\n      0x90b8ec1800000000000000000000000000000000000000000000000000000000\n      dup2\n      mstore\n      0x04\n      add\n      mload(0x40)\n      dup1\n      swap2\n      sub\n      swap1\n      revert\n        /* \"contracts/CrowdfundingDAO.sol\":18667:18699  if (!ok) revert TransferFailed() */\n    tag_210:\n        /* \"contracts/CrowdfundingDAO.sol\":18755:18763  campaign */\n      dup6\n        /* \"contracts/CrowdfundingDAO.sol\":18755:18771  campaign.creator */\n      0x00\n      add\n      0x00\n      swap1\n      sload\n      swap1\n      0x0100\n      exp\n      swap1\n      div\n      0xffffffffffffffffffffffffffffffffffffffff\n      and\n        /* \"contracts/CrowdfundingDAO.sol\":18717:18789  FundsReleased(campaignId, proposalId, campaign.creator, proposal.amount) */\n      0xffffffffffffffffffffffffffffffffffffffff\n      and\n        /* \"contracts/CrowdfundingDAO.sol\":18743:18753  proposalId */\n      dup9\n        /* \"contracts/CrowdfundingDAO.sol\":18731:18741  campaignId */\n      dup11\n        /* \"contracts/CrowdfundingDAO.sol\":18717:18789  FundsReleased(campaignId, proposalId, campaign.creator, proposal.amount) */\n      0xd5eb304362ffe48045a3ae2ed7e0d2cfed08eb62f44dc87c694d42606e8205d9\n        /* \"contracts/CrowdfundingDAO.sol\":18773:18781  proposal */\n      dup9\n        /* \"contracts/CrowdfundingDAO.sol\":18773:18788  proposal.amount */\n      0x01\n      add\n      sload\n        /* \"contracts/CrowdfundingDAO.sol\":18717:18789  FundsReleased(campaignId, proposalId, campaign.creator, proposal.amount) */\n      mload(0x40)\n      tag_211\n      swap2\n      swap1\n      tag_35\n      jump\t// in\n    tag_211:\n      mload(0x40)\n      dup1\n      swap2\n      sub\n      swap1\n      log4\n        /* \"contracts/CrowdfundingDAO.sol\":17337:18797  {... */\n      pop\n      pop\n      pop\n      pop\n      pop\n      pop\n        /* \"@openzeppelin/contracts/utils/ReentrancyGuard.sol\":3054:3055  _ */\n      pop\n        /* \"@openzeppelin/contracts/utils/ReentrancyGuard.sol\":3065:3085  _nonReentrantAfter() */\n      tag_212\n        /* \"@openzeppelin/contracts/utils/ReentrancyGuard.sol\":3065:3083  _nonReentrantAfter */\n      tag_128\n        /* \"@openzeppelin/contracts/utils/ReentrancyGuard.sol\":3065:3085  _nonReentrantAfter() */\n      jump\t// in\n    tag_212:\n        /* \"contracts/CrowdfundingDAO.sol\":17194:18797  function releaseFunds(uint256 campaignId, uint256 proposalId)... */\n      pop\n      pop\n      jump\t// out\n        /* \"@openzeppelin/contracts/utils/ReentrancyGuard.sol\":3749:4041  function _nonReentrantBefore() private {... */\n    tag_111:\n        /* \"@openzeppelin/contracts/utils/ReentrancyGuard.sol\":3872:3897  _nonReentrantBeforeView() */\n      tag_214\n        /* \"@openzeppelin/contracts/utils/ReentrancyGuard.sol\":3872:3895  _nonReentrantBeforeView */\n      tag_215\n        /* \"@openzeppelin/contracts/utils/ReentrancyGuard.sol\":3872:3897  _nonReentrantBeforeView() */\n      jump\t// in\n    tag_214:\n        /* \"@openzeppelin/contracts/utils/ReentrancyGuard.sol\":2407:2408  2 */\n      0x02\n        /* \"@openzeppelin/contracts/utils/ReentrancyGuard.sol\":3972:4018  _reentrancyGuardStorageSlot().getUint256Slot() */\n      tag_216\n        /* \"@openzeppelin/contracts/utils/ReentrancyGuard.sol\":3972:4001  _reentrancyGuardStorageSlot() */\n      tag_217\n        /* \"@openzeppelin/contracts/utils/ReentrancyGuard.sol\":3972:3999  _reentrancyGuardStorageSlot */\n      tag_218\n        /* \"@openzeppelin/contracts/utils/ReentrancyGuard.sol\":3972:4001  _reentrancyGuardStorageSlot() */\n      jump\t// in\n    tag_217:\n        /* \"@openzeppelin/contracts/utils/ReentrancyGuard.sol\":3972:4016  _reentrancyGuardStorageSlot().getUint256Slot */\n      tag_219\n        /* \"@openzeppelin/contracts/utils/ReentrancyGuard.sol\":3972:4018  _reentrancyGuardStorageSlot().getUint256Slot() */\n      jump\t// in\n    tag_216:\n        /* \"@openzeppelin/contracts/utils/ReentrancyGuard.sol\":3972:4024  _reentrancyGuardStorageSlot().getUint256Slot().value */\n      0x00\n      add\n        /* \"@openzeppelin/contracts/utils/ReentrancyGuard.sol\":3972:4034  _reentrancyGuardStorageSlot().getUint256Slot().value = ENTERED */\n      dup2\n      swap1\n      sstore\n      pop\n        /* \"@openzeppelin/contracts/utils/ReentrancyGuard.sol\":3749:4041  function _nonReentrantBefore() private {... */\n      jump\t// out\n        /* \"@openzeppelin/contracts/utils/ReentrancyGuard.sol\":4047:4300  function _nonReentrantAfter() private {... */\n    tag_128:\n        /* \"@openzeppelin/contracts/utils/ReentrancyGuard.sol\":2365:2366  1 */\n      0x01\n        /* \"@openzeppelin/contracts/utils/ReentrancyGuard.sol\":4227:4273  _reentrancyGuardStorageSlot().getUint256Slot() */\n      tag_221\n        /* \"@openzeppelin/contracts/utils/ReentrancyGuard.sol\":4227:4256  _reentrancyGuardStorageSlot() */\n      tag_222\n        /* \"@openzeppelin/contracts/utils/ReentrancyGuard.sol\":4227:4254  _reentrancyGuardStorageSlot */\n      tag_218\n        /* \"@openzeppelin/contracts/utils/ReentrancyGuard.sol\":4227:4256  _reentrancyGuardStorageSlot() */\n      jump\t// in\n    tag_222:\n        /* \"@openzeppelin/contracts/utils/ReentrancyGuard.sol\":4227:4271  _reentrancyGuardStorageSlot().getUint256Slot */\n      tag_219\n        /* \"@openzeppelin/contracts/utils/ReentrancyGuard.sol\":4227:4273  _reentrancyGuardStorageSlot().getUint256Slot() */\n      jump\t// in\n    tag_221:\n        /* \"@openzeppelin/contracts/utils/ReentrancyGuard.sol\":4227:4279  _reentrancyGuardStorageSlot().getUint256Slot().value */\n      0x00\n      add\n        /* \"@openzeppelin/contracts/utils/ReentrancyGuard.sol\":4227:4293  _reentrancyGuardStorageSlot().getUint256Slot().value = NOT_ENTERED */\n      dup2\n      swap1\n      sstore\n      pop\n        /* \"@openzeppelin/contracts/utils/ReentrancyGuard.sol\":4047:4300  function _nonReentrantAfter() private {... */\n      jump\t// out\n        /* \"@openzeppelin/contracts/utils/ReentrancyGuard.sol\":3586:3743  function _nonReentrantBeforeView() private view {... */\n    tag_215:\n        /* \"@openzeppelin/contracts/utils/ReentrancyGuard.sol\":3648:3673  _reentrancyGuardEntered() */\n      tag_224\n        /* \"@openzeppelin/contracts/utils/ReentrancyGuard.sol\":3648:3671  _reentrancyGuardEntered */\n      tag_225\n        /* \"@openzeppelin/contracts/utils/ReentrancyGuard.sol\":3648:3673  _reentrancyGuardEntered() */\n      jump\t// in\n    tag_224:\n        /* \"@openzeppelin/contracts/utils/ReentrancyGuard.sol\":3644:3737  if (_reentrancyGuardEntered()) {... */\n      iszero\n      tag_226\n      jumpi\n        /* \"@openzeppelin/contracts/utils/ReentrancyGuard.sol\":3696:3726  ReentrancyGuardReentrantCall() */\n      mload(0x40)\n      0x3ee5aeb500000000000000000000000000000000000000000000000000000000\n      dup2\n      mstore\n      0x04\n      add\n      mload(0x40)\n      dup1\n      swap2\n      sub\n      swap1\n      revert\n        /* \"@openzeppelin/contracts/utils/ReentrancyGuard.sol\":3644:3737  if (_reentrancyGuardEntered()) {... */\n    tag_226:\n        /* \"@openzeppelin/contracts/utils/ReentrancyGuard.sol\":3586:3743  function _nonReentrantBeforeView() private view {... */\n      jump\t// out\n        /* \"@openzeppelin/contracts/utils/ReentrancyGuard.sol\":4636:4763  function _reentrancyGuardStorageSlot() internal pure virtual returns (bytes32) {... */\n    tag_218:\n        /* \"@openzeppelin/contracts/utils/ReentrancyGuard.sol\":4706:4713  bytes32 */\n      0x00\n        /* \"@openzeppelin/contracts/utils/ReentrancyGuard.sol\":1505:1571  0x9b779b17422d0df92223018b32b4d1fa46e071723d6817e2486d003becc55f00 */\n      0x9b779b17422d0df92223018b32b4d1fa46e071723d6817e2486d003becc55f00\n        /* \"@openzeppelin/contracts/utils/ReentrancyGuard.sol\":4732:4756  REENTRANCY_GUARD_STORAGE */\n      0x00\n      shl\n        /* \"@openzeppelin/contracts/utils/ReentrancyGuard.sol\":4725:4756  return REENTRANCY_GUARD_STORAGE */\n      swap1\n      pop\n        /* \"@openzeppelin/contracts/utils/ReentrancyGuard.sol\":4636:4763  function _reentrancyGuardStorageSlot() internal pure virtual returns (bytes32) {... */\n      swap1\n      jump\t// out\n        /* \"@openzeppelin/contracts/utils/StorageSlot.sol\":2679:2842  function getUint256Slot(bytes32 slot) internal pure returns (Uint256Slot storage r) {... */\n    tag_219:\n        /* \"@openzeppelin/contracts/utils/StorageSlot.sol\":2740:2761  Uint256Slot storage r */\n      0x00\n        /* \"@openzeppelin/contracts/utils/StorageSlot.sol\":2822:2826  slot */\n      dup2\n        /* \"@openzeppelin/contracts/utils/StorageSlot.sol\":2812:2826  r.slot := slot */\n      swap1\n      pop\n        /* \"@openzeppelin/contracts/utils/StorageSlot.sol\":2679:2842  function getUint256Slot(bytes32 slot) internal pure returns (Uint256Slot storage r) {... */\n      swap2\n      swap1\n      pop\n      jump\t// out\n        /* \"@openzeppelin/contracts/utils/ReentrancyGuard.sol\":4479:4630  function _reentrancyGuardEntered() internal view returns (bool) {... */\n    tag_225:\n        /* \"@openzeppelin/contracts/utils/ReentrancyGuard.sol\":4537:4541  bool */\n      0x00\n        /* \"@openzeppelin/contracts/utils/ReentrancyGuard.sol\":2407:2408  2 */\n      0x02\n        /* \"@openzeppelin/contracts/utils/ReentrancyGuard.sol\":4560:4606  _reentrancyGuardStorageSlot().getUint256Slot() */\n      tag_230\n        /* \"@openzeppelin/contracts/utils/ReentrancyGuard.sol\":4560:4589  _reentrancyGuardStorageSlot() */\n      tag_231\n        /* \"@openzeppelin/contracts/utils/ReentrancyGuard.sol\":4560:4587  _reentrancyGuardStorageSlot */\n      tag_218\n        /* \"@openzeppelin/contracts/utils/ReentrancyGuard.sol\":4560:4589  _reentrancyGuardStorageSlot() */\n      jump\t// in\n    tag_231:\n        /* \"@openzeppelin/contracts/utils/ReentrancyGuard.sol\":4560:4604  _reentrancyGuardStorageSlot().getUint256Slot */\n      tag_219\n        /* \"@openzeppelin/contracts/utils/ReentrancyGuard.sol\":4560:4606  _reentrancyGuardStorageSlot().getUint256Slot() */\n      jump\t// in\n    tag_230:\n        /* \"@openzeppelin/contracts/utils/ReentrancyGuard.sol\":4560:4612  _reentrancyGuardStorageSlot().getUint256Slot().value */\n      0x00\n      add\n      sload\n        /* \"@openzeppelin/contracts/utils/ReentrancyGuard.sol\":4560:4623  _reentrancyGuardStorageSlot().getUint256Slot().value == ENTERED */\n      eq\n        /* \"@openzeppelin/contracts/utils/ReentrancyGuard.sol\":4553:4623  return _reentrancyGuardStorageSlot().getUint256Slot().value == ENTERED */\n      swap1\n      pop\n        /* \"@openzeppelin/contracts/utils/ReentrancyGuard.sol\":4479:4630  function _reentrancyGuardEntered() internal view returns (bool) {... */\n      swap1\n      jump\t// out\n    tag_105:\n      mload(0x40)\n      dup1\n      0x0100\n      add\n      0x40\n      mstore\n      dup1\n      and(0xffffffffffffffffffffffffffffffffffffffff, 0x00)\n      dup2\n      mstore\n      0x20\n      add\n      0x00\n      dup2\n      mstore\n      0x20\n      add\n      0x00\n      dup2\n      mstore\n      0x20\n      add\n      0x00\n      dup2\n      mstore\n      0x20\n      add\n      0x00\n      dup2\n      mstore\n      0x20\n      add\n      0x00\n      dup2\n      mstore\n      0x20\n      add\n      0x00\n      dup2\n      mstore\n      0x20\n      add\n      iszero(iszero(0x00))\n      dup2\n      mstore\n      pop\n      swap1\n      jump\t// out\n    tag_165:\n      mload(0x40)\n      dup1\n      0xc0\n      add\n      0x40\n      mstore\n      dup1\n      0x60\n      dup2\n      mstore\n      0x20\n      add\n      0x00\n      dup2\n      mstore\n      0x20\n      add\n      0x00\n      dup2\n      mstore\n      0x20\n      add\n      0x00\n      dup2\n      mstore\n      0x20\n      add\n      0x00\n      dup2\n      mstore\n      0x20\n      add\n      iszero(iszero(0x00))\n      dup2\n      mstore\n      pop\n      swap1\n      jump\t// out\n        /* \"#utility.yul\":88:205   */\n    tag_233:\n        /* \"#utility.yul\":197:198   */\n      0x00\n        /* \"#utility.yul\":194:195   */\n      0x00\n        /* \"#utility.yul\":187:199   */\n      revert\n        /* \"#utility.yul\":211:328   */\n    tag_234:\n        /* \"#utility.yul\":320:321   */\n      0x00\n        /* \"#utility.yul\":317:318   */\n      0x00\n        /* \"#utility.yul\":310:322   */\n      revert\n        /* \"#utility.yul\":334:411   */\n    tag_235:\n        /* \"#utility.yul\":371:378   */\n      0x00\n        /* \"#utility.yul\":400:405   */\n      dup2\n        /* \"#utility.yul\":389:405   */\n      swap1\n      pop\n        /* \"#utility.yul\":334:411   */\n      swap2\n      swap1\n      pop\n      jump\t// out\n        /* \"#utility.yul\":417:539   */\n    tag_236:\n        /* \"#utility.yul\":490:514   */\n      tag_291\n        /* \"#utility.yul\":508:513   */\n      dup2\n        /* \"#utility.yul\":490:514   */\n      tag_235\n      jump\t// in\n    tag_291:\n        /* \"#utility.yul\":483:488   */\n      dup2\n        /* \"#utility.yul\":480:515   */\n      eq\n        /* \"#utility.yul\":470:533   */\n      tag_292\n      jumpi\n        /* \"#utility.yul\":529:530   */\n      0x00\n        /* \"#utility.yul\":526:527   */\n      0x00\n        /* \"#utility.yul\":519:531   */\n      revert\n        /* \"#utility.yul\":470:533   */\n    tag_292:\n        /* \"#utility.yul\":417:539   */\n      pop\n      jump\t// out\n        /* \"#utility.yul\":545:684   */\n    tag_237:\n        /* \"#utility.yul\":591:596   */\n      0x00\n        /* \"#utility.yul\":629:635   */\n      dup2\n        /* \"#utility.yul\":616:636   */\n      calldataload\n        /* \"#utility.yul\":607:636   */\n      swap1\n      pop\n        /* \"#utility.yul\":645:678   */\n      tag_294\n        /* \"#utility.yul\":672:677   */\n      dup2\n        /* \"#utility.yul\":645:678   */\n      tag_236\n      jump\t// in\n    tag_294:\n        /* \"#utility.yul\":545:684   */\n      swap3\n      swap2\n      pop\n      pop\n      jump\t// out\n        /* \"#utility.yul\":690:816   */\n    tag_238:\n        /* \"#utility.yul\":727:734   */\n      0x00\n        /* \"#utility.yul\":767:809   */\n      0xffffffffffffffffffffffffffffffffffffffff\n        /* \"#utility.yul\":760:765   */\n      dup3\n        /* \"#utility.yul\":756:810   */\n      and\n        /* \"#utility.yul\":745:810   */\n      swap1\n      pop\n        /* \"#utility.yul\":690:816   */\n      swap2\n      swap1\n      pop\n      jump\t// out\n        /* \"#utility.yul\":822:918   */\n    tag_239:\n        /* \"#utility.yul\":859:866   */\n      0x00\n        /* \"#utility.yul\":888:912   */\n      tag_297\n        /* \"#utility.yul\":906:911   */\n      dup3\n        /* \"#utility.yul\":888:912   */\n      tag_238\n      jump\t// in\n    tag_297:\n        /* \"#utility.yul\":877:912   */\n      swap1\n      pop\n        /* \"#utility.yul\":822:918   */\n      swap2\n      swap1\n      pop\n      jump\t// out\n        /* \"#utility.yul\":924:1046   */\n    tag_240:\n        /* \"#utility.yul\":997:1021   */\n      tag_299\n        /* \"#utility.yul\":1015:1020   */\n      dup2\n        /* \"#utility.yul\":997:1021   */\n      tag_239\n      jump\t// in\n    tag_299:\n        /* \"#utility.yul\":990:995   */\n      dup2\n        /* \"#utility.yul\":987:1022   */\n      eq\n        /* \"#utility.yul\":977:1040   */\n      tag_300\n      jumpi\n        /* \"#utility.yul\":1036:1037   */\n      0x00\n        /* \"#utility.yul\":1033:1034   */\n      0x00\n        /* \"#utility.yul\":1026:1038   */\n      revert\n        /* \"#utility.yul\":977:1040   */\n    tag_300:\n        /* \"#utility.yul\":924:1046   */\n      pop\n      jump\t// out\n        /* \"#utility.yul\":1052:1191   */\n    tag_241:\n        /* \"#utility.yul\":1098:1103   */\n      0x00\n        /* \"#utility.yul\":1136:1142   */\n      dup2\n        /* \"#utility.yul\":1123:1143   */\n      calldataload\n        /* \"#utility.yul\":1114:1143   */\n      swap1\n      pop\n        /* \"#utility.yul\":1152:1185   */\n      tag_302\n        /* \"#utility.yul\":1179:1184   */\n      dup2\n        /* \"#utility.yul\":1152:1185   */\n      tag_240\n      jump\t// in\n    tag_302:\n        /* \"#utility.yul\":1052:1191   */\n      swap3\n      swap2\n      pop\n      pop\n      jump\t// out\n        /* \"#utility.yul\":1197:1816   */\n    tag_25:\n        /* \"#utility.yul\":1274:1280   */\n      0x00\n        /* \"#utility.yul\":1282:1288   */\n      0x00\n        /* \"#utility.yul\":1290:1296   */\n      0x00\n        /* \"#utility.yul\":1339:1341   */\n      0x60\n        /* \"#utility.yul\":1327:1336   */\n      dup5\n        /* \"#utility.yul\":1318:1325   */\n      dup7\n        /* \"#utility.yul\":1314:1337   */\n      sub\n        /* \"#utility.yul\":1310:1342   */\n      slt\n        /* \"#utility.yul\":1307:1426   */\n      iszero\n      tag_304\n      jumpi\n        /* \"#utility.yul\":1345:1424   */\n      tag_305\n      tag_233\n      jump\t// in\n    tag_305:\n        /* \"#utility.yul\":1307:1426   */\n    tag_304:\n        /* \"#utility.yul\":1465:1466   */\n      0x00\n        /* \"#utility.yul\":1490:1543   */\n      tag_306\n        /* \"#utility.yul\":1535:1542   */\n      dup7\n        /* \"#utility.yul\":1526:1532   */\n      dup3\n        /* \"#utility.yul\":1515:1524   */\n      dup8\n        /* \"#utility.yul\":1511:1533   */\n      add\n        /* \"#utility.yul\":1490:1543   */\n      tag_237\n      jump\t// in\n    tag_306:\n        /* \"#utility.yul\":1480:1543   */\n      swap4\n      pop\n        /* \"#utility.yul\":1436:1553   */\n      pop\n        /* \"#utility.yul\":1592:1594   */\n      0x20\n        /* \"#utility.yul\":1618:1671   */\n      tag_307\n        /* \"#utility.yul\":1663:1670   */\n      dup7\n        /* \"#utility.yul\":1654:1660   */\n      dup3\n        /* \"#utility.yul\":1643:1652   */\n      dup8\n        /* \"#utility.yul\":1639:1661   */\n      add\n        /* \"#utility.yul\":1618:1671   */\n      tag_237\n      jump\t// in\n    tag_307:\n        /* \"#utility.yul\":1608:1671   */\n      swap3\n      pop\n        /* \"#utility.yul\":1563:1681   */\n      pop\n        /* \"#utility.yul\":1720:1722   */\n      0x40\n        /* \"#utility.yul\":1746:1799   */\n      tag_308\n        /* \"#utility.yul\":1791:1798   */\n      dup7\n        /* \"#utility.yul\":1782:1788   */\n      dup3\n        /* \"#utility.yul\":1771:1780   */\n      dup8\n        /* \"#utility.yul\":1767:1789   */\n      add\n        /* \"#utility.yul\":1746:1799   */\n      tag_241\n      jump\t// in\n    tag_308:\n        /* \"#utility.yul\":1736:1799   */\n      swap2\n      pop\n        /* \"#utility.yul\":1691:1809   */\n      pop\n        /* \"#utility.yul\":1197:1816   */\n      swap3\n      pop\n      swap3\n      pop\n      swap3\n      jump\t// out\n        /* \"#utility.yul\":1822:1912   */\n    tag_242:\n        /* \"#utility.yul\":1856:1863   */\n      0x00\n        /* \"#utility.yul\":1899:1904   */\n      dup2\n        /* \"#utility.yul\":1892:1905   */\n      iszero\n        /* \"#utility.yul\":1885:1906   */\n      iszero\n        /* \"#utility.yul\":1874:1906   */\n      swap1\n      pop\n        /* \"#utility.yul\":1822:1912   */\n      swap2\n      swap1\n      pop\n      jump\t// out\n        /* \"#utility.yul\":1918:2027   */\n    tag_243:\n        /* \"#utility.yul\":1999:2020   */\n      tag_311\n        /* \"#utility.yul\":2014:2019   */\n      dup2\n        /* \"#utility.yul\":1999:2020   */\n      tag_242\n      jump\t// in\n    tag_311:\n        /* \"#utility.yul\":1994:1997   */\n      dup3\n        /* \"#utility.yul\":1987:2021   */\n      mstore\n        /* \"#utility.yul\":1918:2027   */\n      pop\n      pop\n      jump\t// out\n        /* \"#utility.yul\":2033:2243   */\n    tag_28:\n        /* \"#utility.yul\":2120:2124   */\n      0x00\n        /* \"#utility.yul\":2158:2160   */\n      0x20\n        /* \"#utility.yul\":2147:2156   */\n      dup3\n        /* \"#utility.yul\":2143:2161   */\n      add\n        /* \"#utility.yul\":2135:2161   */\n      swap1\n      pop\n        /* \"#utility.yul\":2171:2236   */\n      tag_313\n        /* \"#utility.yul\":2233:2234   */\n      0x00\n        /* \"#utility.yul\":2222:2231   */\n      dup4\n        /* \"#utility.yul\":2218:2235   */\n      add\n        /* \"#utility.yul\":2209:2215   */\n      dup5\n        /* \"#utility.yul\":2171:2236   */\n      tag_243\n      jump\t// in\n    tag_313:\n        /* \"#utility.yul\":2033:2243   */\n      swap3\n      swap2\n      pop\n      pop\n      jump\t// out\n        /* \"#utility.yul\":2249:2723   */\n    tag_32:\n        /* \"#utility.yul\":2317:2323   */\n      0x00\n        /* \"#utility.yul\":2325:2331   */\n      0x00\n        /* \"#utility.yul\":2374:2376   */\n      0x40\n        /* \"#utility.yul\":2362:2371   */\n      dup4\n        /* \"#utility.yul\":2353:2360   */\n      dup6\n        /* \"#utility.yul\":2349:2372   */\n      sub\n        /* \"#utility.yul\":2345:2377   */\n      slt\n        /* \"#utility.yul\":2342:2461   */\n      iszero\n      tag_315\n      jumpi\n        /* \"#utility.yul\":2380:2459   */\n      tag_316\n      tag_233\n      jump\t// in\n    tag_316:\n        /* \"#utility.yul\":2342:2461   */\n    tag_315:\n        /* \"#utility.yul\":2500:2501   */\n      0x00\n        /* \"#utility.yul\":2525:2578   */\n      tag_317\n        /* \"#utility.yul\":2570:2577   */\n      dup6\n        /* \"#utility.yul\":2561:2567   */\n      dup3\n        /* \"#utility.yul\":2550:2559   */\n      dup7\n        /* \"#utility.yul\":2546:2568   */\n      add\n        /* \"#utility.yul\":2525:2578   */\n      tag_237\n      jump\t// in\n    tag_317:\n        /* \"#utility.yul\":2515:2578   */\n      swap3\n      pop\n        /* \"#utility.yul\":2471:2588   */\n      pop\n        /* \"#utility.yul\":2627:2629   */\n      0x20\n        /* \"#utility.yul\":2653:2706   */\n      tag_318\n        /* \"#utility.yul\":2698:2705   */\n      dup6\n        /* \"#utility.yul\":2689:2695   */\n      dup3\n        /* \"#utility.yul\":2678:2687   */\n      dup7\n        /* \"#utility.yul\":2674:2696   */\n      add\n        /* \"#utility.yul\":2653:2706   */\n      tag_237\n      jump\t// in\n    tag_318:\n        /* \"#utility.yul\":2643:2706   */\n      swap2\n      pop\n        /* \"#utility.yul\":2598:2716   */\n      pop\n        /* \"#utility.yul\":2249:2723   */\n      swap3\n      pop\n      swap3\n      swap1\n      pop\n      jump\t// out\n        /* \"#utility.yul\":2729:2847   */\n    tag_244:\n        /* \"#utility.yul\":2816:2840   */\n      tag_320\n        /* \"#utility.yul\":2834:2839   */\n      dup2\n        /* \"#utility.yul\":2816:2840   */\n      tag_235\n      jump\t// in\n    tag_320:\n        /* \"#utility.yul\":2811:2814   */\n      dup3\n        /* \"#utility.yul\":2804:2841   */\n      mstore\n        /* \"#utility.yul\":2729:2847   */\n      pop\n      pop\n      jump\t// out\n        /* \"#utility.yul\":2853:3075   */\n    tag_35:\n        /* \"#utility.yul\":2946:2950   */\n      0x00\n        /* \"#utility.yul\":2984:2986   */\n      0x20\n        /* \"#utility.yul\":2973:2982   */\n      dup3\n        /* \"#utility.yul\":2969:2987   */\n      add\n        /* \"#utility.yul\":2961:2987   */\n      swap1\n      pop\n        /* \"#utility.yul\":2997:3068   */\n      tag_322\n        /* \"#utility.yul\":3065:3066   */\n      0x00\n        /* \"#utility.yul\":3054:3063   */\n      dup4\n        /* \"#utility.yul\":3050:3067   */\n      add\n        /* \"#utility.yul\":3041:3047   */\n      dup5\n        /* \"#utility.yul\":2997:3068   */\n      tag_244\n      jump\t// in\n    tag_322:\n        /* \"#utility.yul\":2853:3075   */\n      swap3\n      swap2\n      pop\n      pop\n      jump\t// out\n        /* \"#utility.yul\":3081:3555   */\n    tag_39:\n        /* \"#utility.yul\":3149:3155   */\n      0x00\n        /* \"#utility.yul\":3157:3163   */\n      0x00\n        /* \"#utility.yul\":3206:3208   */\n      0x40\n        /* \"#utility.yul\":3194:3203   */\n      dup4\n        /* \"#utility.yul\":3185:3192   */\n      dup6\n        /* \"#utility.yul\":3181:3204   */\n      sub\n        /* \"#utility.yul\":3177:3209   */\n      slt\n        /* \"#utility.yul\":3174:3293   */\n      iszero\n      tag_324\n      jumpi\n        /* \"#utility.yul\":3212:3291   */\n      tag_325\n      tag_233\n      jump\t// in\n    tag_325:\n        /* \"#utility.yul\":3174:3293   */\n    tag_324:\n        /* \"#utility.yul\":3332:3333   */\n      0x00\n        /* \"#utility.yul\":3357:3410   */\n      tag_326\n        /* \"#utility.yul\":3402:3409   */\n      dup6\n        /* \"#utility.yul\":3393:3399   */\n      dup3\n        /* \"#utility.yul\":3382:3391   */\n      dup7\n        /* \"#utility.yul\":3378:3400   */\n      add\n        /* \"#utility.yul\":3357:3410   */\n      tag_237\n      jump\t// in\n    tag_326:\n        /* \"#utility.yul\":3347:3410   */\n      swap3\n      pop\n        /* \"#utility.yul\":3303:3420   */\n      pop\n        /* \"#utility.yul\":3459:3461   */\n      0x20\n        /* \"#utility.yul\":3485:3538   */\n      tag_327\n        /* \"#utility.yul\":3530:3537   */\n      dup6\n        /* \"#utility.yul\":3521:3527   */\n      dup3\n        /* \"#utility.yul\":3510:3519   */\n      dup7\n        /* \"#utility.yul\":3506:3528   */\n      add\n        /* \"#utility.yul\":3485:3538   */\n      tag_241\n      jump\t// in\n    tag_327:\n        /* \"#utility.yul\":3475:3538   */\n      swap2\n      pop\n        /* \"#utility.yul\":3430:3548   */\n      pop\n        /* \"#utility.yul\":3081:3555   */\n      swap3\n      pop\n      swap3\n      swap1\n      pop\n      jump\t// out\n        /* \"#utility.yul\":3561:3890   */\n    tag_45:\n        /* \"#utility.yul\":3620:3626   */\n      0x00\n        /* \"#utility.yul\":3669:3671   */\n      0x20\n        /* \"#utility.yul\":3657:3666   */\n      dup3\n        /* \"#utility.yul\":3648:3655   */\n      dup5\n        /* \"#utility.yul\":3644:3667   */\n      sub\n        /* \"#utility.yul\":3640:3672   */\n      slt\n        /* \"#utility.yul\":3637:3756   */\n      iszero\n      tag_329\n      jumpi\n        /* \"#utility.yul\":3675:3754   */\n      tag_330\n      tag_233\n      jump\t// in\n    tag_330:\n        /* \"#utility.yul\":3637:3756   */\n    tag_329:\n        /* \"#utility.yul\":3795:3796   */\n      0x00\n        /* \"#utility.yul\":3820:3873   */\n      tag_331\n        /* \"#utility.yul\":3865:3872   */\n      dup5\n        /* \"#utility.yul\":3856:3862   */\n      dup3\n        /* \"#utility.yul\":3845:3854   */\n      dup6\n        /* \"#utility.yul\":3841:3863   */\n      add\n        /* \"#utility.yul\":3820:3873   */\n      tag_237\n      jump\t// in\n    tag_331:\n        /* \"#utility.yul\":3810:3873   */\n      swap2\n      pop\n        /* \"#utility.yul\":3766:3883   */\n      pop\n        /* \"#utility.yul\":3561:3890   */\n      swap3\n      swap2\n      pop\n      pop\n      jump\t// out\n        /* \"#utility.yul\":3896:4004   */\n    tag_245:\n        /* \"#utility.yul\":3973:3997   */\n      tag_333\n        /* \"#utility.yul\":3991:3996   */\n      dup2\n        /* \"#utility.yul\":3973:3997   */\n      tag_239\n      jump\t// in\n    tag_333:\n        /* \"#utility.yul\":3968:3971   */\n      dup3\n        /* \"#utility.yul\":3961:3998   */\n      mstore\n        /* \"#utility.yul\":3896:4004   */\n      pop\n      pop\n      jump\t// out\n        /* \"#utility.yul\":4010:4118   */\n    tag_246:\n        /* \"#utility.yul\":4087:4111   */\n      tag_335\n        /* \"#utility.yul\":4105:4110   */\n      dup2\n        /* \"#utility.yul\":4087:4111   */\n      tag_235\n      jump\t// in\n    tag_335:\n        /* \"#utility.yul\":4082:4085   */\n      dup3\n        /* \"#utility.yul\":4075:4112   */\n      mstore\n        /* \"#utility.yul\":4010:4118   */\n      pop\n      pop\n      jump\t// out\n        /* \"#utility.yul\":4124:4223   */\n    tag_247:\n        /* \"#utility.yul\":4195:4216   */\n      tag_337\n        /* \"#utility.yul\":4210:4215   */\n      dup2\n        /* \"#utility.yul\":4195:4216   */\n      tag_242\n      jump\t// in\n    tag_337:\n        /* \"#utility.yul\":4190:4193   */\n      dup3\n        /* \"#utility.yul\":4183:4217   */\n      mstore\n        /* \"#utility.yul\":4124:4223   */\n      pop\n      pop\n      jump\t// out\n        /* \"#utility.yul\":4303:5892   */\n    tag_248:\n        /* \"#utility.yul\":4450:4456   */\n      0x0100\n        /* \"#utility.yul\":4445:4448   */\n      dup3\n        /* \"#utility.yul\":4441:4457   */\n      add\n        /* \"#utility.yul\":4542:4546   */\n      0x00\n        /* \"#utility.yul\":4535:4540   */\n      dup3\n        /* \"#utility.yul\":4531:4547   */\n      add\n        /* \"#utility.yul\":4525:4548   */\n      mload\n        /* \"#utility.yul\":4561:4624   */\n      tag_339\n        /* \"#utility.yul\":4618:4622   */\n      0x00\n        /* \"#utility.yul\":4613:4616   */\n      dup6\n        /* \"#utility.yul\":4609:4623   */\n      add\n        /* \"#utility.yul\":4595:4607   */\n      dup3\n        /* \"#utility.yul\":4561:4624   */\n      tag_245\n      jump\t// in\n    tag_339:\n        /* \"#utility.yul\":4467:4634   */\n      pop\n        /* \"#utility.yul\":4716:4720   */\n      0x20\n        /* \"#utility.yul\":4709:4714   */\n      dup3\n        /* \"#utility.yul\":4705:4721   */\n      add\n        /* \"#utility.yul\":4699:4722   */\n      mload\n        /* \"#utility.yul\":4735:4798   */\n      tag_340\n        /* \"#utility.yul\":4792:4796   */\n      0x20\n        /* \"#utility.yul\":4787:4790   */\n      dup6\n        /* \"#utility.yul\":4783:4797   */\n      add\n        /* \"#utility.yul\":4769:4781   */\n      dup3\n        /* \"#utility.yul\":4735:4798   */\n      tag_246\n      jump\t// in\n    tag_340:\n        /* \"#utility.yul\":4644:4808   */\n      pop\n        /* \"#utility.yul\":4894:4898   */\n      0x40\n        /* \"#utility.yul\":4887:4892   */\n      dup3\n        /* \"#utility.yul\":4883:4899   */\n      add\n        /* \"#utility.yul\":4877:4900   */\n      mload\n        /* \"#utility.yul\":4913:4976   */\n      tag_341\n        /* \"#utility.yul\":4970:4974   */\n      0x40\n        /* \"#utility.yul\":4965:4968   */\n      dup6\n        /* \"#utility.yul\":4961:4975   */\n      add\n        /* \"#utility.yul\":4947:4959   */\n      dup3\n        /* \"#utility.yul\":4913:4976   */\n      tag_246\n      jump\t// in\n    tag_341:\n        /* \"#utility.yul\":4818:4986   */\n      pop\n        /* \"#utility.yul\":5070:5074   */\n      0x60\n        /* \"#utility.yul\":5063:5068   */\n      dup3\n        /* \"#utility.yul\":5059:5075   */\n      add\n        /* \"#utility.yul\":5053:5076   */\n      mload\n        /* \"#utility.yul\":5089:5152   */\n      tag_342\n        /* \"#utility.yul\":5146:5150   */\n      0x60\n        /* \"#utility.yul\":5141:5144   */\n      dup6\n        /* \"#utility.yul\":5137:5151   */\n      add\n        /* \"#utility.yul\":5123:5135   */\n      dup3\n        /* \"#utility.yul\":5089:5152   */\n      tag_246\n      jump\t// in\n    tag_342:\n        /* \"#utility.yul\":4996:5162   */\n      pop\n        /* \"#utility.yul\":5254:5258   */\n      0x80\n        /* \"#utility.yul\":5247:5252   */\n      dup3\n        /* \"#utility.yul\":5243:5259   */\n      add\n        /* \"#utility.yul\":5237:5260   */\n      mload\n        /* \"#utility.yul\":5273:5336   */\n      tag_343\n        /* \"#utility.yul\":5330:5334   */\n      0x80\n        /* \"#utility.yul\":5325:5328   */\n      dup6\n        /* \"#utility.yul\":5321:5335   */\n      add\n        /* \"#utility.yul\":5307:5319   */\n      dup3\n        /* \"#utility.yul\":5273:5336   */\n      tag_246\n      jump\t// in\n    tag_343:\n        /* \"#utility.yul\":5172:5346   */\n      pop\n        /* \"#utility.yul\":5440:5444   */\n      0xa0\n        /* \"#utility.yul\":5433:5438   */\n      dup3\n        /* \"#utility.yul\":5429:5445   */\n      add\n        /* \"#utility.yul\":5423:5446   */\n      mload\n        /* \"#utility.yul\":5459:5522   */\n      tag_344\n        /* \"#utility.yul\":5516:5520   */\n      0xa0\n        /* \"#utility.yul\":5511:5514   */\n      dup6\n        /* \"#utility.yul\":5507:5521   */\n      add\n        /* \"#utility.yul\":5493:5505   */\n      dup3\n        /* \"#utility.yul\":5459:5522   */\n      tag_246\n      jump\t// in\n    tag_344:\n        /* \"#utility.yul\":5356:5532   */\n      pop\n        /* \"#utility.yul\":5623:5627   */\n      0xc0\n        /* \"#utility.yul\":5616:5621   */\n      dup3\n        /* \"#utility.yul\":5612:5628   */\n      add\n        /* \"#utility.yul\":5606:5629   */\n      mload\n        /* \"#utility.yul\":5642:5705   */\n      tag_345\n        /* \"#utility.yul\":5699:5703   */\n      0xc0\n        /* \"#utility.yul\":5694:5697   */\n      dup6\n        /* \"#utility.yul\":5690:5704   */\n      add\n        /* \"#utility.yul\":5676:5688   */\n      dup3\n        /* \"#utility.yul\":5642:5705   */\n      tag_246\n      jump\t// in\n    tag_345:\n        /* \"#utility.yul\":5542:5715   */\n      pop\n        /* \"#utility.yul\":5799:5803   */\n      0xe0\n        /* \"#utility.yul\":5792:5797   */\n      dup3\n        /* \"#utility.yul\":5788:5804   */\n      add\n        /* \"#utility.yul\":5782:5805   */\n      mload\n        /* \"#utility.yul\":5818:5875   */\n      tag_346\n        /* \"#utility.yul\":5869:5873   */\n      0xe0\n        /* \"#utility.yul\":5864:5867   */\n      dup6\n        /* \"#utility.yul\":5860:5874   */\n      add\n        /* \"#utility.yul\":5846:5858   */\n      dup3\n        /* \"#utility.yul\":5818:5875   */\n      tag_247\n      jump\t// in\n    tag_346:\n        /* \"#utility.yul\":5725:5885   */\n      pop\n        /* \"#utility.yul\":4419:5892   */\n      pop\n        /* \"#utility.yul\":4303:5892   */\n      pop\n      pop\n      jump\t// out\n        /* \"#utility.yul\":5898:6221   */\n    tag_48:\n        /* \"#utility.yul\":6041:6045   */\n      0x00\n        /* \"#utility.yul\":6079:6082   */\n      0x0100\n        /* \"#utility.yul\":6068:6077   */\n      dup3\n        /* \"#utility.yul\":6064:6083   */\n      add\n        /* \"#utility.yul\":6056:6083   */\n      swap1\n      pop\n        /* \"#utility.yul\":6093:6214   */\n      tag_348\n        /* \"#utility.yul\":6211:6212   */\n      0x00\n        /* \"#utility.yul\":6200:6209   */\n      dup4\n        /* \"#utility.yul\":6196:6213   */\n      add\n        /* \"#utility.yul\":6187:6193   */\n      dup5\n        /* \"#utility.yul\":6093:6214   */\n      tag_248\n      jump\t// in\n    tag_348:\n        /* \"#utility.yul\":5898:6221   */\n      swap3\n      swap2\n      pop\n      pop\n      jump\t// out\n        /* \"#utility.yul\":6227:6344   */\n    tag_249:\n        /* \"#utility.yul\":6336:6337   */\n      0x00\n        /* \"#utility.yul\":6333:6334   */\n      0x00\n        /* \"#utility.yul\":6326:6338   */\n      revert\n        /* \"#utility.yul\":6350:6467   */\n    tag_250:\n        /* \"#utility.yul\":6459:6460   */\n      0x00\n        /* \"#utility.yul\":6456:6457   */\n      0x00\n        /* \"#utility.yul\":6449:6461   */\n      revert\n        /* \"#utility.yul\":6473:6590   */\n    tag_251:\n        /* \"#utility.yul\":6582:6583   */\n      0x00\n        /* \"#utility.yul\":6579:6580   */\n      0x00\n        /* \"#utility.yul\":6572:6584   */\n      revert\n        /* \"#utility.yul\":6610:7163   */\n    tag_252:\n        /* \"#utility.yul\":6668:6676   */\n      0x00\n        /* \"#utility.yul\":6678:6684   */\n      0x00\n        /* \"#utility.yul\":6728:6731   */\n      dup4\n        /* \"#utility.yul\":6721:6725   */\n      0x1f\n        /* \"#utility.yul\":6713:6719   */\n      dup5\n        /* \"#utility.yul\":6709:6726   */\n      add\n        /* \"#utility.yul\":6705:6732   */\n      slt\n        /* \"#utility.yul\":6695:6817   */\n      tag_353\n      jumpi\n        /* \"#utility.yul\":6736:6815   */\n      tag_354\n      tag_249\n      jump\t// in\n    tag_354:\n        /* \"#utility.yul\":6695:6817   */\n    tag_353:\n        /* \"#utility.yul\":6849:6855   */\n      dup3\n        /* \"#utility.yul\":6836:6856   */\n      calldataload\n        /* \"#utility.yul\":6826:6856   */\n      swap1\n      pop\n        /* \"#utility.yul\":6879:6897   */\n      0xffffffffffffffff\n        /* \"#utility.yul\":6871:6877   */\n      dup2\n        /* \"#utility.yul\":6868:6898   */\n      gt\n        /* \"#utility.yul\":6865:6982   */\n      iszero\n      tag_355\n      jumpi\n        /* \"#utility.yul\":6901:6980   */\n      tag_356\n      tag_250\n      jump\t// in\n    tag_356:\n        /* \"#utility.yul\":6865:6982   */\n    tag_355:\n        /* \"#utility.yul\":7015:7019   */\n      0x20\n        /* \"#utility.yul\":7007:7013   */\n      dup4\n        /* \"#utility.yul\":7003:7020   */\n      add\n        /* \"#utility.yul\":6991:7020   */\n      swap2\n      pop\n        /* \"#utility.yul\":7069:7072   */\n      dup4\n        /* \"#utility.yul\":7061:7065   */\n      0x01\n        /* \"#utility.yul\":7053:7059   */\n      dup3\n        /* \"#utility.yul\":7049:7066   */\n      mul\n        /* \"#utility.yul\":7039:7047   */\n      dup4\n        /* \"#utility.yul\":7035:7067   */\n      add\n        /* \"#utility.yul\":7032:7073   */\n      gt\n        /* \"#utility.yul\":7029:7157   */\n      iszero\n      tag_357\n      jumpi\n        /* \"#utility.yul\":7076:7155   */\n      tag_358\n      tag_251\n      jump\t// in\n    tag_358:\n        /* \"#utility.yul\":7029:7157   */\n    tag_357:\n        /* \"#utility.yul\":6610:7163   */\n      swap3\n      pop\n      swap3\n      swap1\n      pop\n      jump\t// out\n        /* \"#utility.yul\":7169:8134   */\n    tag_56:\n        /* \"#utility.yul\":7267:7273   */\n      0x00\n        /* \"#utility.yul\":7275:7281   */\n      0x00\n        /* \"#utility.yul\":7283:7289   */\n      0x00\n        /* \"#utility.yul\":7291:7297   */\n      0x00\n        /* \"#utility.yul\":7299:7305   */\n      0x00\n        /* \"#utility.yul\":7348:7351   */\n      0x80\n        /* \"#utility.yul\":7336:7345   */\n      dup7\n        /* \"#utility.yul\":7327:7334   */\n      dup9\n        /* \"#utility.yul\":7323:7346   */\n      sub\n        /* \"#utility.yul\":7319:7352   */\n      slt\n        /* \"#utility.yul\":7316:7436   */\n      iszero\n      tag_360\n      jumpi\n        /* \"#utility.yul\":7355:7434   */\n      tag_361\n      tag_233\n      jump\t// in\n    tag_361:\n        /* \"#utility.yul\":7316:7436   */\n    tag_360:\n        /* \"#utility.yul\":7475:7476   */\n      0x00\n        /* \"#utility.yul\":7500:7553   */\n      tag_362\n        /* \"#utility.yul\":7545:7552   */\n      dup9\n        /* \"#utility.yul\":7536:7542   */\n      dup3\n        /* \"#utility.yul\":7525:7534   */\n      dup10\n        /* \"#utility.yul\":7521:7543   */\n      add\n        /* \"#utility.yul\":7500:7553   */\n      tag_237\n      jump\t// in\n    tag_362:\n        /* \"#utility.yul\":7490:7553   */\n      swap6\n      pop\n        /* \"#utility.yul\":7446:7563   */\n      pop\n        /* \"#utility.yul\":7602:7604   */\n      0x20\n        /* \"#utility.yul\":7628:7681   */\n      tag_363\n        /* \"#utility.yul\":7673:7680   */\n      dup9\n        /* \"#utility.yul\":7664:7670   */\n      dup3\n        /* \"#utility.yul\":7653:7662   */\n      dup10\n        /* \"#utility.yul\":7649:7671   */\n      add\n        /* \"#utility.yul\":7628:7681   */\n      tag_237\n      jump\t// in\n    tag_363:\n        /* \"#utility.yul\":7618:7681   */\n      swap5\n      pop\n        /* \"#utility.yul\":7573:7691   */\n      pop\n        /* \"#utility.yul\":7758:7760   */\n      0x40\n        /* \"#utility.yul\":7747:7756   */\n      dup7\n        /* \"#utility.yul\":7743:7761   */\n      add\n        /* \"#utility.yul\":7730:7762   */\n      calldataload\n        /* \"#utility.yul\":7789:7807   */\n      0xffffffffffffffff\n        /* \"#utility.yul\":7781:7787   */\n      dup2\n        /* \"#utility.yul\":7778:7808   */\n      gt\n        /* \"#utility.yul\":7775:7892   */\n      iszero\n      tag_364\n      jumpi\n        /* \"#utility.yul\":7811:7890   */\n      tag_365\n      tag_234\n      jump\t// in\n    tag_365:\n        /* \"#utility.yul\":7775:7892   */\n    tag_364:\n        /* \"#utility.yul\":7924:7989   */\n      tag_366\n        /* \"#utility.yul\":7981:7988   */\n      dup9\n        /* \"#utility.yul\":7972:7978   */\n      dup3\n        /* \"#utility.yul\":7961:7970   */\n      dup10\n        /* \"#utility.yul\":7957:7979   */\n      add\n        /* \"#utility.yul\":7924:7989   */\n      tag_252\n      jump\t// in\n    tag_366:\n        /* \"#utility.yul\":7906:7989   */\n      swap4\n      pop\n      swap4\n      pop\n        /* \"#utility.yul\":7701:7999   */\n      pop\n        /* \"#utility.yul\":8038:8040   */\n      0x60\n        /* \"#utility.yul\":8064:8117   */\n      tag_367\n        /* \"#utility.yul\":8109:8116   */\n      dup9\n        /* \"#utility.yul\":8100:8106   */\n      dup3\n        /* \"#utility.yul\":8089:8098   */\n      dup10\n        /* \"#utility.yul\":8085:8107   */\n      add\n        /* \"#utility.yul\":8064:8117   */\n      tag_237\n      jump\t// in\n    tag_367:\n        /* \"#utility.yul\":8054:8117   */\n      swap2\n      pop\n        /* \"#utility.yul\":8009:8127   */\n      pop\n        /* \"#utility.yul\":7169:8134   */\n      swap3\n      swap6\n      pop\n      swap3\n      swap6\n      swap1\n      swap4\n      pop\n      jump\t// out\n        /* \"#utility.yul\":8140:8256   */\n    tag_253:\n        /* \"#utility.yul\":8210:8231   */\n      tag_369\n        /* \"#utility.yul\":8225:8230   */\n      dup2\n        /* \"#utility.yul\":8210:8231   */\n      tag_242\n      jump\t// in\n    tag_369:\n        /* \"#utility.yul\":8203:8208   */\n      dup2\n        /* \"#utility.yul\":8200:8232   */\n      eq\n        /* \"#utility.yul\":8190:8250   */\n      tag_370\n      jumpi\n        /* \"#utility.yul\":8246:8247   */\n      0x00\n        /* \"#utility.yul\":8243:8244   */\n      0x00\n        /* \"#utility.yul\":8236:8248   */\n      revert\n        /* \"#utility.yul\":8190:8250   */\n    tag_370:\n        /* \"#utility.yul\":8140:8256   */\n      pop\n      jump\t// out\n        /* \"#utility.yul\":8262:8395   */\n    tag_254:\n        /* \"#utility.yul\":8305:8310   */\n      0x00\n        /* \"#utility.yul\":8343:8349   */\n      dup2\n        /* \"#utility.yul\":8330:8350   */\n      calldataload\n        /* \"#utility.yul\":8321:8350   */\n      swap1\n      pop\n        /* \"#utility.yul\":8359:8389   */\n      tag_372\n        /* \"#utility.yul\":8383:8388   */\n      dup2\n        /* \"#utility.yul\":8359:8389   */\n      tag_253\n      jump\t// in\n    tag_372:\n        /* \"#utility.yul\":8262:8395   */\n      swap3\n      swap2\n      pop\n      pop\n      jump\t// out\n        /* \"#utility.yul\":8401:9014   */\n    tag_62:\n        /* \"#utility.yul\":8475:8481   */\n      0x00\n        /* \"#utility.yul\":8483:8489   */\n      0x00\n        /* \"#utility.yul\":8491:8497   */\n      0x00\n        /* \"#utility.yul\":8540:8542   */\n      0x60\n        /* \"#utility.yul\":8528:8537   */\n      dup5\n        /* \"#utility.yul\":8519:8526   */\n      dup7\n        /* \"#utility.yul\":8515:8538   */\n      sub\n        /* \"#utility.yul\":8511:8543   */\n      slt\n        /* \"#utility.yul\":8508:8627   */\n      iszero\n      tag_374\n      jumpi\n        /* \"#utility.yul\":8546:8625   */\n      tag_375\n      tag_233\n      jump\t// in\n    tag_375:\n        /* \"#utility.yul\":8508:8627   */\n    tag_374:\n        /* \"#utility.yul\":8666:8667   */\n      0x00\n        /* \"#utility.yul\":8691:8744   */\n      tag_376\n        /* \"#utility.yul\":8736:8743   */\n      dup7\n        /* \"#utility.yul\":8727:8733   */\n      dup3\n        /* \"#utility.yul\":8716:8725   */\n      dup8\n        /* \"#utility.yul\":8712:8734   */\n      add\n        /* \"#utility.yul\":8691:8744   */\n      tag_237\n      jump\t// in\n    tag_376:\n        /* \"#utility.yul\":8681:8744   */\n      swap4\n      pop\n        /* \"#utility.yul\":8637:8754   */\n      pop\n        /* \"#utility.yul\":8793:8795   */\n      0x20\n        /* \"#utility.yul\":8819:8872   */\n      tag_377\n        /* \"#utility.yul\":8864:8871   */\n      dup7\n        /* \"#utility.yul\":8855:8861   */\n      dup3\n        /* \"#utility.yul\":8844:8853   */\n      dup8\n        /* \"#utility.yul\":8840:8862   */\n      add\n        /* \"#utility.yul\":8819:8872   */\n      tag_237\n      jump\t// in\n    tag_377:\n        /* \"#utility.yul\":8809:8872   */\n      swap3\n      pop\n        /* \"#utility.yul\":8764:8882   */\n      pop\n        /* \"#utility.yul\":8921:8923   */\n      0x40\n        /* \"#utility.yul\":8947:8997   */\n      tag_378\n        /* \"#utility.yul\":8989:8996   */\n      dup7\n        /* \"#utility.yul\":8980:8986   */\n      dup3\n        /* \"#utility.yul\":8969:8978   */\n      dup8\n        /* \"#utility.yul\":8965:8987   */\n      add\n        /* \"#utility.yul\":8947:8997   */\n      tag_254\n      jump\t// in\n    tag_378:\n        /* \"#utility.yul\":8937:8997   */\n      swap2\n      pop\n        /* \"#utility.yul\":8892:9007   */\n      pop\n        /* \"#utility.yul\":8401:9014   */\n      swap3\n      pop\n      swap3\n      pop\n      swap3\n      jump\t// out\n        /* \"#utility.yul\":9020:9119   */\n    tag_255:\n        /* \"#utility.yul\":9072:9078   */\n      0x00\n        /* \"#utility.yul\":9106:9111   */\n      dup2\n        /* \"#utility.yul\":9100:9112   */\n      mload\n        /* \"#utility.yul\":9090:9112   */\n      swap1\n      pop\n        /* \"#utility.yul\":9020:9119   */\n      swap2\n      swap1\n      pop\n      jump\t// out\n        /* \"#utility.yul\":9125:9284   */\n    tag_256:\n        /* \"#utility.yul\":9199:9210   */\n      0x00\n        /* \"#utility.yul\":9233:9239   */\n      dup3\n        /* \"#utility.yul\":9228:9231   */\n      dup3\n        /* \"#utility.yul\":9221:9240   */\n      mstore\n        /* \"#utility.yul\":9273:9277   */\n      0x20\n        /* \"#utility.yul\":9268:9271   */\n      dup3\n        /* \"#utility.yul\":9264:9278   */\n      add\n        /* \"#utility.yul\":9249:9278   */\n      swap1\n      pop\n        /* \"#utility.yul\":9125:9284   */\n      swap3\n      swap2\n      pop\n      pop\n      jump\t// out\n        /* \"#utility.yul\":9290:9429   */\n    tag_257:\n        /* \"#utility.yul\":9379:9385   */\n      dup3\n        /* \"#utility.yul\":9374:9377   */\n      dup2\n        /* \"#utility.yul\":9369:9372   */\n      dup4\n        /* \"#utility.yul\":9363:9386   */\n      mcopy\n        /* \"#utility.yul\":9420:9421   */\n      0x00\n        /* \"#utility.yul\":9411:9417   */\n      dup4\n        /* \"#utility.yul\":9406:9409   */\n      dup4\n        /* \"#utility.yul\":9402:9418   */\n      add\n        /* \"#utility.yul\":9395:9422   */\n      mstore\n        /* \"#utility.yul\":9290:9429   */\n      pop\n      pop\n      pop\n      jump\t// out\n        /* \"#utility.yul\":9435:9537   */\n    tag_258:\n        /* \"#utility.yul\":9476:9482   */\n      0x00\n        /* \"#utility.yul\":9527:9529   */\n      0x1f\n        /* \"#utility.yul\":9523:9530   */\n      not\n        /* \"#utility.yul\":9518:9520   */\n      0x1f\n        /* \"#utility.yul\":9511:9516   */\n      dup4\n        /* \"#utility.yul\":9507:9521   */\n      add\n        /* \"#utility.yul\":9503:9531   */\n      and\n        /* \"#utility.yul\":9493:9531   */\n      swap1\n      pop\n        /* \"#utility.yul\":9435:9537   */\n      swap2\n      swap1\n      pop\n      jump\t// out\n        /* \"#utility.yul\":9543:9900   */\n    tag_259:\n        /* \"#utility.yul\":9621:9624   */\n      0x00\n        /* \"#utility.yul\":9649:9688   */\n      tag_384\n        /* \"#utility.yul\":9682:9687   */\n      dup3\n        /* \"#utility.yul\":9649:9688   */\n      tag_255\n      jump\t// in\n    tag_384:\n        /* \"#utility.yul\":9704:9765   */\n      tag_385\n        /* \"#utility.yul\":9758:9764   */\n      dup2\n        /* \"#utility.yul\":9753:9756   */\n      dup6\n        /* \"#utility.yul\":9704:9765   */\n      tag_256\n      jump\t// in\n    tag_385:\n        /* \"#utility.yul\":9697:9765   */\n      swap4\n      pop\n        /* \"#utility.yul\":9774:9839   */\n      tag_386\n        /* \"#utility.yul\":9832:9838   */\n      dup2\n        /* \"#utility.yul\":9827:9830   */\n      dup6\n        /* \"#utility.yul\":9820:9824   */\n      0x20\n        /* \"#utility.yul\":9813:9818   */\n      dup7\n        /* \"#utility.yul\":9809:9825   */\n      add\n        /* \"#utility.yul\":9774:9839   */\n      tag_257\n      jump\t// in\n    tag_386:\n        /* \"#utility.yul\":9864:9893   */\n      tag_387\n        /* \"#utility.yul\":9886:9892   */\n      dup2\n        /* \"#utility.yul\":9864:9893   */\n      tag_258\n      jump\t// in\n    tag_387:\n        /* \"#utility.yul\":9859:9862   */\n      dup5\n        /* \"#utility.yul\":9855:9894   */\n      add\n        /* \"#utility.yul\":9848:9894   */\n      swap2\n      pop\n        /* \"#utility.yul\":9625:9900   */\n      pop\n        /* \"#utility.yul\":9543:9900   */\n      swap3\n      swap2\n      pop\n      pop\n      jump\t// out\n        /* \"#utility.yul\":9980:11311   */\n    tag_260:\n        /* \"#utility.yul\":10099:10102   */\n      0x00\n        /* \"#utility.yul\":10135:10139   */\n      0xc0\n        /* \"#utility.yul\":10130:10133   */\n      dup4\n        /* \"#utility.yul\":10126:10140   */\n      add\n        /* \"#utility.yul\":10229:10233   */\n      0x00\n        /* \"#utility.yul\":10222:10227   */\n      dup4\n        /* \"#utility.yul\":10218:10234   */\n      add\n        /* \"#utility.yul\":10212:10235   */\n      mload\n        /* \"#utility.yul\":10282:10285   */\n      dup5\n        /* \"#utility.yul\":10276:10280   */\n      dup3\n        /* \"#utility.yul\":10272:10286   */\n      sub\n        /* \"#utility.yul\":10265:10269   */\n      0x00\n        /* \"#utility.yul\":10260:10263   */\n      dup7\n        /* \"#utility.yul\":10256:10270   */\n      add\n        /* \"#utility.yul\":10249:10287   */\n      mstore\n        /* \"#utility.yul\":10308:10381   */\n      tag_389\n        /* \"#utility.yul\":10376:10380   */\n      dup3\n        /* \"#utility.yul\":10362:10374   */\n      dup3\n        /* \"#utility.yul\":10308:10381   */\n      tag_259\n      jump\t// in\n    tag_389:\n        /* \"#utility.yul\":10300:10381   */\n      swap2\n      pop\n        /* \"#utility.yul\":10150:10392   */\n      pop\n        /* \"#utility.yul\":10476:10480   */\n      0x20\n        /* \"#utility.yul\":10469:10474   */\n      dup4\n        /* \"#utility.yul\":10465:10481   */\n      add\n        /* \"#utility.yul\":10459:10482   */\n      mload\n        /* \"#utility.yul\":10495:10558   */\n      tag_390\n        /* \"#utility.yul\":10552:10556   */\n      0x20\n        /* \"#utility.yul\":10547:10550   */\n      dup7\n        /* \"#utility.yul\":10543:10557   */\n      add\n        /* \"#utility.yul\":10529:10541   */\n      dup3\n        /* \"#utility.yul\":10495:10558   */\n      tag_246\n      jump\t// in\n    tag_390:\n        /* \"#utility.yul\":10402:10568   */\n      pop\n        /* \"#utility.yul\":10660:10664   */\n      0x40\n        /* \"#utility.yul\":10653:10658   */\n      dup4\n        /* \"#utility.yul\":10649:10665   */\n      add\n        /* \"#utility.yul\":10643:10666   */\n      mload\n        /* \"#utility.yul\":10679:10742   */\n      tag_391\n        /* \"#utility.yul\":10736:10740   */\n      0x40\n        /* \"#utility.yul\":10731:10734   */\n      dup7\n        /* \"#utility.yul\":10727:10741   */\n      add\n        /* \"#utility.yul\":10713:10725   */\n      dup3\n        /* \"#utility.yul\":10679:10742   */\n      tag_246\n      jump\t// in\n    tag_391:\n        /* \"#utility.yul\":10578:10752   */\n      pop\n        /* \"#utility.yul\":10838:10842   */\n      0x60\n        /* \"#utility.yul\":10831:10836   */\n      dup4\n        /* \"#utility.yul\":10827:10843   */\n      add\n        /* \"#utility.yul\":10821:10844   */\n      mload\n        /* \"#utility.yul\":10857:10920   */\n      tag_392\n        /* \"#utility.yul\":10914:10918   */\n      0x60\n        /* \"#utility.yul\":10909:10912   */\n      dup7\n        /* \"#utility.yul\":10905:10919   */\n      add\n        /* \"#utility.yul\":10891:10903   */\n      dup3\n        /* \"#utility.yul\":10857:10920   */\n      tag_246\n      jump\t// in\n    tag_392:\n        /* \"#utility.yul\":10762:10930   */\n      pop\n        /* \"#utility.yul\":11020:11024   */\n      0x80\n        /* \"#utility.yul\":11013:11018   */\n      dup4\n        /* \"#utility.yul\":11009:11025   */\n      add\n        /* \"#utility.yul\":11003:11026   */\n      mload\n        /* \"#utility.yul\":11039:11102   */\n      tag_393\n        /* \"#utility.yul\":11096:11100   */\n      0x80\n        /* \"#utility.yul\":11091:11094   */\n      dup7\n        /* \"#utility.yul\":11087:11101   */\n      add\n        /* \"#utility.yul\":11073:11085   */\n      dup3\n        /* \"#utility.yul\":11039:11102   */\n      tag_246\n      jump\t// in\n    tag_393:\n        /* \"#utility.yul\":10940:11112   */\n      pop\n        /* \"#utility.yul\":11198:11202   */\n      0xa0\n        /* \"#utility.yul\":11191:11196   */\n      dup4\n        /* \"#utility.yul\":11187:11203   */\n      add\n        /* \"#utility.yul\":11181:11204   */\n      mload\n        /* \"#utility.yul\":11217:11274   */\n      tag_394\n        /* \"#utility.yul\":11268:11272   */\n      0xa0\n        /* \"#utility.yul\":11263:11266   */\n      dup7\n        /* \"#utility.yul\":11259:11273   */\n      add\n        /* \"#utility.yul\":11245:11257   */\n      dup3\n        /* \"#utility.yul\":11217:11274   */\n      tag_247\n      jump\t// in\n    tag_394:\n        /* \"#utility.yul\":11122:11284   */\n      pop\n        /* \"#utility.yul\":11301:11305   */\n      dup1\n        /* \"#utility.yul\":11294:11305   */\n      swap2\n      pop\n        /* \"#utility.yul\":10104:11311   */\n      pop\n        /* \"#utility.yul\":9980:11311   */\n      swap3\n      swap2\n      pop\n      pop\n      jump\t// out\n        /* \"#utility.yul\":11317:11690   */\n    tag_78:\n        /* \"#utility.yul\":11460:11464   */\n      0x00\n        /* \"#utility.yul\":11498:11500   */\n      0x20\n        /* \"#utility.yul\":11487:11496   */\n      dup3\n        /* \"#utility.yul\":11483:11501   */\n      add\n        /* \"#utility.yul\":11475:11501   */\n      swap1\n      pop\n        /* \"#utility.yul\":11547:11556   */\n      dup2\n        /* \"#utility.yul\":11541:11545   */\n      dup2\n        /* \"#utility.yul\":11537:11557   */\n      sub\n        /* \"#utility.yul\":11533:11534   */\n      0x00\n        /* \"#utility.yul\":11522:11531   */\n      dup4\n        /* \"#utility.yul\":11518:11535   */\n      add\n        /* \"#utility.yul\":11511:11558   */\n      mstore\n        /* \"#utility.yul\":11575:11683   */\n      tag_396\n        /* \"#utility.yul\":11678:11682   */\n      dup2\n        /* \"#utility.yul\":11669:11675   */\n      dup5\n        /* \"#utility.yul\":11575:11683   */\n      tag_260\n      jump\t// in\n    tag_396:\n        /* \"#utility.yul\":11567:11683   */\n      swap1\n      pop\n        /* \"#utility.yul\":11317:11690   */\n      swap3\n      swap2\n      pop\n      pop\n      jump\t// out\n        /* \"#utility.yul\":11696:11876   */\n    tag_261:\n        /* \"#utility.yul\":11744:11821   */\n      0x4e487b7100000000000000000000000000000000000000000000000000000000\n        /* \"#utility.yul\":11741:11742   */\n      0x00\n        /* \"#utility.yul\":11734:11822   */\n      mstore\n        /* \"#utility.yul\":11841:11845   */\n      0x11\n        /* \"#utility.yul\":11838:11839   */\n      0x04\n        /* \"#utility.yul\":11831:11846   */\n      mstore\n        /* \"#utility.yul\":11865:11869   */\n      0x24\n        /* \"#utility.yul\":11862:11863   */\n      0x00\n        /* \"#utility.yul\":11855:11870   */\n      revert\n        /* \"#utility.yul\":11882:12115   */\n    tag_99:\n        /* \"#utility.yul\":11921:11924   */\n      0x00\n        /* \"#utility.yul\":11944:11968   */\n      tag_399\n        /* \"#utility.yul\":11962:11967   */\n      dup3\n        /* \"#utility.yul\":11944:11968   */\n      tag_235\n      jump\t// in\n    tag_399:\n        /* \"#utility.yul\":11935:11968   */\n      swap2\n      pop\n        /* \"#utility.yul\":11990:12056   */\n      0xffffffffffffffffffffffffffffffffffffffffffffffffffffffffffffffff\n        /* \"#utility.yul\":11983:11988   */\n      dup3\n        /* \"#utility.yul\":11980:12057   */\n      sub\n        /* \"#utility.yul\":11977:12080   */\n      tag_400\n      jumpi\n        /* \"#utility.yul\":12060:12078   */\n      tag_401\n      tag_261\n      jump\t// in\n    tag_401:\n        /* \"#utility.yul\":11977:12080   */\n    tag_400:\n        /* \"#utility.yul\":12107:12108   */\n      0x01\n        /* \"#utility.yul\":12100:12105   */\n      dup3\n        /* \"#utility.yul\":12096:12109   */\n      add\n        /* \"#utility.yul\":12089:12109   */\n      swap1\n      pop\n        /* \"#utility.yul\":11882:12115   */\n      swap2\n      swap1\n      pop\n      jump\t// out\n        /* \"#utility.yul\":12121:12312   */\n    tag_101:\n        /* \"#utility.yul\":12161:12164   */\n      0x00\n        /* \"#utility.yul\":12180:12200   */\n      tag_403\n        /* \"#utility.yul\":12198:12199   */\n      dup3\n        /* \"#utility.yul\":12180:12200   */\n      tag_235\n      jump\t// in\n    tag_403:\n        /* \"#utility.yul\":12175:12200   */\n      swap2\n      pop\n        /* \"#utility.yul\":12214:12234   */\n      tag_404\n        /* \"#utility.yul\":12232:12233   */\n      dup4\n        /* \"#utility.yul\":12214:12234   */\n      tag_235\n      jump\t// in\n    tag_404:\n        /* \"#utility.yul\":12209:12234   */\n      swap3\n      pop\n        /* \"#utility.yul\":12257:12258   */\n      dup3\n        /* \"#utility.yul\":12254:12255   */\n      dup3\n        /* \"#utility.yul\":12250:12259   */\n      add\n        /* \"#utility.yul\":12243:12259   */\n      swap1\n      pop\n        /* \"#utility.yul\":12278:12281   */\n      dup1\n        /* \"#utility.yul\":12275:12276   */\n      dup3\n        /* \"#utility.yul\":12272:12282   */\n      gt\n        /* \"#utility.yul\":12269:12305   */\n      iszero\n      tag_405\n      jumpi\n        /* \"#utility.yul\":12285:12303   */\n      tag_406\n      tag_261\n      jump\t// in\n    tag_406:\n        /* \"#utility.yul\":12269:12305   */\n    tag_405:\n        /* \"#utility.yul\":12121:12312   */\n      swap3\n      swap2\n      pop\n      pop\n      jump\t// out\n        /* \"#utility.yul\":12318:12650   */\n    tag_103:\n        /* \"#utility.yul\":12439:12443   */\n      0x00\n        /* \"#utility.yul\":12477:12479   */\n      0x40\n        /* \"#utility.yul\":12466:12475   */\n      dup3\n        /* \"#utility.yul\":12462:12480   */\n      add\n        /* \"#utility.yul\":12454:12480   */\n      swap1\n      pop\n        /* \"#utility.yul\":12490:12561   */\n      tag_408\n        /* \"#utility.yul\":12558:12559   */\n      0x00\n        /* \"#utility.yul\":12547:12556   */\n      dup4\n        /* \"#utility.yul\":12543:12560   */\n      add\n        /* \"#utility.yul\":12534:12540   */\n      dup6\n        /* \"#utility.yul\":12490:12561   */\n      tag_244\n      jump\t// in\n    tag_408:\n        /* \"#utility.yul\":12571:12643   */\n      tag_409\n        /* \"#utility.yul\":12639:12641   */\n      0x20\n        /* \"#utility.yul\":12628:12637   */\n      dup4\n        /* \"#utility.yul\":12624:12642   */\n      add\n        /* \"#utility.yul\":12615:12621   */\n      dup5\n        /* \"#utility.yul\":12571:12643   */\n      tag_244\n      jump\t// in\n    tag_409:\n        /* \"#utility.yul\":12318:12650   */\n      swap4\n      swap3\n      pop\n      pop\n      pop\n      jump\t// out\n        /* \"#utility.yul\":12656:12850   */\n    tag_119:\n        /* \"#utility.yul\":12696:12700   */\n      0x00\n        /* \"#utility.yul\":12716:12736   */\n      tag_411\n        /* \"#utility.yul\":12734:12735   */\n      dup3\n        /* \"#utility.yul\":12716:12736   */\n      tag_235\n      jump\t// in\n    tag_411:\n        /* \"#utility.yul\":12711:12736   */\n      swap2\n      pop\n        /* \"#utility.yul\":12750:12770   */\n      tag_412\n        /* \"#utility.yul\":12768:12769   */\n      dup4\n        /* \"#utility.yul\":12750:12770   */\n      tag_235\n      jump\t// in\n    tag_412:\n        /* \"#utility.yul\":12745:12770   */\n      swap3\n      pop\n        /* \"#utility.yul\":12794:12795   */\n      dup3\n        /* \"#utility.yul\":12791:12792   */\n      dup3\n        /* \"#utility.yul\":12787:12796   */\n      sub\n        /* \"#utility.yul\":12779:12796   */\n      swap1\n      pop\n        /* \"#utility.yul\":12818:12819   */\n      dup2\n        /* \"#utility.yul\":12812:12816   */\n      dup2\n        /* \"#utility.yul\":12809:12820   */\n      gt\n        /* \"#utility.yul\":12806:12843   */\n      iszero\n      tag_413\n      jumpi\n        /* \"#utility.yul\":12823:12841   */\n      tag_414\n      tag_261\n      jump\t// in\n    tag_414:\n        /* \"#utility.yul\":12806:12843   */\n    tag_413:\n        /* \"#utility.yul\":12656:12850   */\n      swap3\n      swap2\n      pop\n      pop\n      jump\t// out\n        /* \"#utility.yul\":12856:13003   */\n    tag_262:\n        /* \"#utility.yul\":12957:12968   */\n      0x00\n        /* \"#utility.yul\":12994:12997   */\n      dup2\n        /* \"#utility.yul\":12979:12997   */\n      swap1\n      pop\n        /* \"#utility.yul\":12856:13003   */\n      swap3\n      swap2\n      pop\n      pop\n      jump\t// out\n        /* \"#utility.yul\":13009:13123   */\n    tag_263:\n      pop\n      jump\t// out\n        /* \"#utility.yul\":13129:13527   */\n    tag_264:\n        /* \"#utility.yul\":13288:13291   */\n      0x00\n        /* \"#utility.yul\":13309:13392   */\n      tag_418\n        /* \"#utility.yul\":13390:13391   */\n      0x00\n        /* \"#utility.yul\":13385:13388   */\n      dup4\n        /* \"#utility.yul\":13309:13392   */\n      tag_262\n      jump\t// in\n    tag_418:\n        /* \"#utility.yul\":13302:13392   */\n      swap2\n      pop\n        /* \"#utility.yul\":13401:13494   */\n      tag_419\n        /* \"#utility.yul\":13490:13493   */\n      dup3\n        /* \"#utility.yul\":13401:13494   */\n      tag_263\n      jump\t// in\n    tag_419:\n        /* \"#utility.yul\":13519:13520   */\n      0x00\n        /* \"#utility.yul\":13514:13517   */\n      dup3\n        /* \"#utility.yul\":13510:13521   */\n      add\n        /* \"#utility.yul\":13503:13521   */\n      swap1\n      pop\n        /* \"#utility.yul\":13129:13527   */\n      swap2\n      swap1\n      pop\n      jump\t// out\n        /* \"#utility.yul\":13533:13912   */\n    tag_121:\n        /* \"#utility.yul\":13717:13720   */\n      0x00\n        /* \"#utility.yul\":13739:13886   */\n      tag_421\n        /* \"#utility.yul\":13882:13885   */\n      dup3\n        /* \"#utility.yul\":13739:13886   */\n      tag_264\n      jump\t// in\n    tag_421:\n        /* \"#utility.yul\":13732:13886   */\n      swap2\n      pop\n        /* \"#utility.yul\":13903:13906   */\n      dup2\n        /* \"#utility.yul\":13896:13906   */\n      swap1\n      pop\n        /* \"#utility.yul\":13533:13912   */\n      swap2\n      swap1\n      pop\n      jump\t// out\n        /* \"#utility.yul\":13918:14098   */\n    tag_265:\n        /* \"#utility.yul\":13966:14043   */\n      0x4e487b7100000000000000000000000000000000000000000000000000000000\n        /* \"#utility.yul\":13963:13964   */\n      0x00\n        /* \"#utility.yul\":13956:14044   */\n      mstore\n        /* \"#utility.yul\":14063:14067   */\n      0x41\n        /* \"#utility.yul\":14060:14061   */\n      0x04\n        /* \"#utility.yul\":14053:14068   */\n      mstore\n        /* \"#utility.yul\":14087:14091   */\n      0x24\n        /* \"#utility.yul\":14084:14085   */\n      0x00\n        /* \"#utility.yul\":14077:14092   */\n      revert\n        /* \"#utility.yul\":14104:14284   */\n    tag_266:\n        /* \"#utility.yul\":14152:14229   */\n      0x4e487b7100000000000000000000000000000000000000000000000000000000\n        /* \"#utility.yul\":14149:14150   */\n      0x00\n        /* \"#utility.yul\":14142:14230   */\n      mstore\n        /* \"#utility.yul\":14249:14253   */\n      0x22\n        /* \"#utility.yul\":14246:14247   */\n      0x04\n        /* \"#utility.yul\":14239:14254   */\n      mstore\n        /* \"#utility.yul\":14273:14277   */\n      0x24\n        /* \"#utility.yul\":14270:14271   */\n      0x00\n        /* \"#utility.yul\":14263:14278   */\n      revert\n        /* \"#utility.yul\":14290:14610   */\n    tag_171:\n        /* \"#utility.yul\":14334:14340   */\n      0x00\n        /* \"#utility.yul\":14371:14372   */\n      0x02\n        /* \"#utility.yul\":14365:14369   */\n      dup3\n        /* \"#utility.yul\":14361:14373   */\n      div\n        /* \"#utility.yul\":14351:14373   */\n      swap1\n      pop\n        /* \"#utility.yul\":14418:14419   */\n      0x01\n        /* \"#utility.yul\":14412:14416   */\n      dup3\n        /* \"#utility.yul\":14408:14420   */\n      and\n        /* \"#utility.yul\":14439:14457   */\n      dup1\n        /* \"#utility.yul\":14429:14510   */\n      tag_425\n      jumpi\n        /* \"#utility.yul\":14495:14499   */\n      0x7f\n        /* \"#utility.yul\":14487:14493   */\n      dup3\n        /* \"#utility.yul\":14483:14500   */\n      and\n        /* \"#utility.yul\":14473:14500   */\n      swap2\n      pop\n        /* \"#utility.yul\":14429:14510   */\n    tag_425:\n        /* \"#utility.yul\":14557:14559   */\n      0x20\n        /* \"#utility.yul\":14549:14555   */\n      dup3\n        /* \"#utility.yul\":14546:14560   */\n      lt\n        /* \"#utility.yul\":14526:14544   */\n      dup2\n        /* \"#utility.yul\":14523:14561   */\n      sub\n        /* \"#utility.yul\":14520:14604   */\n      tag_426\n      jumpi\n        /* \"#utility.yul\":14576:14594   */\n      tag_427\n      tag_266\n      jump\t// in\n    tag_427:\n        /* \"#utility.yul\":14520:14604   */\n    tag_426:\n        /* \"#utility.yul\":14341:14610   */\n      pop\n        /* \"#utility.yul\":14290:14610   */\n      swap2\n      swap1\n      pop\n      jump\t// out\n        /* \"#utility.yul\":14616:14757   */\n    tag_267:\n        /* \"#utility.yul\":14665:14669   */\n      0x00\n        /* \"#utility.yul\":14688:14691   */\n      dup2\n        /* \"#utility.yul\":14680:14691   */\n      swap1\n      pop\n        /* \"#utility.yul\":14711:14714   */\n      dup2\n        /* \"#utility.yul\":14708:14709   */\n      0x00\n        /* \"#utility.yul\":14701:14715   */\n      mstore\n        /* \"#utility.yul\":14745:14749   */\n      0x20\n        /* \"#utility.yul\":14742:14743   */\n      0x00\n        /* \"#utility.yul\":14732:14750   */\n      keccak256\n        /* \"#utility.yul\":14724:14750   */\n      swap1\n      pop\n        /* \"#utility.yul\":14616:14757   */\n      swap2\n      swap1\n      pop\n      jump\t// out\n        /* \"#utility.yul\":14763:14856   */\n    tag_268:\n        /* \"#utility.yul\":14800:14806   */\n      0x00\n        /* \"#utility.yul\":14847:14849   */\n      0x20\n        /* \"#utility.yul\":14842:14844   */\n      0x1f\n        /* \"#utility.yul\":14835:14840   */\n      dup4\n        /* \"#utility.yul\":14831:14845   */\n      add\n        /* \"#utility.yul\":14827:14850   */\n      div\n        /* \"#utility.yul\":14817:14850   */\n      swap1\n      pop\n        /* \"#utility.yul\":14763:14856   */\n      swap2\n      swap1\n      pop\n      jump\t// out\n        /* \"#utility.yul\":14862:14969   */\n    tag_269:\n        /* \"#utility.yul\":14906:14914   */\n      0x00\n        /* \"#utility.yul\":14956:14961   */\n      dup3\n        /* \"#utility.yul\":14950:14954   */\n      dup3\n        /* \"#utility.yul\":14946:14962   */\n      shl\n        /* \"#utility.yul\":14925:14962   */\n      swap1\n      pop\n        /* \"#utility.yul\":14862:14969   */\n      swap3\n      swap2\n      pop\n      pop\n      jump\t// out\n        /* \"#utility.yul\":14975:15368   */\n    tag_270:\n        /* \"#utility.yul\":15044:15050   */\n      0x00\n        /* \"#utility.yul\":15094:15095   */\n      0x08\n        /* \"#utility.yul\":15082:15092   */\n      dup4\n        /* \"#utility.yul\":15078:15096   */\n      mul\n        /* \"#utility.yul\":15117:15214   */\n      tag_432\n        /* \"#utility.yul\":15147:15213   */\n      0xffffffffffffffffffffffffffffffffffffffffffffffffffffffffffffffff\n        /* \"#utility.yul\":15136:15145   */\n      dup3\n        /* \"#utility.yul\":15117:15214   */\n      tag_269\n      jump\t// in\n    tag_432:\n        /* \"#utility.yul\":15235:15274   */\n      tag_433\n        /* \"#utility.yul\":15265:15273   */\n      dup7\n        /* \"#utility.yul\":15254:15263   */\n      dup4\n        /* \"#utility.yul\":15235:15274   */\n      tag_269\n      jump\t// in\n    tag_433:\n        /* \"#utility.yul\":15223:15274   */\n      swap6\n      pop\n        /* \"#utility.yul\":15307:15311   */\n      dup1\n        /* \"#utility.yul\":15303:15312   */\n      not\n        /* \"#utility.yul\":15296:15301   */\n      dup5\n        /* \"#utility.yul\":15292:15313   */\n      and\n        /* \"#utility.yul\":15283:15313   */\n      swap4\n      pop\n        /* \"#utility.yul\":15356:15360   */\n      dup1\n        /* \"#utility.yul\":15346:15354   */\n      dup7\n        /* \"#utility.yul\":15342:15361   */\n      and\n        /* \"#utility.yul\":15335:15340   */\n      dup5\n        /* \"#utility.yul\":15332:15362   */\n      or\n        /* \"#utility.yul\":15322:15362   */\n      swap3\n      pop\n        /* \"#utility.yul\":15051:15368   */\n      pop\n      pop\n        /* \"#utility.yul\":14975:15368   */\n      swap4\n      swap3\n      pop\n      pop\n      pop\n      jump\t// out\n        /* \"#utility.yul\":15374:15434   */\n    tag_271:\n        /* \"#utility.yul\":15402:15405   */\n      0x00\n        /* \"#utility.yul\":15423:15428   */\n      dup2\n        /* \"#utility.yul\":15416:15428   */\n      swap1\n      pop\n        /* \"#utility.yul\":15374:15434   */\n      swap2\n      swap1\n      pop\n      jump\t// out\n        /* \"#utility.yul\":15440:15582   */\n    tag_272:\n        /* \"#utility.yul\":15490:15499   */\n      0x00\n        /* \"#utility.yul\":15523:15576   */\n      tag_436\n        /* \"#utility.yul\":15541:15575   */\n      tag_437\n        /* \"#utility.yul\":15550:15574   */\n      tag_438\n        /* \"#utility.yul\":15568:15573   */\n      dup5\n        /* \"#utility.yul\":15550:15574   */\n      tag_235\n      jump\t// in\n    tag_438:\n        /* \"#utility.yul\":15541:15575   */\n      tag_271\n      jump\t// in\n    tag_437:\n        /* \"#utility.yul\":15523:15576   */\n      tag_235\n      jump\t// in\n    tag_436:\n        /* \"#utility.yul\":15510:15576   */\n      swap1\n      pop\n        /* \"#utility.yul\":15440:15582   */\n      swap2\n      swap1\n      pop\n      jump\t// out\n        /* \"#utility.yul\":15588:15663   */\n    tag_273:\n        /* \"#utility.yul\":15631:15634   */\n      0x00\n        /* \"#utility.yul\":15652:15657   */\n      dup2\n        /* \"#utility.yul\":15645:15657   */\n      swap1\n      pop\n        /* \"#utility.yul\":15588:15663   */\n      swap2\n      swap1\n      pop\n      jump\t// out\n        /* \"#utility.yul\":15669:15938   */\n    tag_274:\n        /* \"#utility.yul\":15779:15818   */\n      tag_441\n        /* \"#utility.yul\":15810:15817   */\n      dup4\n        /* \"#utility.yul\":15779:15818   */\n      tag_272\n      jump\t// in\n    tag_441:\n        /* \"#utility.yul\":15840:15931   */\n      tag_442\n        /* \"#utility.yul\":15889:15930   */\n      tag_443\n        /* \"#utility.yul\":15913:15929   */\n      dup3\n        /* \"#utility.yul\":15889:15930   */\n      tag_273\n      jump\t// in\n    tag_443:\n        /* \"#utility.yul\":15881:15887   */\n      dup5\n        /* \"#utility.yul\":15874:15878   */\n      dup5\n        /* \"#utility.yul\":15868:15879   */\n      sload\n        /* \"#utility.yul\":15840:15931   */\n      tag_270\n      jump\t// in\n    tag_442:\n        /* \"#utility.yul\":15834:15838   */\n      dup3\n        /* \"#utility.yul\":15827:15932   */\n      sstore\n        /* \"#utility.yul\":15745:15938   */\n      pop\n        /* \"#utility.yul\":15669:15938   */\n      pop\n      pop\n      pop\n      jump\t// out\n        /* \"#utility.yul\":15944:16017   */\n    tag_275:\n        /* \"#utility.yul\":15989:15992   */\n      0x00\n        /* \"#utility.yul\":16010:16011   */\n      0x00\n        /* \"#utility.yul\":16003:16011   */\n      swap1\n      pop\n        /* \"#utility.yul\":15944:16017   */\n      swap1\n      jump\t// out\n        /* \"#utility.yul\":16023:16212   */\n    tag_276:\n        /* \"#utility.yul\":16100:16132   */\n      tag_446\n      tag_275\n      jump\t// in\n    tag_446:\n        /* \"#utility.yul\":16141:16206   */\n      tag_447\n        /* \"#utility.yul\":16199:16205   */\n      dup2\n        /* \"#utility.yul\":16191:16197   */\n      dup5\n        /* \"#utility.yul\":16185:16189   */\n      dup5\n        /* \"#utility.yul\":16141:16206   */\n      tag_274\n      jump\t// in\n    tag_447:\n        /* \"#utility.yul\":16076:16212   */\n      pop\n        /* \"#utility.yul\":16023:16212   */\n      pop\n      pop\n      jump\t// out\n        /* \"#utility.yul\":16218:16404   */\n    tag_277:\n        /* \"#utility.yul\":16278:16398   */\n    tag_449:\n        /* \"#utility.yul\":16295:16298   */\n      dup2\n        /* \"#utility.yul\":16288:16293   */\n      dup2\n        /* \"#utility.yul\":16285:16299   */\n      lt\n        /* \"#utility.yul\":16278:16398   */\n      iszero\n      tag_451\n      jumpi\n        /* \"#utility.yul\":16349:16388   */\n      tag_452\n        /* \"#utility.yul\":16386:16387   */\n      0x00\n        /* \"#utility.yul\":16379:16384   */\n      dup3\n        /* \"#utility.yul\":16349:16388   */\n      tag_276\n      jump\t// in\n    tag_452:\n        /* \"#utility.yul\":16322:16323   */\n      0x01\n        /* \"#utility.yul\":16315:16320   */\n      dup2\n        /* \"#utility.yul\":16311:16324   */\n      add\n        /* \"#utility.yul\":16302:16324   */\n      swap1\n      pop\n        /* \"#utility.yul\":16278:16398   */\n      jump(tag_449)\n    tag_451:\n        /* \"#utility.yul\":16218:16404   */\n      pop\n      pop\n      jump\t// out\n        /* \"#utility.yul\":16410:16953   */\n    tag_278:\n        /* \"#utility.yul\":16511:16513   */\n      0x1f\n        /* \"#utility.yul\":16506:16509   */\n      dup3\n        /* \"#utility.yul\":16503:16514   */\n      gt\n        /* \"#utility.yul\":16500:16946   */\n      iszero\n      tag_454\n      jumpi\n        /* \"#utility.yul\":16545:16583   */\n      tag_455\n        /* \"#utility.yul\":16577:16582   */\n      dup2\n        /* \"#utility.yul\":16545:16583   */\n      tag_267\n      jump\t// in\n    tag_455:\n        /* \"#utility.yul\":16629:16658   */\n      tag_456\n        /* \"#utility.yul\":16647:16657   */\n      dup5\n        /* \"#utility.yul\":16629:16658   */\n      tag_268\n      jump\t// in\n    tag_456:\n        /* \"#utility.yul\":16619:16627   */\n      dup2\n        /* \"#utility.yul\":16615:16659   */\n      add\n        /* \"#utility.yul\":16812:16814   */\n      0x20\n        /* \"#utility.yul\":16800:16810   */\n      dup6\n        /* \"#utility.yul\":16797:16815   */\n      lt\n        /* \"#utility.yul\":16794:16843   */\n      iszero\n      tag_457\n      jumpi\n        /* \"#utility.yul\":16833:16841   */\n      dup2\n        /* \"#utility.yul\":16818:16841   */\n      swap1\n      pop\n        /* \"#utility.yul\":16794:16843   */\n    tag_457:\n        /* \"#utility.yul\":16856:16936   */\n      tag_458\n        /* \"#utility.yul\":16912:16934   */\n      tag_459\n        /* \"#utility.yul\":16930:16933   */\n      dup6\n        /* \"#utility.yul\":16912:16934   */\n      tag_268\n      jump\t// in\n    tag_459:\n        /* \"#utility.yul\":16902:16910   */\n      dup4\n        /* \"#utility.yul\":16898:16935   */\n      add\n        /* \"#utility.yul\":16885:16896   */\n      dup3\n        /* \"#utility.yul\":16856:16936   */\n      tag_277\n      jump\t// in\n    tag_458:\n        /* \"#utility.yul\":16515:16946   */\n      pop\n      pop\n        /* \"#utility.yul\":16500:16946   */\n    tag_454:\n        /* \"#utility.yul\":16410:16953   */\n      pop\n      pop\n      pop\n      jump\t// out\n        /* \"#utility.yul\":16959:17076   */\n    tag_279:\n        /* \"#utility.yul\":17013:17021   */\n      0x00\n        /* \"#utility.yul\":17063:17068   */\n      dup3\n        /* \"#utility.yul\":17057:17061   */\n      dup3\n        /* \"#utility.yul\":17053:17069   */\n      shr\n        /* \"#utility.yul\":17032:17069   */\n      swap1\n      pop\n        /* \"#utility.yul\":16959:17076   */\n      swap3\n      swap2\n      pop\n      pop\n      jump\t// out\n        /* \"#utility.yul\":17082:17251   */\n    tag_280:\n        /* \"#utility.yul\":17126:17132   */\n      0x00\n        /* \"#utility.yul\":17159:17210   */\n      tag_462\n        /* \"#utility.yul\":17207:17208   */\n      0x00\n        /* \"#utility.yul\":17203:17209   */\n      not\n        /* \"#utility.yul\":17195:17200   */\n      dup5\n        /* \"#utility.yul\":17192:17193   */\n      0x08\n        /* \"#utility.yul\":17188:17201   */\n      mul\n        /* \"#utility.yul\":17159:17210   */\n      tag_279\n      jump\t// in\n    tag_462:\n        /* \"#utility.yul\":17155:17211   */\n      not\n        /* \"#utility.yul\":17240:17244   */\n      dup1\n        /* \"#utility.yul\":17234:17238   */\n      dup4\n        /* \"#utility.yul\":17230:17245   */\n      and\n        /* \"#utility.yul\":17220:17245   */\n      swap2\n      pop\n        /* \"#utility.yul\":17133:17251   */\n      pop\n        /* \"#utility.yul\":17082:17251   */\n      swap3\n      swap2\n      pop\n      pop\n      jump\t// out\n        /* \"#utility.yul\":17256:17551   */\n    tag_281:\n        /* \"#utility.yul\":17332:17336   */\n      0x00\n        /* \"#utility.yul\":17478:17507   */\n      tag_464\n        /* \"#utility.yul\":17503:17506   */\n      dup4\n        /* \"#utility.yul\":17497:17501   */\n      dup4\n        /* \"#utility.yul\":17478:17507   */\n      tag_280\n      jump\t// in\n    tag_464:\n        /* \"#utility.yul\":17470:17507   */\n      swap2\n      pop\n        /* \"#utility.yul\":17540:17543   */\n      dup3\n        /* \"#utility.yul\":17537:17538   */\n      0x02\n        /* \"#utility.yul\":17533:17544   */\n      mul\n        /* \"#utility.yul\":17527:17531   */\n      dup3\n        /* \"#utility.yul\":17524:17545   */\n      or\n        /* \"#utility.yul\":17516:17545   */\n      swap1\n      pop\n        /* \"#utility.yul\":17256:17551   */\n      swap3\n      swap2\n      pop\n      pop\n      jump\t// out\n        /* \"#utility.yul\":17556:18951   */\n    tag_142:\n        /* \"#utility.yul\":17673:17710   */\n      tag_466\n        /* \"#utility.yul\":17706:17709   */\n      dup3\n        /* \"#utility.yul\":17673:17710   */\n      tag_255\n      jump\t// in\n    tag_466:\n        /* \"#utility.yul\":17775:17793   */\n      0xffffffffffffffff\n        /* \"#utility.yul\":17767:17773   */\n      dup2\n        /* \"#utility.yul\":17764:17794   */\n      gt\n        /* \"#utility.yul\":17761:17817   */\n      iszero\n      tag_467\n      jumpi\n        /* \"#utility.yul\":17797:17815   */\n      tag_468\n      tag_265\n      jump\t// in\n    tag_468:\n        /* \"#utility.yul\":17761:17817   */\n    tag_467:\n        /* \"#utility.yul\":17841:17879   */\n      tag_469\n        /* \"#utility.yul\":17873:17877   */\n      dup3\n        /* \"#utility.yul\":17867:17878   */\n      sload\n        /* \"#utility.yul\":17841:17879   */\n      tag_171\n      jump\t// in\n    tag_469:\n        /* \"#utility.yul\":17926:17993   */\n      tag_470\n        /* \"#utility.yul\":17986:17992   */\n      dup3\n        /* \"#utility.yul\":17978:17984   */\n      dup3\n        /* \"#utility.yul\":17972:17976   */\n      dup6\n        /* \"#utility.yul\":17926:17993   */\n      tag_278\n      jump\t// in\n    tag_470:\n        /* \"#utility.yul\":18020:18021   */\n      0x00\n        /* \"#utility.yul\":18044:18048   */\n      0x20\n        /* \"#utility.yul\":18031:18048   */\n      swap1\n      pop\n        /* \"#utility.yul\":18076:18078   */\n      0x1f\n        /* \"#utility.yul\":18068:18074   */\n      dup4\n        /* \"#utility.yul\":18065:18079   */\n      gt\n        /* \"#utility.yul\":18093:18094   */\n      0x01\n        /* \"#utility.yul\":18088:18706   */\n      dup2\n      eq\n      tag_472\n      jumpi\n        /* \"#utility.yul\":18750:18751   */\n      0x00\n        /* \"#utility.yul\":18767:18773   */\n      dup5\n        /* \"#utility.yul\":18764:18841   */\n      iszero\n      tag_473\n      jumpi\n        /* \"#utility.yul\":18816:18825   */\n      dup3\n        /* \"#utility.yul\":18811:18814   */\n      dup8\n        /* \"#utility.yul\":18807:18826   */\n      add\n        /* \"#utility.yul\":18801:18827   */\n      mload\n        /* \"#utility.yul\":18792:18827   */\n      swap1\n      pop\n        /* \"#utility.yul\":18764:18841   */\n    tag_473:\n        /* \"#utility.yul\":18867:18934   */\n      tag_474\n        /* \"#utility.yul\":18927:18933   */\n      dup6\n        /* \"#utility.yul\":18920:18925   */\n      dup3\n        /* \"#utility.yul\":18867:18934   */\n      tag_281\n      jump\t// in\n    tag_474:\n        /* \"#utility.yul\":18861:18865   */\n      dup7\n        /* \"#utility.yul\":18854:18935   */\n      sstore\n        /* \"#utility.yul\":18723:18945   */\n      pop\n        /* \"#utility.yul\":18058:18945   */\n      jump(tag_471)\n        /* \"#utility.yul\":18088:18706   */\n    tag_472:\n        /* \"#utility.yul\":18140:18144   */\n      0x1f\n        /* \"#utility.yul\":18136:18145   */\n      not\n        /* \"#utility.yul\":18128:18134   */\n      dup5\n        /* \"#utility.yul\":18124:18146   */\n      and\n        /* \"#utility.yul\":18174:18211   */\n      tag_475\n        /* \"#utility.yul\":18206:18210   */\n      dup7\n        /* \"#utility.yul\":18174:18211   */\n      tag_267\n      jump\t// in\n    tag_475:\n        /* \"#utility.yul\":18233:18234   */\n      0x00\n        /* \"#utility.yul\":18247:18455   */\n    tag_476:\n        /* \"#utility.yul\":18261:18268   */\n      dup3\n        /* \"#utility.yul\":18258:18259   */\n      dup2\n        /* \"#utility.yul\":18255:18269   */\n      lt\n        /* \"#utility.yul\":18247:18455   */\n      iszero\n      tag_478\n      jumpi\n        /* \"#utility.yul\":18340:18349   */\n      dup5\n        /* \"#utility.yul\":18335:18338   */\n      dup10\n        /* \"#utility.yul\":18331:18350   */\n      add\n        /* \"#utility.yul\":18325:18351   */\n      mload\n        /* \"#utility.yul\":18317:18323   */\n      dup3\n        /* \"#utility.yul\":18310:18352   */\n      sstore\n        /* \"#utility.yul\":18391:18392   */\n      0x01\n        /* \"#utility.yul\":18383:18389   */\n      dup3\n        /* \"#utility.yul\":18379:18393   */\n      add\n        /* \"#utility.yul\":18369:18393   */\n      swap2\n      pop\n        /* \"#utility.yul\":18438:18440   */\n      0x20\n        /* \"#utility.yul\":18427:18436   */\n      dup6\n        /* \"#utility.yul\":18423:18441   */\n      add\n        /* \"#utility.yul\":18410:18441   */\n      swap5\n      pop\n        /* \"#utility.yul\":18284:18288   */\n      0x20\n        /* \"#utility.yul\":18281:18282   */\n      dup2\n        /* \"#utility.yul\":18277:18289   */\n      add\n        /* \"#utility.yul\":18272:18289   */\n      swap1\n      pop\n        /* \"#utility.yul\":18247:18455   */\n      jump(tag_476)\n    tag_478:\n        /* \"#utility.yul\":18483:18489   */\n      dup7\n        /* \"#utility.yul\":18474:18481   */\n      dup4\n        /* \"#utility.yul\":18471:18490   */\n      lt\n        /* \"#utility.yul\":18468:18647   */\n      iszero\n      tag_479\n      jumpi\n        /* \"#utility.yul\":18541:18550   */\n      dup5\n        /* \"#utility.yul\":18536:18539   */\n      dup10\n        /* \"#utility.yul\":18532:18551   */\n      add\n        /* \"#utility.yul\":18526:18552   */\n      mload\n        /* \"#utility.yul\":18584:18632   */\n      tag_480\n        /* \"#utility.yul\":18626:18630   */\n      0x1f\n        /* \"#utility.yul\":18618:18624   */\n      dup10\n        /* \"#utility.yul\":18614:18631   */\n      and\n        /* \"#utility.yul\":18603:18612   */\n      dup3\n        /* \"#utility.yul\":18584:18632   */\n      tag_280\n      jump\t// in\n    tag_480:\n        /* \"#utility.yul\":18576:18582   */\n      dup4\n        /* \"#utility.yul\":18569:18633   */\n      sstore\n        /* \"#utility.yul\":18491:18647   */\n      pop\n        /* \"#utility.yul\":18468:18647   */\n    tag_479:\n        /* \"#utility.yul\":18693:18694   */\n      0x01\n        /* \"#utility.yul\":18689:18690   */\n      0x02\n        /* \"#utility.yul\":18681:18687   */\n      dup9\n        /* \"#utility.yul\":18677:18691   */\n      mul\n        /* \"#utility.yul\":18673:18695   */\n      add\n        /* \"#utility.yul\":18667:18671   */\n      dup9\n        /* \"#utility.yul\":18660:18696   */\n      sstore\n        /* \"#utility.yul\":18095:18706   */\n      pop\n      pop\n      pop\n        /* \"#utility.yul\":18058:18945   */\n    tag_471:\n      pop\n        /* \"#utility.yul\":17648:18951   */\n      pop\n      pop\n      pop\n        /* \"#utility.yul\":17556:18951   */\n      pop\n      pop\n      jump\t// out\n        /* \"#utility.yul\":18957:19126   */\n    tag_282:\n        /* \"#utility.yul\":19041:19052   */\n      0x00\n        /* \"#utility.yul\":19075:19081   */\n      dup3\n        /* \"#utility.yul\":19070:19073   */\n      dup3\n        /* \"#utility.yul\":19063:19082   */\n      mstore\n        /* \"#utility.yul\":19115:19119   */\n      0x20\n        /* \"#utility.yul\":19110:19113   */\n      dup3\n        /* \"#utility.yul\":19106:19120   */\n      add\n        /* \"#utility.yul\":19091:19120   */\n      swap1\n      pop\n        /* \"#utility.yul\":18957:19126   */\n      swap3\n      swap2\n      pop\n      pop\n      jump\t// out\n        /* \"#utility.yul\":19132:19280   */\n    tag_283:\n        /* \"#utility.yul\":19230:19236   */\n      dup3\n        /* \"#utility.yul\":19225:19228   */\n      dup2\n        /* \"#utility.yul\":19220:19223   */\n      dup4\n        /* \"#utility.yul\":19207:19237   */\n      calldatacopy\n        /* \"#utility.yul\":19271:19272   */\n      0x00\n        /* \"#utility.yul\":19262:19268   */\n      dup4\n        /* \"#utility.yul\":19257:19260   */\n      dup4\n        /* \"#utility.yul\":19253:19269   */\n      add\n        /* \"#utility.yul\":19246:19273   */\n      mstore\n        /* \"#utility.yul\":19132:19280   */\n      pop\n      pop\n      pop\n      jump\t// out\n        /* \"#utility.yul\":19310:19627   */\n    tag_284:\n        /* \"#utility.yul\":19408:19411   */\n      0x00\n        /* \"#utility.yul\":19429:19500   */\n      tag_484\n        /* \"#utility.yul\":19493:19499   */\n      dup4\n        /* \"#utility.yul\":19488:19491   */\n      dup6\n        /* \"#utility.yul\":19429:19500   */\n      tag_282\n      jump\t// in\n    tag_484:\n        /* \"#utility.yul\":19422:19500   */\n      swap4\n      pop\n        /* \"#utility.yul\":19510:19566   */\n      tag_485\n        /* \"#utility.yul\":19559:19565   */\n      dup4\n        /* \"#utility.yul\":19554:19557   */\n      dup6\n        /* \"#utility.yul\":19547:19552   */\n      dup5\n        /* \"#utility.yul\":19510:19566   */\n      tag_283\n      jump\t// in\n    tag_485:\n        /* \"#utility.yul\":19591:19620   */\n      tag_486\n        /* \"#utility.yul\":19613:19619   */\n      dup4\n        /* \"#utility.yul\":19591:19620   */\n      tag_258\n      jump\t// in\n    tag_486:\n        /* \"#utility.yul\":19586:19589   */\n      dup5\n        /* \"#utility.yul\":19582:19621   */\n      add\n        /* \"#utility.yul\":19575:19621   */\n      swap1\n      pop\n        /* \"#utility.yul\":19310:19627   */\n      swap4\n      swap3\n      pop\n      pop\n      pop\n      jump\t// out\n        /* \"#utility.yul\":19633:20186   */\n    tag_144:\n        /* \"#utility.yul\":19812:19816   */\n      0x00\n        /* \"#utility.yul\":19850:19852   */\n      0x60\n        /* \"#utility.yul\":19839:19848   */\n      dup3\n        /* \"#utility.yul\":19835:19853   */\n      add\n        /* \"#utility.yul\":19827:19853   */\n      swap1\n      pop\n        /* \"#utility.yul\":19863:19934   */\n      tag_488\n        /* \"#utility.yul\":19931:19932   */\n      0x00\n        /* \"#utility.yul\":19920:19929   */\n      dup4\n        /* \"#utility.yul\":19916:19933   */\n      add\n        /* \"#utility.yul\":19907:19913   */\n      dup8\n        /* \"#utility.yul\":19863:19934   */\n      tag_244\n      jump\t// in\n    tag_488:\n        /* \"#utility.yul\":19944:20016   */\n      tag_489\n        /* \"#utility.yul\":20012:20014   */\n      0x20\n        /* \"#utility.yul\":20001:20010   */\n      dup4\n        /* \"#utility.yul\":19997:20015   */\n      add\n        /* \"#utility.yul\":19988:19994   */\n      dup7\n        /* \"#utility.yul\":19944:20016   */\n      tag_244\n      jump\t// in\n    tag_489:\n        /* \"#utility.yul\":20063:20072   */\n      dup2\n        /* \"#utility.yul\":20057:20061   */\n      dup2\n        /* \"#utility.yul\":20053:20073   */\n      sub\n        /* \"#utility.yul\":20048:20050   */\n      0x40\n        /* \"#utility.yul\":20037:20046   */\n      dup4\n        /* \"#utility.yul\":20033:20051   */\n      add\n        /* \"#utility.yul\":20026:20074   */\n      mstore\n        /* \"#utility.yul\":20091:20179   */\n      tag_490\n        /* \"#utility.yul\":20174:20178   */\n      dup2\n        /* \"#utility.yul\":20165:20171   */\n      dup5\n        /* \"#utility.yul\":20157:20163   */\n      dup7\n        /* \"#utility.yul\":20091:20179   */\n      tag_284\n      jump\t// in\n    tag_490:\n        /* \"#utility.yul\":20083:20179   */\n      swap1\n      pop\n        /* \"#utility.yul\":19633:20186   */\n      swap6\n      swap5\n      pop\n      pop\n      pop\n      pop\n      pop\n      jump\t// out\n        /* \"#utility.yul\":20192:20512   */\n    tag_159:\n        /* \"#utility.yul\":20307:20311   */\n      0x00\n        /* \"#utility.yul\":20345:20347   */\n      0x40\n        /* \"#utility.yul\":20334:20343   */\n      dup3\n        /* \"#utility.yul\":20330:20348   */\n      add\n        /* \"#utility.yul\":20322:20348   */\n      swap1\n      pop\n        /* \"#utility.yul\":20358:20423   */\n      tag_492\n        /* \"#utility.yul\":20420:20421   */\n      0x00\n        /* \"#utility.yul\":20409:20418   */\n      dup4\n        /* \"#utility.yul\":20405:20422   */\n      add\n        /* \"#utility.yul\":20396:20402   */\n      dup6\n        /* \"#utility.yul\":20358:20423   */\n      tag_243\n      jump\t// in\n    tag_492:\n        /* \"#utility.yul\":20433:20505   */\n      tag_493\n        /* \"#utility.yul\":20501:20503   */\n      0x20\n        /* \"#utility.yul\":20490:20499   */\n      dup4\n        /* \"#utility.yul\":20486:20504   */\n      add\n        /* \"#utility.yul\":20477:20483   */\n      dup5\n        /* \"#utility.yul\":20433:20505   */\n      tag_244\n      jump\t// in\n    tag_493:\n        /* \"#utility.yul\":20192:20512   */\n      swap4\n      swap3\n      pop\n      pop\n      pop\n      jump\t// out\n        /* \"#utility.yul\":20518:20928   */\n    tag_199:\n        /* \"#utility.yul\":20558:20565   */\n      0x00\n        /* \"#utility.yul\":20581:20601   */\n      tag_495\n        /* \"#utility.yul\":20599:20600   */\n      dup3\n        /* \"#utility.yul\":20581:20601   */\n      tag_235\n      jump\t// in\n    tag_495:\n        /* \"#utility.yul\":20576:20601   */\n      swap2\n      pop\n        /* \"#utility.yul\":20615:20635   */\n      tag_496\n        /* \"#utility.yul\":20633:20634   */\n      dup4\n        /* \"#utility.yul\":20615:20635   */\n      tag_235\n      jump\t// in\n    tag_496:\n        /* \"#utility.yul\":20610:20635   */\n      swap3\n      pop\n        /* \"#utility.yul\":20670:20671   */\n      dup3\n        /* \"#utility.yul\":20667:20668   */\n      dup3\n        /* \"#utility.yul\":20663:20672   */\n      mul\n        /* \"#utility.yul\":20692:20722   */\n      tag_497\n        /* \"#utility.yul\":20710:20721   */\n      dup2\n        /* \"#utility.yul\":20692:20722   */\n      tag_235\n      jump\t// in\n    tag_497:\n        /* \"#utility.yul\":20681:20722   */\n      swap2\n      pop\n        /* \"#utility.yul\":20871:20872   */\n      dup3\n        /* \"#utility.yul\":20862:20869   */\n      dup3\n        /* \"#utility.yul\":20858:20873   */\n      div\n        /* \"#utility.yul\":20855:20856   */\n      dup5\n        /* \"#utility.yul\":20852:20874   */\n      eq\n        /* \"#utility.yul\":20832:20833   */\n      dup4\n        /* \"#utility.yul\":20825:20834   */\n      iszero\n        /* \"#utility.yul\":20805:20888   */\n      or\n        /* \"#utility.yul\":20782:20921   */\n      tag_498\n      jumpi\n        /* \"#utility.yul\":20901:20919   */\n      tag_499\n      tag_261\n      jump\t// in\n    tag_499:\n        /* \"#utility.yul\":20782:20921   */\n    tag_498:\n        /* \"#utility.yul\":20566:20928   */\n      pop\n        /* \"#utility.yul\":20518:20928   */\n      swap3\n      swap2\n      pop\n      pop\n      jump\t// out\n\n    auxdata: 0xa264697066735822122079a0a6b2668a226e26dfe18b4d006a950c6fa3fafbab24852280da351b8a4b6f64736f6c634300081e0033\n}\n",
				"bytecode": {
					"linkReferences": {},
					"object": "6080604052348015600e575f5ffd5b5060016029601f603360201b60201c565b605c60201b60201c565b5f01819055506065565b5f7f9b779b17422d0df92223018b32b4d1fa46e071723d6817e2486d003becc55f005f1b905090565b5f819050919050565b612612806100725f395ff3fe6080604052600436106100e0575f3560e01c80637903a7561161007e578063c1cbbca711610058578063c1cbbca714610339578063c28fe7d514610355578063cd89fd4114610391578063df7843ae146103bb57610117565b80637903a756146102975780637995ea8f146102c1578063aba21009146102fd57610117565b80635598f8cc116100ba5780635598f8cc146101cf5780635b7baf641461020b5780635d0ed3b0146102335780636a18ff7a1461026f57610117565b80630d39a1d31461011b57806322502268146101575780633d891f591461019357610117565b36610117576040517fab82a24800000000000000000000000000000000000000000000000000000000815260040160405180910390fd5b5f5ffd5b348015610126575f5ffd5b50610141600480360381019061013c9190611c03565b6103e3565b60405161014e9190611c6d565b60405180910390f35b348015610162575f5ffd5b5061017d60048036038101906101789190611c86565b610418565b60405161018a9190611cd3565b60405180910390f35b34801561019e575f5ffd5b506101b960048036038101906101b49190611cec565b61060f565b6040516101c69190611cd3565b60405180910390f35b3480156101da575f5ffd5b506101f560048036038101906101f09190611d2a565b61062f565b6040516102029190611e22565b60405180910390f35b348015610216575f5ffd5b50610231600480360381019061022c9190611d2a565b61075e565b005b34801561023e575f5ffd5b5061025960048036038101906102549190611e9d565b610a42565b6040516102669190611cd3565b60405180910390f35b34801561027a575f5ffd5b5061029560048036038101906102909190611f4b565b610dc9565b005b3480156102a2575f5ffd5b506102ab611189565b6040516102b89190611cd3565b60405180910390f35b3480156102cc575f5ffd5b506102e760048036038101906102e29190611d2a565b61118e565b6040516102f49190611cd3565b60405180910390f35b348015610308575f5ffd5b50610323600480360381019061031e9190611c86565b611218565b6040516103309190612091565b60405180910390f35b610353600480360381019061034e9190611d2a565b6113d9565b005b348015610360575f5ffd5b5061037b60048036038101906103769190611cec565b611610565b6040516103889190611cd3565b60405180910390f35b34801561039c575f5ffd5b506103a5611666565b6040516103b29190611cd3565b60405180910390f35b3480156103c6575f5ffd5b506103e160048036038101906103dc9190611c86565b61166c565b005b6004602052825f5260405f20602052815f5260405f20602052805f5260405f205f92509250509054906101000a900460ff1681565b5f5f8303610452576040517f16f3c52900000000000000000000000000000000000000000000000000000000815260040160405180910390fd5b5f820361048b576040517f769d11e400000000000000000000000000000000000000000000000000000000815260040160405180910390fd5b5f5f81548092919061049c906120de565b9190505590505f82426104af9190612125565b90506040518061010001604052803373ffffffffffffffffffffffffffffffffffffffff1681526020018581526020018281526020015f81526020015f81526020015f81526020015f81526020016001151581525060015f8481526020019081526020015f205f820151815f015f6101000a81548173ffffffffffffffffffffffffffffffffffffffff021916908373ffffffffffffffffffffffffffffffffffffffff1602179055506020820151816001015560408201518160020155606082015181600301556080820151816004015560a0820151816005015560c0820151816006015560e0820151816007015f6101000a81548160ff0219169083151502179055509050503373ffffffffffffffffffffffffffffffffffffffff16827f91b289a829e71d811b8c69e4a24ba2d40d115d8a236e9a724cb3bb2d43cf72238684604051610600929190612158565b60405180910390a35092915050565b6002602052815f5260405f20602052805f5260405f205f91509150505481565b610637611ae6565b8160015f8281526020019081526020015f206007015f9054906101000a900460ff1661068f576040517f9b35ed3b00000000000000000000000000000000000000000000000000000000815260040160405180910390fd5b60015f8481526020019081526020015f20604051806101000160405290815f82015f9054906101000a900473ffffffffffffffffffffffffffffffffffffffff1673ffffffffffffffffffffffffffffffffffffffff1673ffffffffffffffffffffffffffffffffffffffff168152602001600182015481526020016002820154815260200160038201548152602001600482015481526020016005820154815260200160068201548152602001600782015f9054906101000a900460ff161515151581525050915050919050565b610766611a1b565b8060015f8281526020019081526020015f206007015f9054906101000a900460ff166107be576040517f9b35ed3b00000000000000000000000000000000000000000000000000000000815260040160405180910390fd5b5f60015f8481526020019081526020015f2090508060020154421015610810576040517f9cb6acb600000000000000000000000000000000000000000000000000000000815260040160405180910390fd5b8060010154816003015410610851576040517f26bcd1ab00000000000000000000000000000000000000000000000000000000815260040160405180910390fd5b5f60025f8581526020019081526020015f205f3373ffffffffffffffffffffffffffffffffffffffff1673ffffffffffffffffffffffffffffffffffffffff1681526020019081526020015f205490505f81036108da576040517ff76aef6500000000000000000000000000000000000000000000000000000000815260040160405180910390fd5b5f60025f8681526020019081526020015f205f3373ffffffffffffffffffffffffffffffffffffffff1673ffffffffffffffffffffffffffffffffffffffff1681526020019081526020015f208190555080826003015f82825461093e919061217f565b925050819055505f3373ffffffffffffffffffffffffffffffffffffffff168260405161096a906121df565b5f6040518083038185875af1925050503d805f81146109a4576040519150601f19603f3d011682016040523d82523d5f602084013e6109a9565b606091505b50509050806109e4576040517f90b8ec1800000000000000000000000000000000000000000000000000000000815260040160405180910390fd5b3373ffffffffffffffffffffffffffffffffffffffff16857ff3f402280ef0a7905e124aa621b65eaeb2725c343e8b36d398ed78c29daf285c84604051610a2b9190611cd3565b60405180910390a350505050610a3f611a3d565b50565b5f8560015f8281526020019081526020015f206007015f9054906101000a900460ff16610a9b576040517f9b35ed3b00000000000000000000000000000000000000000000000000000000815260040160405180910390fd5b8660015f8281526020019081526020015f205f015f9054906101000a900473ffffffffffffffffffffffffffffffffffffffff1673ffffffffffffffffffffffffffffffffffffffff163373ffffffffffffffffffffffffffffffffffffffff1614610b33576040517fe681a15c00000000000000000000000000000000000000000000000000000000815260040160405180910390fd5b5f60015f8a81526020019081526020015f209050806001015481600301541015610b89576040517f329f104f00000000000000000000000000000000000000000000000000000000815260040160405180910390fd5b5f8503610bc2576040517f05a612e300000000000000000000000000000000000000000000000000000000815260040160405180910390fd5b5f8803610bfb576040517fbc5a91e400000000000000000000000000000000000000000000000000000000815260040160405180910390fd5b5f81600401548260030154610c10919061217f565b905080891115610c4c576040517f62d5bfec00000000000000000000000000000000000000000000000000000000815260040160405180910390fd5b816006015f815480929190610c60906120de565b9190505594505f8642610c739190612125565b90506040518060c001604052808a8a8080601f0160208091040260200160405190810160405280939291908181526020018383808284375f81840152601f19601f8201169050808301925050505050505081526020018b81526020018281526020015f81526020015f81526020015f151581525060035f8d81526020019081526020015f205f8881526020019081526020015f205f820151815f019081610d1a919061241d565b506020820151816001015560408201518160020155606082015181600301556080820151816004015560a0820151816005015f6101000a81548160ff0219169083151502179055509050503373ffffffffffffffffffffffffffffffffffffffff16868c7f28c5c37659b1971b04de0af85aef515defa8f0fe1e7b7dbd533a98a6466711418d858e8e604051610db39493929190612536565b60405180910390a4505050505095945050505050565b8260015f8281526020019081526020015f206007015f9054906101000a900460ff16610e21576040517f9b35ed3b00000000000000000000000000000000000000000000000000000000815260040160405180910390fd5b835f60025f8381526020019081526020015f205f3373ffffffffffffffffffffffffffffffffffffffff1673ffffffffffffffffffffffffffffffffffffffff1681526020019081526020015f205403610ea7576040517fd764187d00000000000000000000000000000000000000000000000000000000815260040160405180910390fd5b5f60035f8781526020019081526020015f205f8681526020019081526020015f2090505f816002015403610f07576040517fd9c78e0200000000000000000000000000000000000000000000000000000000815260040160405180910390fd5b806005015f9054906101000a900460ff1615610f4f576040517f51618d5300000000000000000000000000000000000000000000000000000000815260040160405180910390fd5b80600201544210610f8c576040517fdc3b0dc400000000000000000000000000000000000000000000000000000000815260040160405180910390fd5b60045f8781526020019081526020015f205f8681526020019081526020015f205f3373ffffffffffffffffffffffffffffffffffffffff1673ffffffffffffffffffffffffffffffffffffffff1681526020019081526020015f205f9054906101000a900460ff161561102b576040517f7c9a1cf900000000000000000000000000000000000000000000000000000000815260040160405180910390fd5b5f60025f8881526020019081526020015f205f3373ffffffffffffffffffffffffffffffffffffffff1673ffffffffffffffffffffffffffffffffffffffff1681526020019081526020015f20549050600160045f8981526020019081526020015f205f8881526020019081526020015f205f3373ffffffffffffffffffffffffffffffffffffffff1673ffffffffffffffffffffffffffffffffffffffff1681526020019081526020015f205f6101000a81548160ff02191690831515021790555084156111135780826003015f8282546111079190612125565b9250508190555061112e565b80826004015f8282546111269190612125565b925050819055505b3373ffffffffffffffffffffffffffffffffffffffff1686887fcba8212abe84b02f9ea158460f9fb5f991ed6945b87767b4ffcbe6dda848cd758885604051611178929190612574565b60405180910390a450505050505050565b5f5481565b5f8160015f8281526020019081526020015f206007015f9054906101000a900460ff166111e7576040517f9b35ed3b00000000000000000000000000000000000000000000000000000000815260040160405180910390fd5b5f60015f8581526020019081526020015f2090508060040154816003015461120f919061217f565b92505050919050565b611220611b3b565b8260015f8281526020019081526020015f206007015f9054906101000a900460ff16611278576040517f9b35ed3b00000000000000000000000000000000000000000000000000000000815260040160405180910390fd5b5f60035f8681526020019081526020015f205f8581526020019081526020015f2060020154036112d4576040517fd9c78e0200000000000000000000000000000000000000000000000000000000815260040160405180910390fd5b60035f8581526020019081526020015f205f8481526020019081526020015f206040518060c00160405290815f8201805461130e9061224d565b80601f016020809104026020016040519081016040528092919081815260200182805461133a9061224d565b80156113855780601f1061135c57610100808354040283529160200191611385565b820191905f5260205f20905b81548152906001019060200180831161136857829003601f168201915b5050505050815260200160018201548152602001600282015481526020016003820154815260200160048201548152602001600582015f9054906101000a900460ff16151515158152505091505092915050565b6113e1611a1b565b8060015f8281526020019081526020015f206007015f9054906101000a900460ff16611439576040517f9b35ed3b00000000000000000000000000000000000000000000000000000000815260040160405180910390fd5b5f60015f8481526020019081526020015f2090508060020154421061148a576040517f553ae05400000000000000000000000000000000000000000000000000000000815260040160405180910390fd5b5f34036114c3576040517fab82a24800000000000000000000000000000000000000000000000000000000815260040160405180910390fd5b5f60025f8581526020019081526020015f205f3373ffffffffffffffffffffffffffffffffffffffff1673ffffffffffffffffffffffffffffffffffffffff1681526020019081526020015f205403611532576001816005015f82825461152a9190612125565b925050819055505b3460025f8581526020019081526020015f205f3373ffffffffffffffffffffffffffffffffffffffff1673ffffffffffffffffffffffffffffffffffffffff1681526020019081526020015f205f82825461158d9190612125565b9250508190555034816003015f8282546115a79190612125565b925050819055503373ffffffffffffffffffffffffffffffffffffffff16837f9a98994924b3f454e430a7e3c884aa145467ff2913f30a4b4c428a25797c79753484600301546040516115fb929190612158565b60405180910390a3505061160d611a3d565b50565b5f60025f8481526020019081526020015f205f8373ffffffffffffffffffffffffffffffffffffffff1673ffffffffffffffffffffffffffffffffffffffff1681526020019081526020015f2054905092915050565b61138881565b611674611a1b565b8160015f8281526020019081526020015f206007015f9054906101000a900460ff166116cc576040517f9b35ed3b00000000000000000000000000000000000000000000000000000000815260040160405180910390fd5b5f60015f8581526020019081526020015f2090505f60035f8681526020019081526020015f205f8581526020019081526020015f2090505f816002015403611740576040517fd9c78e0200000000000000000000000000000000000000000000000000000000815260040160405180910390fd5b806005015f9054906101000a900460ff1615611788576040517f51618d5300000000000000000000000000000000000000000000000000000000815260040160405180910390fd5b80600201544210156117c6576040517f335f0a6400000000000000000000000000000000000000000000000000000000815260040160405180910390fd5b5f816004015482600301541190505f61138884600301546117e7919061259b565b61271084600301546117f9919061259b565b119050811580611807575080155b1561183e576040517fcc6633c500000000000000000000000000000000000000000000000000000000815260040160405180910390fd5b5f84600401548560030154611853919061217f565b90508084600101541115611893576040517f62d5bfec00000000000000000000000000000000000000000000000000000000815260040160405180910390fd5b6001846005015f6101000a81548160ff0219169083151502179055508360010154856004015f8282546118c69190612125565b925050819055505f855f015f9054906101000a900473ffffffffffffffffffffffffffffffffffffffff1673ffffffffffffffffffffffffffffffffffffffff168560010154604051611918906121df565b5f6040518083038185875af1925050503d805f8114611952576040519150601f19603f3d011682016040523d82523d5f602084013e611957565b606091505b5050905080611992576040517f90b8ec1800000000000000000000000000000000000000000000000000000000815260040160405180910390fd5b855f015f9054906101000a900473ffffffffffffffffffffffffffffffffffffffff1673ffffffffffffffffffffffffffffffffffffffff16888a7fd5eb304362ffe48045a3ae2ed7e0d2cfed08eb62f44dc87c694d42606e8205d98860010154604051611a009190611cd3565b60405180910390a450505050505050611a17611a3d565b5050565b611a23611a57565b6002611a35611a30611a98565b611ac1565b5f0181905550565b6001611a4f611a4a611a98565b611ac1565b5f0181905550565b611a5f611aca565b15611a96576040517f3ee5aeb500000000000000000000000000000000000000000000000000000000815260040160405180910390fd5b565b5f7f9b779b17422d0df92223018b32b4d1fa46e071723d6817e2486d003becc55f005f1b905090565b5f819050919050565b5f6002611add611ad8611a98565b611ac1565b5f015414905090565b6040518061010001604052805f73ffffffffffffffffffffffffffffffffffffffff1681526020015f81526020015f81526020015f81526020015f81526020015f81526020015f81526020015f151581525090565b6040518060c00160405280606081526020015f81526020015f81526020015f81526020015f81526020015f151581525090565b5f5ffd5b5f5ffd5b5f819050919050565b611b8881611b76565b8114611b92575f5ffd5b50565b5f81359050611ba381611b7f565b92915050565b5f73ffffffffffffffffffffffffffffffffffffffff82169050919050565b5f611bd282611ba9565b9050919050565b611be281611bc8565b8114611bec575f5ffd5b50565b5f81359050611bfd81611bd9565b92915050565b5f5f5f60608486031215611c1a57611c19611b6e565b5b5f611c2786828701611b95565b9350506020611c3886828701611b95565b9250506040611c4986828701611bef565b9150509250925092565b5f8115159050919050565b611c6781611c53565b82525050565b5f602082019050611c805f830184611c5e565b92915050565b5f5f60408385031215611c9c57611c9b611b6e565b5b5f611ca985828601611b95565b9250506020611cba85828601611b95565b9150509250929050565b611ccd81611b76565b82525050565b5f602082019050611ce65f830184611cc4565b92915050565b5f5f60408385031215611d0257611d01611b6e565b5b5f611d0f85828601611b95565b9250506020611d2085828601611bef565b9150509250929050565b5f60208284031215611d3f57611d3e611b6e565b5b5f611d4c84828501611b95565b91505092915050565b611d5e81611bc8565b82525050565b611d6d81611b76565b82525050565b611d7c81611c53565b82525050565b61010082015f820151611d975f850182611d55565b506020820151611daa6020850182611d64565b506040820151611dbd6040850182611d64565b506060820151611dd06060850182611d64565b506080820151611de36080850182611d64565b5060a0820151611df660a0850182611d64565b5060c0820151611e0960c0850182611d64565b5060e0820151611e1c60e0850182611d73565b50505050565b5f61010082019050611e365f830184611d82565b92915050565b5f5ffd5b5f5ffd5b5f5ffd5b5f5f83601f840112611e5d57611e5c611e3c565b5b8235905067ffffffffffffffff811115611e7a57611e79611e40565b5b602083019150836001820283011115611e9657611e95611e44565b5b9250929050565b5f5f5f5f5f60808688031215611eb657611eb5611b6e565b5b5f611ec388828901611b95565b9550506020611ed488828901611b95565b945050604086013567ffffffffffffffff811115611ef557611ef4611b72565b5b611f0188828901611e48565b93509350506060611f1488828901611b95565b9150509295509295909350565b611f2a81611c53565b8114611f34575f5ffd5b50565b5f81359050611f4581611f21565b92915050565b5f5f5f60608486031215611f6257611f61611b6e565b5b5f611f6f86828701611b95565b9350506020611f8086828701611b95565b9250506040611f9186828701611f37565b9150509250925092565b5f81519050919050565b5f82825260208201905092915050565b8281835e5f83830152505050565b5f601f19601f8301169050919050565b5f611fdd82611f9b565b611fe78185611fa5565b9350611ff7818560208601611fb5565b61200081611fc3565b840191505092915050565b5f60c083015f8301518482035f8601526120258282611fd3565b915050602083015161203a6020860182611d64565b50604083015161204d6040860182611d64565b5060608301516120606060860182611d64565b5060808301516120736080860182611d64565b5060a083015161208660a0860182611d73565b508091505092915050565b5f6020820190508181035f8301526120a9818461200b565b905092915050565b7f4e487b71000000000000000000000000000000000000000000000000000000005f52601160045260245ffd5b5f6120e882611b76565b91507fffffffffffffffffffffffffffffffffffffffffffffffffffffffffffffffff820361211a576121196120b1565b5b600182019050919050565b5f61212f82611b76565b915061213a83611b76565b9250828201905080821115612152576121516120b1565b5b92915050565b5f60408201905061216b5f830185611cc4565b6121786020830184611cc4565b9392505050565b5f61218982611b76565b915061219483611b76565b92508282039050818111156121ac576121ab6120b1565b5b92915050565b5f81905092915050565b50565b5f6121ca5f836121b2565b91506121d5826121bc565b5f82019050919050565b5f6121e9826121bf565b9150819050919050565b7f4e487b71000000000000000000000000000000000000000000000000000000005f52604160045260245ffd5b7f4e487b71000000000000000000000000000000000000000000000000000000005f52602260045260245ffd5b5f600282049050600182168061226457607f821691505b60208210810361227757612276612220565b5b50919050565b5f819050815f5260205f209050919050565b5f6020601f8301049050919050565b5f82821b905092915050565b5f600883026122d97fffffffffffffffffffffffffffffffffffffffffffffffffffffffffffffffff8261229e565b6122e3868361229e565b95508019841693508086168417925050509392505050565b5f819050919050565b5f61231e61231961231484611b76565b6122fb565b611b76565b9050919050565b5f819050919050565b61233783612304565b61234b61234382612325565b8484546122aa565b825550505050565b5f5f905090565b612362612353565b61236d81848461232e565b505050565b5b81811015612390576123855f8261235a565b600181019050612373565b5050565b601f8211156123d5576123a68161227d565b6123af8461228f565b810160208510156123be578190505b6123d26123ca8561228f565b830182612372565b50505b505050565b5f82821c905092915050565b5f6123f55f19846008026123da565b1980831691505092915050565b5f61240d83836123e6565b9150826002028217905092915050565b61242682611f9b565b67ffffffffffffffff81111561243f5761243e6121f3565b5b612449825461224d565b612454828285612394565b5f60209050601f831160018114612485575f8415612473578287015190505b61247d8582612402565b8655506124e4565b601f1984166124938661227d565b5f5b828110156124ba57848901518255600182019150602085019450602081019050612495565b868310156124d757848901516124d3601f8916826123e6565b8355505b6001600288020188555050505b505050505050565b5f82825260208201905092915050565b828183375f83830152505050565b5f61251583856124ec565b93506125228385846124fc565b61252b83611fc3565b840190509392505050565b5f6060820190506125495f830187611cc4565b6125566020830186611cc4565b818103604083015261256981848661250a565b905095945050505050565b5f6040820190506125875f830185611c5e565b6125946020830184611cc4565b9392505050565b5f6125a582611b76565b91506125b083611b76565b92508282026125be81611b76565b915082820484148315176125d5576125d46120b1565b5b509291505056fea264697066735822122079a0a6b2668a226e26dfe18b4d006a950c6fa3fafbab24852280da351b8a4b6f64736f6c634300081e0033",
					"opcodes": "PUSH1 0x80 PUSH1 0x40 MSTORE CALLVALUE DUP1 ISZERO PUSH1 0xE JUMPI PUSH0 PUSH0 REVERT JUMPDEST POP PUSH1 0x1 PUSH1 0x29 PUSH1 0x1F PUSH1 0x33 PUSH1 0x20 SHL PUSH1 0x20 SHR JUMP JUMPDEST PUSH1 0x5C PUSH1 0x20 SHL PUSH1 0x20 SHR JUMP JUMPDEST PUSH0 ADD DUP2 SWAP1 SSTORE POP PUSH1 0x65 JUMP JUMPDEST PUSH0 PUSH32 0x9B779B17422D0DF92223018B32B4D1FA46E071723D6817E2486D003BECC55F00 PUSH0 SHL SWAP1 POP SWAP1 JUMP JUMPDEST PUSH0 DUP2 SWAP1 POP SWAP2 SWAP1 POP JUMP JUMPDEST PUSH2 0x2612 DUP1 PUSH2 0x72 PUSH0 CODECOPY PUSH0 RETURN INVALID PUSH1 0x80 PUSH1 0x40 MSTORE PUSH1 0x4 CALLDATASIZE LT PUSH2 0xE0 JUMPI PUSH0 CALLDATALOAD PUSH1 0xE0 SHR DUP1 PUSH4 0x7903A756 GT PUSH2 0x7E JUMPI DUP1 PUSH4 0xC1CBBCA7 GT PUSH2 0x58 JUMPI DUP1 PUSH4 0xC1CBBCA7 EQ PUSH2 0x339 JUMPI DUP1 PUSH4 0xC28FE7D5 EQ PUSH2 0x355 JUMPI DUP1 PUSH4 0xCD89FD41 EQ PUSH2 0x391 JUMPI DUP1 PUSH4 0xDF7843AE EQ PUSH2 0x3BB JUMPI PUSH2 0x117 JUMP JUMPDEST DUP1 PUSH4 0x7903A756 EQ PUSH2 0x297 JUMPI DUP1 PUSH4 0x7995EA8F EQ PUSH2 0x2C1 JUMPI DUP1 PUSH4 0xABA21009 EQ PUSH2 0x2FD JUMPI PUSH2 0x117 JUMP JUMPDEST DUP1 PUSH4 0x5598F8CC GT PUSH2 0xBA JUMPI DUP1 PUSH4 0x5598F8CC EQ PUSH2 0x1CF JUMPI DUP1 PUSH4 0x5B7BAF64 EQ PUSH2 0x20B JUMPI DUP1 PUSH4 0x5D0ED3B0 EQ PUSH2 0x233 JUMPI DUP1 PUSH4 0x6A18FF7A EQ PUSH2 0x26F JUMPI PUSH2 0x117 JUMP JUMPDEST DUP1 PUSH4 0xD39A1D3 EQ PUSH2 0x11B JUMPI DUP1 PUSH4 0x22502268 EQ PUSH2 0x157 JUMPI DUP1 PUSH4 0x3D891F59 EQ PUSH2 0x193 JUMPI PUSH2 0x117 JUMP JUMPDEST CALLDATASIZE PUSH2 0x117 JUMPI PUSH1 0x40 MLOAD PUSH32 0xAB82A24800000000000000000000000000000000000000000000000000000000 DUP2 MSTORE PUSH1 0x4 ADD PUSH1 0x40 MLOAD DUP1 SWAP2 SUB SWAP1 REVERT JUMPDEST PUSH0 PUSH0 REVERT JUMPDEST CALLVALUE DUP1 ISZERO PUSH2 0x126 JUMPI PUSH0 PUSH0 REVERT JUMPDEST POP PUSH2 0x141 PUSH1 0x4 DUP1 CALLDATASIZE SUB DUP2 ADD SWAP1 PUSH2 0x13C SWAP2 SWAP1 PUSH2 0x1C03 JUMP JUMPDEST PUSH2 0x3E3 JUMP JUMPDEST PUSH1 0x40 MLOAD PUSH2 0x14E SWAP2 SWAP1 PUSH2 0x1C6D JUMP JUMPDEST PUSH1 0x40 MLOAD DUP1 SWAP2 SUB SWAP1 RETURN JUMPDEST CALLVALUE DUP1 ISZERO PUSH2 0x162 JUMPI PUSH0 PUSH0 REVERT JUMPDEST POP PUSH2 0x17D PUSH1 0x4 DUP1 CALLDATASIZE SUB DUP2 ADD SWAP1 PUSH2 0x178 SWAP2 SWAP1 PUSH2 0x1C86 JUMP JUMPDEST PUSH2 0x418 JUMP JUMPDEST PUSH1 0x40 MLOAD PUSH2 0x18A SWAP2 SWAP1 PUSH2 0x1CD3 JUMP JUMPDEST PUSH1 0x40 MLOAD DUP1 SWAP2 SUB SWAP1 RETURN JUMPDEST CALLVALUE DUP1 ISZERO PUSH2 0x19E JUMPI PUSH0 PUSH0 REVERT JUMPDEST POP PUSH2 0x1B9 PUSH1 0x4 DUP1 CALLDATASIZE SUB DUP2 ADD SWAP1 PUSH2 0x1B4 SWAP2 SWAP1 PUSH2 0x1CEC JUMP JUMPDEST PUSH2 0x60F JUMP JUMPDEST PUSH1 0x40 MLOAD PUSH2 0x1C6 SWAP2 SWAP1 PUSH2 0x1CD3 JUMP JUMPDEST PUSH1 0x40 MLOAD DUP1 SWAP2 SUB SWAP1 RETURN JUMPDEST CALLVALUE DUP1 ISZERO PUSH2 0x1DA JUMPI PUSH0 PUSH0 REVERT JUMPDEST POP PUSH2 0x1F5 PUSH1 0x4 DUP1 CALLDATASIZE SUB DUP2 ADD SWAP1 PUSH2 0x1F0 SWAP2 SWAP1 PUSH2 0x1D2A JUMP JUMPDEST PUSH2 0x62F JUMP JUMPDEST PUSH1 0x40 MLOAD PUSH2 0x202 SWAP2 SWAP1 PUSH2 0x1E22 JUMP JUMPDEST PUSH1 0x40 MLOAD DUP1 SWAP2 SUB SWAP1 RETURN JUMPDEST CALLVALUE DUP1 ISZERO PUSH2 0x216 JUMPI PUSH0 PUSH0 REVERT JUMPDEST POP PUSH2 0x231 PUSH1 0x4 DUP1 CALLDATASIZE SUB DUP2 ADD SWAP1 PUSH2 0x22C SWAP2 SWAP1 PUSH2 0x1D2A JUMP JUMPDEST PUSH2 0x75E JUMP JUMPDEST STOP JUMPDEST CALLVALUE DUP1 ISZERO PUSH2 0x23E JUMPI PUSH0 PUSH0 REVERT JUMPDEST POP PUSH2 0x259 PUSH1 0x4 DUP1 CALLDATASIZE SUB DUP2 ADD SWAP1 PUSH2 0x254 SWAP2 SWAP1 PUSH2 0x1E9D JUMP JUMPDEST PUSH2 0xA42 JUMP JUMPDEST PUSH1 0x40 MLOAD PUSH2 0x266 SWAP2 SWAP1 PUSH2 0x1CD3 JUMP JUMPDEST PUSH1 0x40 MLOAD DUP1 SWAP2 SUB SWAP1 RETURN JUMPDEST CALLVALUE DUP1 ISZERO PUSH2 0x27A JUMPI PUSH0 PUSH0 REVERT JUMPDEST POP PUSH2 0x295 PUSH1 0x4 DUP1 CALLDATASIZE SUB DUP2 ADD SWAP1 PUSH2 0x290 SWAP2 SWAP1 PUSH2 0x1F4B JUMP JUMPDEST PUSH2 0xDC9 JUMP JUMPDEST STOP JUMPDEST CALLVALUE DUP1 ISZERO PUSH2 0x2A2 JUMPI PUSH0 PUSH0 REVERT JUMPDEST POP PUSH2 0x2AB PUSH2 0x1189 JUMP JUMPDEST PUSH1 0x40 MLOAD PUSH2 0x2B8 SWAP2 SWAP1 PUSH2 0x1CD3 JUMP JUMPDEST PUSH1 0x40 MLOAD DUP1 SWAP2 SUB SWAP1 RETURN JUMPDEST CALLVALUE DUP1 ISZERO PUSH2 0x2CC JUMPI PUSH0 PUSH0 REVERT JUMPDEST POP PUSH2 0x2E7 PUSH1 0x4 DUP1 CALLDATASIZE SUB DUP2 ADD SWAP1 PUSH2 0x2E2 SWAP2 SWAP1 PUSH2 0x1D2A JUMP JUMPDEST PUSH2 0x118E JUMP JUMPDEST PUSH1 0x40 MLOAD PUSH2 0x2F4 SWAP2 SWAP1 PUSH2 0x1CD3 JUMP JUMPDEST PUSH1 0x40 MLOAD DUP1 SWAP2 SUB SWAP1 RETURN JUMPDEST CALLVALUE DUP1 ISZERO PUSH2 0x308 JUMPI PUSH0 PUSH0 REVERT JUMPDEST POP PUSH2 0x323 PUSH1 0x4 DUP1 CALLDATASIZE SUB DUP2 ADD SWAP1 PUSH2 0x31E SWAP2 SWAP1 PUSH2 0x1C86 JUMP JUMPDEST PUSH2 0x1218 JUMP JUMPDEST PUSH1 0x40 MLOAD PUSH2 0x330 SWAP2 SWAP1 PUSH2 0x2091 JUMP JUMPDEST PUSH1 0x40 MLOAD DUP1 SWAP2 SUB SWAP1 RETURN JUMPDEST PUSH2 0x353 PUSH1 0x4 DUP1 CALLDATASIZE SUB DUP2 ADD SWAP1 PUSH2 0x34E SWAP2 SWAP1 PUSH2 0x1D2A JUMP JUMPDEST PUSH2 0x13D9 JUMP JUMPDEST STOP JUMPDEST CALLVALUE DUP1 ISZERO PUSH2 0x360 JUMPI PUSH0 PUSH0 REVERT JUMPDEST POP PUSH2 0x37B PUSH1 0x4 DUP1 CALLDATASIZE SUB DUP2 ADD SWAP1 PUSH2 0x376 SWAP2 SWAP1 PUSH2 0x1CEC JUMP JUMPDEST PUSH2 0x1610 JUMP JUMPDEST PUSH1 0x40 MLOAD PUSH2 0x388 SWAP2 SWAP1 PUSH2 0x1CD3 JUMP JUMPDEST PUSH1 0x40 MLOAD DUP1 SWAP2 SUB SWAP1 RETURN JUMPDEST CALLVALUE DUP1 ISZERO PUSH2 0x39C JUMPI PUSH0 PUSH0 REVERT JUMPDEST POP PUSH2 0x3A5 PUSH2 0x1666 JUMP JUMPDEST PUSH1 0x40 MLOAD PUSH2 0x3B2 SWAP2 SWAP1 PUSH2 0x1CD3 JUMP JUMPDEST PUSH1 0x40 MLOAD DUP1 SWAP2 SUB SWAP1 RETURN JUMPDEST CALLVALUE DUP1 ISZERO PUSH2 0x3C6 JUMPI PUSH0 PUSH0 REVERT JUMPDEST POP PUSH2 0x3E1 PUSH1 0x4 DUP1 CALLDATASIZE SUB DUP2 ADD SWAP1 PUSH2 0x3DC SWAP2 SWAP1 PUSH2 0x1C86 JUMP JUMPDEST PUSH2 0x166C JUMP JUMPDEST STOP JUMPDEST PUSH1 0x4 PUSH1 0x20 MSTORE DUP3 PUSH0 MSTORE PUSH1 0x40 PUSH0 KECCAK256 PUSH1 0x20 MSTORE DUP2 PUSH0 MSTORE PUSH1 0x40 PUSH0 KECCAK256 PUSH1 0x20 MSTORE DUP1 PUSH0 MSTORE PUSH1 0x40 PUSH0 KECCAK256 PUSH0 SWAP3 POP SWAP3 POP POP SWAP1 SLOAD SWAP1 PUSH2 0x100 EXP SWAP1 DIV PUSH1 0xFF AND DUP2 JUMP JUMPDEST PUSH0 PUSH0 DUP4 SUB PUSH2 0x452 JUMPI PUSH1 0x40 MLOAD PUSH32 0x16F3C52900000000000000000000000000000000000000000000000000000000 DUP2 MSTORE PUSH1 0x4 ADD PUSH1 0x40 MLOAD DUP1 SWAP2 SUB SWAP1 REVERT JUMPDEST PUSH0 DUP3 SUB PUSH2 0x48B JUMPI PUSH1 0x40 MLOAD PUSH32 0x769D11E400000000000000000000000000000000000000000000000000000000 DUP2 MSTORE PUSH1 0x4 ADD PUSH1 0x40 MLOAD DUP1 SWAP2 SUB SWAP1 REVERT JUMPDEST PUSH0 PUSH0 DUP2 SLOAD DUP1 SWAP3 SWAP2 SWAP1 PUSH2 0x49C SWAP1 PUSH2 0x20DE JUMP JUMPDEST SWAP2 SWAP1 POP SSTORE SWAP1 POP PUSH0 DUP3 TIMESTAMP PUSH2 0x4AF SWAP2 SWAP1 PUSH2 0x2125 JUMP JUMPDEST SWAP1 POP PUSH1 0x40 MLOAD DUP1 PUSH2 0x100 ADD PUSH1 0x40 MSTORE DUP1 CALLER PUSH20 0xFFFFFFFFFFFFFFFFFFFFFFFFFFFFFFFFFFFFFFFF AND DUP2 MSTORE PUSH1 0x20 ADD DUP6 DUP2 MSTORE PUSH1 0x20 ADD DUP3 DUP2 MSTORE PUSH1 0x20 ADD PUSH0 DUP2 MSTORE PUSH1 0x20 ADD PUSH0 DUP2 MSTORE PUSH1 0x20 ADD PUSH0 DUP2 MSTORE PUSH1 0x20 ADD PUSH0 DUP2 MSTORE PUSH1 0x20 ADD PUSH1 0x1 ISZERO ISZERO DUP2 MSTORE POP PUSH1 0x1 PUSH0 DUP5 DUP2 MSTORE PUSH1 0x20 ADD SWAP1 DUP2 MSTORE PUSH1 0x20 ADD PUSH0 KECCAK256 PUSH0 DUP3 ADD MLOAD DUP2 PUSH0 ADD PUSH0 PUSH2 0x100 EXP DUP2 SLOAD DUP2 PUSH20 0xFFFFFFFFFFFFFFFFFFFFFFFFFFFFFFFFFFFFFFFF MUL NOT AND SWAP1 DUP4 PUSH20 0xFFFFFFFFFFFFFFFFFFFFFFFFFFFFFFFFFFFFFFFF AND MUL OR SWAP1 SSTORE POP PUSH1 0x20 DUP3 ADD MLOAD DUP2 PUSH1 0x1 ADD SSTORE PUSH1 0x40 DUP3 ADD MLOAD DUP2 PUSH1 0x2 ADD SSTORE PUSH1 0x60 DUP3 ADD MLOAD DUP2 PUSH1 0x3 ADD SSTORE PUSH1 0x80 DUP3 ADD MLOAD DUP2 PUSH1 0x4 ADD SSTORE PUSH1 0xA0 DUP3 ADD MLOAD DUP2 PUSH1 0x5 ADD SSTORE PUSH1 0xC0 DUP3 ADD MLOAD DUP2 PUSH1 0x6 ADD SSTORE PUSH1 0xE0 DUP3 ADD MLOAD DUP2 PUSH1 0x7 ADD PUSH0 PUSH2 0x100 EXP DUP2 SLOAD DUP2 PUSH1 0xFF MUL NOT AND SWAP1 DUP4 ISZERO ISZERO MUL OR SWAP1 SSTORE POP SWAP1 POP POP CALLER PUSH20 0xFFFFFFFFFFFFFFFFFFFFFFFFFFFFFFFFFFFFFFFF AND DUP3 PUSH32 0x91B289A829E71D811B8C69E4A24BA2D40D115D8A236E9A724CB3BB2D43CF7223 DUP7 DUP5 PUSH1 0x40 MLOAD PUSH2 0x600 SWAP3 SWAP2 SWAP1 PUSH2 0x2158 JUMP JUMPDEST PUSH1 0x40 MLOAD DUP1 SWAP2 SUB SWAP1 LOG3 POP SWAP3 SWAP2 POP POP JUMP JUMPDEST PUSH1 0x2 PUSH1 0x20 MSTORE DUP2 PUSH0 MSTORE PUSH1 0x40 PUSH0 KECCAK256 PUSH1 0x20 MSTORE DUP1 PUSH0 MSTORE PUSH1 0x40 PUSH0 KECCAK256 PUSH0 SWAP2 POP SWAP2 POP POP SLOAD DUP2 JUMP JUMPDEST PUSH2 0x637 PUSH2 0x1AE6 JUMP JUMPDEST DUP2 PUSH1 0x1 PUSH0 DUP3 DUP2 MSTORE PUSH1 0x20 ADD SWAP1 DUP2 MSTORE PUSH1 0x20 ADD PUSH0 KECCAK256 PUSH1 0x7 ADD PUSH0 SWAP1 SLOAD SWAP1 PUSH2 0x100 EXP SWAP1 DIV PUSH1 0xFF AND PUSH2 0x68F JUMPI PUSH1 0x40 MLOAD PUSH32 0x9B35ED3B00000000000000000000000000000000000000000000000000000000 DUP2 MSTORE PUSH1 0x4 ADD PUSH1 0x40 MLOAD DUP1 SWAP2 SUB SWAP1 REVERT JUMPDEST PUSH1 0x1 PUSH0 DUP5 DUP2 MSTORE PUSH1 0x20 ADD SWAP1 DUP2 MSTORE PUSH1 0x20 ADD PUSH0 KECCAK256 PUSH1 0x40 MLOAD DUP1 PUSH2 0x100 ADD PUSH1 0x40 MSTORE SWAP1 DUP2 PUSH0 DUP3 ADD PUSH0 SWAP1 SLOAD SWAP1 PUSH2 0x100 EXP SWAP1 DIV PUSH20 0xFFFFFFFFFFFFFFFFFFFFFFFFFFFFFFFFFFFFFFFF AND PUSH20 0xFFFFFFFFFFFFFFFFFFFFFFFFFFFFFFFFFFFFFFFF AND PUSH20 0xFFFFFFFFFFFFFFFFFFFFFFFFFFFFFFFFFFFFFFFF AND DUP2 MSTORE PUSH1 0x20 ADD PUSH1 0x1 DUP3 ADD SLOAD DUP2 MSTORE PUSH1 0x20 ADD PUSH1 0x2 DUP3 ADD SLOAD DUP2 MSTORE PUSH1 0x20 ADD PUSH1 0x3 DUP3 ADD SLOAD DUP2 MSTORE PUSH1 0x20 ADD PUSH1 0x4 DUP3 ADD SLOAD DUP2 MSTORE PUSH1 0x20 ADD PUSH1 0x5 DUP3 ADD SLOAD DUP2 MSTORE PUSH1 0x20 ADD PUSH1 0x6 DUP3 ADD SLOAD DUP2 MSTORE PUSH1 0x20 ADD PUSH1 0x7 DUP3 ADD PUSH0 SWAP1 SLOAD SWAP1 PUSH2 0x100 EXP SWAP1 DIV PUSH1 0xFF AND ISZERO ISZERO ISZERO ISZERO DUP2 MSTORE POP POP SWAP2 POP POP SWAP2 SWAP1 POP JUMP JUMPDEST PUSH2 0x766 PUSH2 0x1A1B JUMP JUMPDEST DUP1 PUSH1 0x1 PUSH0 DUP3 DUP2 MSTORE PUSH1 0x20 ADD SWAP1 DUP2 MSTORE PUSH1 0x20 ADD PUSH0 KECCAK256 PUSH1 0x7 ADD PUSH0 SWAP1 SLOAD SWAP1 PUSH2 0x100 EXP SWAP1 DIV PUSH1 0xFF AND PUSH2 0x7BE JUMPI PUSH1 0x40 MLOAD PUSH32 0x9B35ED3B00000000000000000000000000000000000000000000000000000000 DUP2 MSTORE PUSH1 0x4 ADD PUSH1 0x40 MLOAD DUP1 SWAP2 SUB SWAP1 REVERT JUMPDEST PUSH0 PUSH1 0x1 PUSH0 DUP5 DUP2 MSTORE PUSH1 0x20 ADD SWAP1 DUP2 MSTORE PUSH1 0x20 ADD PUSH0 KECCAK256 SWAP1 POP DUP1 PUSH1 0x2 ADD SLOAD TIMESTAMP LT ISZERO PUSH2 0x810 JUMPI PUSH1 0x40 MLOAD PUSH32 0x9CB6ACB600000000000000000000000000000000000000000000000000000000 DUP2 MSTORE PUSH1 0x4 ADD PUSH1 0x40 MLOAD DUP1 SWAP2 SUB SWAP1 REVERT JUMPDEST DUP1 PUSH1 0x1 ADD SLOAD DUP2 PUSH1 0x3 ADD SLOAD LT PUSH2 0x851 JUMPI PUSH1 0x40 MLOAD PUSH32 0x26BCD1AB00000000000000000000000000000000000000000000000000000000 DUP2 MSTORE PUSH1 0x4 ADD PUSH1 0x40 MLOAD DUP1 SWAP2 SUB SWAP1 REVERT JUMPDEST PUSH0 PUSH1 0x2 PUSH0 DUP6 DUP2 MSTORE PUSH1 0x20 ADD SWAP1 DUP2 MSTORE PUSH1 0x20 ADD PUSH0 KECCAK256 PUSH0 CALLER PUSH20 0xFFFFFFFFFFFFFFFFFFFFFFFFFFFFFFFFFFFFFFFF AND PUSH20 0xFFFFFFFFFFFFFFFFFFFFFFFFFFFFFFFFFFFFFFFF AND DUP2 MSTORE PUSH1 0x20 ADD SWAP1 DUP2 MSTORE PUSH1 0x20 ADD PUSH0 KECCAK256 SLOAD SWAP1 POP PUSH0 DUP2 SUB PUSH2 0x8DA JUMPI PUSH1 0x40 MLOAD PUSH32 0xF76AEF6500000000000000000000000000000000000000000000000000000000 DUP2 MSTORE PUSH1 0x4 ADD PUSH1 0x40 MLOAD DUP1 SWAP2 SUB SWAP1 REVERT JUMPDEST PUSH0 PUSH1 0x2 PUSH0 DUP7 DUP2 MSTORE PUSH1 0x20 ADD SWAP1 DUP2 MSTORE PUSH1 0x20 ADD PUSH0 KECCAK256 PUSH0 CALLER PUSH20 0xFFFFFFFFFFFFFFFFFFFFFFFFFFFFFFFFFFFFFFFF AND PUSH20 0xFFFFFFFFFFFFFFFFFFFFFFFFFFFFFFFFFFFFFFFF AND DUP2 MSTORE PUSH1 0x20 ADD SWAP1 DUP2 MSTORE PUSH1 0x20 ADD PUSH0 KECCAK256 DUP2 SWAP1 SSTORE POP DUP1 DUP3 PUSH1 0x3 ADD PUSH0 DUP3 DUP3 SLOAD PUSH2 0x93E SWAP2 SWAP1 PUSH2 0x217F JUMP JUMPDEST SWAP3 POP POP DUP2 SWAP1 SSTORE POP PUSH0 CALLER PUSH20 0xFFFFFFFFFFFFFFFFFFFFFFFFFFFFFFFFFFFFFFFF AND DUP3 PUSH1 0x40 MLOAD PUSH2 0x96A SWAP1 PUSH2 0x21DF JUMP JUMPDEST PUSH0 PUSH1 0x40 MLOAD DUP1 DUP4 SUB DUP2 DUP6 DUP8 GAS CALL SWAP3 POP POP POP RETURNDATASIZE DUP1 PUSH0 DUP2 EQ PUSH2 0x9A4 JUMPI PUSH1 0x40 MLOAD SWAP2 POP PUSH1 0x1F NOT PUSH1 0x3F RETURNDATASIZE ADD AND DUP3 ADD PUSH1 0x40 MSTORE RETURNDATASIZE DUP3 MSTORE RETURNDATASIZE PUSH0 PUSH1 0x20 DUP5 ADD RETURNDATACOPY PUSH2 0x9A9 JUMP JUMPDEST PUSH1 0x60 SWAP2 POP JUMPDEST POP POP SWAP1 POP DUP1 PUSH2 0x9E4 JUMPI PUSH1 0x40 MLOAD PUSH32 0x90B8EC1800000000000000000000000000000000000000000000000000000000 DUP2 MSTORE PUSH1 0x4 ADD PUSH1 0x40 MLOAD DUP1 SWAP2 SUB SWAP1 REVERT JUMPDEST CALLER PUSH20 0xFFFFFFFFFFFFFFFFFFFFFFFFFFFFFFFFFFFFFFFF AND DUP6 PUSH32 0xF3F402280EF0A7905E124AA621B65EAEB2725C343E8B36D398ED78C29DAF285C DUP5 PUSH1 0x40 MLOAD PUSH2 0xA2B SWAP2 SWAP1 PUSH2 0x1CD3 JUMP JUMPDEST PUSH1 0x40 MLOAD DUP1 SWAP2 SUB SWAP1 LOG3 POP POP POP POP PUSH2 0xA3F PUSH2 0x1A3D JUMP JUMPDEST POP JUMP JUMPDEST PUSH0 DUP6 PUSH1 0x1 PUSH0 DUP3 DUP2 MSTORE PUSH1 0x20 ADD SWAP1 DUP2 MSTORE PUSH1 0x20 ADD PUSH0 KECCAK256 PUSH1 0x7 ADD PUSH0 SWAP1 SLOAD SWAP1 PUSH2 0x100 EXP SWAP1 DIV PUSH1 0xFF AND PUSH2 0xA9B JUMPI PUSH1 0x40 MLOAD PUSH32 0x9B35ED3B00000000000000000000000000000000000000000000000000000000 DUP2 MSTORE PUSH1 0x4 ADD PUSH1 0x40 MLOAD DUP1 SWAP2 SUB SWAP1 REVERT JUMPDEST DUP7 PUSH1 0x1 PUSH0 DUP3 DUP2 MSTORE PUSH1 0x20 ADD SWAP1 DUP2 MSTORE PUSH1 0x20 ADD PUSH0 KECCAK256 PUSH0 ADD PUSH0 SWAP1 SLOAD SWAP1 PUSH2 0x100 EXP SWAP1 DIV PUSH20 0xFFFFFFFFFFFFFFFFFFFFFFFFFFFFFFFFFFFFFFFF AND PUSH20 0xFFFFFFFFFFFFFFFFFFFFFFFFFFFFFFFFFFFFFFFF AND CALLER PUSH20 0xFFFFFFFFFFFFFFFFFFFFFFFFFFFFFFFFFFFFFFFF AND EQ PUSH2 0xB33 JUMPI PUSH1 0x40 MLOAD PUSH32 0xE681A15C00000000000000000000000000000000000000000000000000000000 DUP2 MSTORE PUSH1 0x4 ADD PUSH1 0x40 MLOAD DUP1 SWAP2 SUB SWAP1 REVERT JUMPDEST PUSH0 PUSH1 0x1 PUSH0 DUP11 DUP2 MSTORE PUSH1 0x20 ADD SWAP1 DUP2 MSTORE PUSH1 0x20 ADD PUSH0 KECCAK256 SWAP1 POP DUP1 PUSH1 0x1 ADD SLOAD DUP2 PUSH1 0x3 ADD SLOAD LT ISZERO PUSH2 0xB89 JUMPI PUSH1 0x40 MLOAD PUSH32 0x329F104F00000000000000000000000000000000000000000000000000000000 DUP2 MSTORE PUSH1 0x4 ADD PUSH1 0x40 MLOAD DUP1 SWAP2 SUB SWAP1 REVERT JUMPDEST PUSH0 DUP6 SUB PUSH2 0xBC2 JUMPI PUSH1 0x40 MLOAD PUSH32 0x5A612E300000000000000000000000000000000000000000000000000000000 DUP2 MSTORE PUSH1 0x4 ADD PUSH1 0x40 MLOAD DUP1 SWAP2 SUB SWAP1 REVERT JUMPDEST PUSH0 DUP9 SUB PUSH2 0xBFB JUMPI PUSH1 0x40 MLOAD PUSH32 0xBC5A91E400000000000000000000000000000000000000000000000000000000 DUP2 MSTORE PUSH1 0x4 ADD PUSH1 0x40 MLOAD DUP1 SWAP2 SUB SWAP1 REVERT JUMPDEST PUSH0 DUP2 PUSH1 0x4 ADD SLOAD DUP3 PUSH1 0x3 ADD SLOAD PUSH2 0xC10 SWAP2 SWAP1 PUSH2 0x217F JUMP JUMPDEST SWAP1 POP DUP1 DUP10 GT ISZERO PUSH2 0xC4C JUMPI PUSH1 0x40 MLOAD PUSH32 0x62D5BFEC00000000000000000000000000000000000000000000000000000000 DUP2 MSTORE PUSH1 0x4 ADD PUSH1 0x40 MLOAD DUP1 SWAP2 SUB SWAP1 REVERT JUMPDEST DUP2 PUSH1 0x6 ADD PUSH0 DUP2 SLOAD DUP1 SWAP3 SWAP2 SWAP1 PUSH2 0xC60 SWAP1 PUSH2 0x20DE JUMP JUMPDEST SWAP2 SWAP1 POP SSTORE SWAP5 POP PUSH0 DUP7 TIMESTAMP PUSH2 0xC73 SWAP2 SWAP1 PUSH2 0x2125 JUMP JUMPDEST SWAP1 POP PUSH1 0x40 MLOAD DUP1 PUSH1 0xC0 ADD PUSH1 0x40 MSTORE DUP1 DUP11 DUP11 DUP1 DUP1 PUSH1 0x1F ADD PUSH1 0x20 DUP1 SWAP2 DIV MUL PUSH1 0x20 ADD PUSH1 0x40 MLOAD SWAP1 DUP2 ADD PUSH1 0x40 MSTORE DUP1 SWAP4 SWAP3 SWAP2 SWAP1 DUP2 DUP2 MSTORE PUSH1 0x20 ADD DUP4 DUP4 DUP1 DUP3 DUP5 CALLDATACOPY PUSH0 DUP2 DUP5 ADD MSTORE PUSH1 0x1F NOT PUSH1 0x1F DUP3 ADD AND SWAP1 POP DUP1 DUP4 ADD SWAP3 POP POP POP POP POP POP POP DUP2 MSTORE PUSH1 0x20 ADD DUP12 DUP2 MSTORE PUSH1 0x20 ADD DUP3 DUP2 MSTORE PUSH1 0x20 ADD PUSH0 DUP2 MSTORE PUSH1 0x20 ADD PUSH0 DUP2 MSTORE PUSH1 0x20 ADD PUSH0 ISZERO ISZERO DUP2 MSTORE POP PUSH1 0x3 PUSH0 DUP14 DUP2 MSTORE PUSH1 0x20 ADD SWAP1 DUP2 MSTORE PUSH1 0x20 ADD PUSH0 KECCAK256 PUSH0 DUP9 DUP2 MSTORE PUSH1 0x20 ADD SWAP1 DUP2 MSTORE PUSH1 0x20 ADD PUSH0 KECCAK256 PUSH0 DUP3 ADD MLOAD DUP2 PUSH0 ADD SWAP1 DUP2 PUSH2 0xD1A SWAP2 SWAP1 PUSH2 0x241D JUMP JUMPDEST POP PUSH1 0x20 DUP3 ADD MLOAD DUP2 PUSH1 0x1 ADD SSTORE PUSH1 0x40 DUP3 ADD MLOAD DUP2 PUSH1 0x2 ADD SSTORE PUSH1 0x60 DUP3 ADD MLOAD DUP2 PUSH1 0x3 ADD SSTORE PUSH1 0x80 DUP3 ADD MLOAD DUP2 PUSH1 0x4 ADD SSTORE PUSH1 0xA0 DUP3 ADD MLOAD DUP2 PUSH1 0x5 ADD PUSH0 PUSH2 0x100 EXP DUP2 SLOAD DUP2 PUSH1 0xFF MUL NOT AND SWAP1 DUP4 ISZERO ISZERO MUL OR SWAP1 SSTORE POP SWAP1 POP POP CALLER PUSH20 0xFFFFFFFFFFFFFFFFFFFFFFFFFFFFFFFFFFFFFFFF AND DUP7 DUP13 PUSH32 0x28C5C37659B1971B04DE0AF85AEF515DEFA8F0FE1E7B7DBD533A98A646671141 DUP14 DUP6 DUP15 DUP15 PUSH1 0x40 MLOAD PUSH2 0xDB3 SWAP5 SWAP4 SWAP3 SWAP2 SWAP1 PUSH2 0x2536 JUMP JUMPDEST PUSH1 0x40 MLOAD DUP1 SWAP2 SUB SWAP1 LOG4 POP POP POP POP POP SWAP6 SWAP5 POP POP POP POP POP JUMP JUMPDEST DUP3 PUSH1 0x1 PUSH0 DUP3 DUP2 MSTORE PUSH1 0x20 ADD SWAP1 DUP2 MSTORE PUSH1 0x20 ADD PUSH0 KECCAK256 PUSH1 0x7 ADD PUSH0 SWAP1 SLOAD SWAP1 PUSH2 0x100 EXP SWAP1 DIV PUSH1 0xFF AND PUSH2 0xE21 JUMPI PUSH1 0x40 MLOAD PUSH32 0x9B35ED3B00000000000000000000000000000000000000000000000000000000 DUP2 MSTORE PUSH1 0x4 ADD PUSH1 0x40 MLOAD DUP1 SWAP2 SUB SWAP1 REVERT JUMPDEST DUP4 PUSH0 PUSH1 0x2 PUSH0 DUP4 DUP2 MSTORE PUSH1 0x20 ADD SWAP1 DUP2 MSTORE PUSH1 0x20 ADD PUSH0 KECCAK256 PUSH0 CALLER PUSH20 0xFFFFFFFFFFFFFFFFFFFFFFFFFFFFFFFFFFFFFFFF AND PUSH20 0xFFFFFFFFFFFFFFFFFFFFFFFFFFFFFFFFFFFFFFFF AND DUP2 MSTORE PUSH1 0x20 ADD SWAP1 DUP2 MSTORE PUSH1 0x20 ADD PUSH0 KECCAK256 SLOAD SUB PUSH2 0xEA7 JUMPI PUSH1 0x40 MLOAD PUSH32 0xD764187D00000000000000000000000000000000000000000000000000000000 DUP2 MSTORE PUSH1 0x4 ADD PUSH1 0x40 MLOAD DUP1 SWAP2 SUB SWAP1 REVERT JUMPDEST PUSH0 PUSH1 0x3 PUSH0 DUP8 DUP2 MSTORE PUSH1 0x20 ADD SWAP1 DUP2 MSTORE PUSH1 0x20 ADD PUSH0 KECCAK256 PUSH0 DUP7 DUP2 MSTORE PUSH1 0x20 ADD SWAP1 DUP2 MSTORE PUSH1 0x20 ADD PUSH0 KECCAK256 SWAP1 POP PUSH0 DUP2 PUSH1 0x2 ADD SLOAD SUB PUSH2 0xF07 JUMPI PUSH1 0x40 MLOAD PUSH32 0xD9C78E0200000000000000000000000000000000000000000000000000000000 DUP2 MSTORE PUSH1 0x4 ADD PUSH1 0x40 MLOAD DUP1 SWAP2 SUB SWAP1 REVERT JUMPDEST DUP1 PUSH1 0x5 ADD PUSH0 SWAP1 SLOAD SWAP1 PUSH2 0x100 EXP SWAP1 DIV PUSH1 0xFF AND ISZERO PUSH2 0xF4F JUMPI PUSH1 0x40 MLOAD PUSH32 0x51618D5300000000000000000000000000000000000000000000000000000000 DUP2 MSTORE PUSH1 0x4 ADD PUSH1 0x40 MLOAD DUP1 SWAP2 SUB SWAP1 REVERT JUMPDEST DUP1 PUSH1 0x2 ADD SLOAD TIMESTAMP LT PUSH2 0xF8C JUMPI PUSH1 0x40 MLOAD PUSH32 0xDC3B0DC400000000000000000000000000000000000000000000000000000000 DUP2 MSTORE PUSH1 0x4 ADD PUSH1 0x40 MLOAD DUP1 SWAP2 SUB SWAP1 REVERT JUMPDEST PUSH1 0x4 PUSH0 DUP8 DUP2 MSTORE PUSH1 0x20 ADD SWAP1 DUP2 MSTORE PUSH1 0x20 ADD PUSH0 KECCAK256 PUSH0 DUP7 DUP2 MSTORE PUSH1 0x20 ADD SWAP1 DUP2 MSTORE PUSH1 0x20 ADD PUSH0 KECCAK256 PUSH0 CALLER PUSH20 0xFFFFFFFFFFFFFFFFFFFFFFFFFFFFFFFFFFFFFFFF AND PUSH20 0xFFFFFFFFFFFFFFFFFFFFFFFFFFFFFFFFFFFFFFFF AND DUP2 MSTORE PUSH1 0x20 ADD SWAP1 DUP2 MSTORE PUSH1 0x20 ADD PUSH0 KECCAK256 PUSH0 SWAP1 SLOAD SWAP1 PUSH2 0x100 EXP SWAP1 DIV PUSH1 0xFF AND ISZERO PUSH2 0x102B JUMPI PUSH1 0x40 MLOAD PUSH32 0x7C9A1CF900000000000000000000000000000000000000000000000000000000 DUP2 MSTORE PUSH1 0x4 ADD PUSH1 0x40 MLOAD DUP1 SWAP2 SUB SWAP1 REVERT JUMPDEST PUSH0 PUSH1 0x2 PUSH0 DUP9 DUP2 MSTORE PUSH1 0x20 ADD SWAP1 DUP2 MSTORE PUSH1 0x20 ADD PUSH0 KECCAK256 PUSH0 CALLER PUSH20 0xFFFFFFFFFFFFFFFFFFFFFFFFFFFFFFFFFFFFFFFF AND PUSH20 0xFFFFFFFFFFFFFFFFFFFFFFFFFFFFFFFFFFFFFFFF AND DUP2 MSTORE PUSH1 0x20 ADD SWAP1 DUP2 MSTORE PUSH1 0x20 ADD PUSH0 KECCAK256 SLOAD SWAP1 POP PUSH1 0x1 PUSH1 0x4 PUSH0 DUP10 DUP2 MSTORE PUSH1 0x20 ADD SWAP1 DUP2 MSTORE PUSH1 0x20 ADD PUSH0 KECCAK256 PUSH0 DUP9 DUP2 MSTORE PUSH1 0x20 ADD SWAP1 DUP2 MSTORE PUSH1 0x20 ADD PUSH0 KECCAK256 PUSH0 CALLER PUSH20 0xFFFFFFFFFFFFFFFFFFFFFFFFFFFFFFFFFFFFFFFF AND PUSH20 0xFFFFFFFFFFFFFFFFFFFFFFFFFFFFFFFFFFFFFFFF AND DUP2 MSTORE PUSH1 0x20 ADD SWAP1 DUP2 MSTORE PUSH1 0x20 ADD PUSH0 KECCAK256 PUSH0 PUSH2 0x100 EXP DUP2 SLOAD DUP2 PUSH1 0xFF MUL NOT AND SWAP1 DUP4 ISZERO ISZERO MUL OR SWAP1 SSTORE POP DUP5 ISZERO PUSH2 0x1113 JUMPI DUP1 DUP3 PUSH1 0x3 ADD PUSH0 DUP3 DUP3 SLOAD PUSH2 0x1107 SWAP2 SWAP1 PUSH2 0x2125 JUMP JUMPDEST SWAP3 POP POP DUP2 SWAP1 SSTORE POP PUSH2 0x112E JUMP JUMPDEST DUP1 DUP3 PUSH1 0x4 ADD PUSH0 DUP3 DUP3 SLOAD PUSH2 0x1126 SWAP2 SWAP1 PUSH2 0x2125 JUMP JUMPDEST SWAP3 POP POP DUP2 SWAP1 SSTORE POP JUMPDEST CALLER PUSH20 0xFFFFFFFFFFFFFFFFFFFFFFFFFFFFFFFFFFFFFFFF AND DUP7 DUP9 PUSH32 0xCBA8212ABE84B02F9EA158460F9FB5F991ED6945B87767B4FFCBE6DDA848CD75 DUP9 DUP6 PUSH1 0x40 MLOAD PUSH2 0x1178 SWAP3 SWAP2 SWAP1 PUSH2 0x2574 JUMP JUMPDEST PUSH1 0x40 MLOAD DUP1 SWAP2 SUB SWAP1 LOG4 POP POP POP POP POP POP POP JUMP JUMPDEST PUSH0 SLOAD DUP2 JUMP JUMPDEST PUSH0 DUP2 PUSH1 0x1 PUSH0 DUP3 DUP2 MSTORE PUSH1 0x20 ADD SWAP1 DUP2 MSTORE PUSH1 0x20 ADD PUSH0 KECCAK256 PUSH1 0x7 ADD PUSH0 SWAP1 SLOAD SWAP1 PUSH2 0x100 EXP SWAP1 DIV PUSH1 0xFF AND PUSH2 0x11E7 JUMPI PUSH1 0x40 MLOAD PUSH32 0x9B35ED3B00000000000000000000000000000000000000000000000000000000 DUP2 MSTORE PUSH1 0x4 ADD PUSH1 0x40 MLOAD DUP1 SWAP2 SUB SWAP1 REVERT JUMPDEST PUSH0 PUSH1 0x1 PUSH0 DUP6 DUP2 MSTORE PUSH1 0x20 ADD SWAP1 DUP2 MSTORE PUSH1 0x20 ADD PUSH0 KECCAK256 SWAP1 POP DUP1 PUSH1 0x4 ADD SLOAD DUP2 PUSH1 0x3 ADD SLOAD PUSH2 0x120F SWAP2 SWAP1 PUSH2 0x217F JUMP JUMPDEST SWAP3 POP POP POP SWAP2 SWAP1 POP JUMP JUMPDEST PUSH2 0x1220 PUSH2 0x1B3B JUMP JUMPDEST DUP3 PUSH1 0x1 PUSH0 DUP3 DUP2 MSTORE PUSH1 0x20 ADD SWAP1 DUP2 MSTORE PUSH1 0x20 ADD PUSH0 KECCAK256 PUSH1 0x7 ADD PUSH0 SWAP1 SLOAD SWAP1 PUSH2 0x100 EXP SWAP1 DIV PUSH1 0xFF AND PUSH2 0x1278 JUMPI PUSH1 0x40 MLOAD PUSH32 0x9B35ED3B00000000000000000000000000000000000000000000000000000000 DUP2 MSTORE PUSH1 0x4 ADD PUSH1 0x40 MLOAD DUP1 SWAP2 SUB SWAP1 REVERT JUMPDEST PUSH0 PUSH1 0x3 PUSH0 DUP7 DUP2 MSTORE PUSH1 0x20 ADD SWAP1 DUP2 MSTORE PUSH1 0x20 ADD PUSH0 KECCAK256 PUSH0 DUP6 DUP2 MSTORE PUSH1 0x20 ADD SWAP1 DUP2 MSTORE PUSH1 0x20 ADD PUSH0 KECCAK256 PUSH1 0x2 ADD SLOAD SUB PUSH2 0x12D4 JUMPI PUSH1 0x40 MLOAD PUSH32 0xD9C78E0200000000000000000000000000000000000000000000000000000000 DUP2 MSTORE PUSH1 0x4 ADD PUSH1 0x40 MLOAD DUP1 SWAP2 SUB SWAP1 REVERT JUMPDEST PUSH1 0x3 PUSH0 DUP6 DUP2 MSTORE PUSH1 0x20 ADD SWAP1 DUP2 MSTORE PUSH1 0x20 ADD PUSH0 KECCAK256 PUSH0 DUP5 DUP2 MSTORE PUSH1 0x20 ADD SWAP1 DUP2 MSTORE PUSH1 0x20 ADD PUSH0 KECCAK256 PUSH1 0x40 MLOAD DUP1 PUSH1 0xC0 ADD PUSH1 0x40 MSTORE SWAP1 DUP2 PUSH0 DUP3 ADD DUP1 SLOAD PUSH2 0x130E SWAP1 PUSH2 0x224D JUMP JUMPDEST DUP1 PUSH1 0x1F ADD PUSH1 0x20 DUP1 SWAP2 DIV MUL PUSH1 0x20 ADD PUSH1 0x40 MLOAD SWAP1 DUP2 ADD PUSH1 0x40 MSTORE DUP1 SWAP3 SWAP2 SWAP1 DUP2 DUP2 MSTORE PUSH1 0x20 ADD DUP3 DUP1 SLOAD PUSH2 0x133A SWAP1 PUSH2 0x224D JUMP JUMPDEST DUP1 ISZERO PUSH2 0x1385 JUMPI DUP1 PUSH1 0x1F LT PUSH2 0x135C JUMPI PUSH2 0x100 DUP1 DUP4 SLOAD DIV MUL DUP4 MSTORE SWAP2 PUSH1 0x20 ADD SWAP2 PUSH2 0x1385 JUMP JUMPDEST DUP3 ADD SWAP2 SWAP1 PUSH0 MSTORE PUSH1 0x20 PUSH0 KECCAK256 SWAP1 JUMPDEST DUP2 SLOAD DUP2 MSTORE SWAP1 PUSH1 0x1 ADD SWAP1 PUSH1 0x20 ADD DUP1 DUP4 GT PUSH2 0x1368 JUMPI DUP3 SWAP1 SUB PUSH1 0x1F AND DUP3 ADD SWAP2 JUMPDEST POP POP POP POP POP DUP2 MSTORE PUSH1 0x20 ADD PUSH1 0x1 DUP3 ADD SLOAD DUP2 MSTORE PUSH1 0x20 ADD PUSH1 0x2 DUP3 ADD SLOAD DUP2 MSTORE PUSH1 0x20 ADD PUSH1 0x3 DUP3 ADD SLOAD DUP2 MSTORE PUSH1 0x20 ADD PUSH1 0x4 DUP3 ADD SLOAD DUP2 MSTORE PUSH1 0x20 ADD PUSH1 0x5 DUP3 ADD PUSH0 SWAP1 SLOAD SWAP1 PUSH2 0x100 EXP SWAP1 DIV PUSH1 0xFF AND ISZERO ISZERO ISZERO ISZERO DUP2 MSTORE POP POP SWAP2 POP POP SWAP3 SWAP2 POP POP JUMP JUMPDEST PUSH2 0x13E1 PUSH2 0x1A1B JUMP JUMPDEST DUP1 PUSH1 0x1 PUSH0 DUP3 DUP2 MSTORE PUSH1 0x20 ADD SWAP1 DUP2 MSTORE PUSH1 0x20 ADD PUSH0 KECCAK256 PUSH1 0x7 ADD PUSH0 SWAP1 SLOAD SWAP1 PUSH2 0x100 EXP SWAP1 DIV PUSH1 0xFF AND PUSH2 0x1439 JUMPI PUSH1 0x40 MLOAD PUSH32 0x9B35ED3B00000000000000000000000000000000000000000000000000000000 DUP2 MSTORE PUSH1 0x4 ADD PUSH1 0x40 MLOAD DUP1 SWAP2 SUB SWAP1 REVERT JUMPDEST PUSH0 PUSH1 0x1 PUSH0 DUP5 DUP2 MSTORE PUSH1 0x20 ADD SWAP1 DUP2 MSTORE PUSH1 0x20 ADD PUSH0 KECCAK256 SWAP1 POP DUP1 PUSH1 0x2 ADD SLOAD TIMESTAMP LT PUSH2 0x148A JUMPI PUSH1 0x40 MLOAD PUSH32 0x553AE05400000000000000000000000000000000000000000000000000000000 DUP2 MSTORE PUSH1 0x4 ADD PUSH1 0x40 MLOAD DUP1 SWAP2 SUB SWAP1 REVERT JUMPDEST PUSH0 CALLVALUE SUB PUSH2 0x14C3 JUMPI PUSH1 0x40 MLOAD PUSH32 0xAB82A24800000000000000000000000000000000000000000000000000000000 DUP2 MSTORE PUSH1 0x4 ADD PUSH1 0x40 MLOAD DUP1 SWAP2 SUB SWAP1 REVERT JUMPDEST PUSH0 PUSH1 0x2 PUSH0 DUP6 DUP2 MSTORE PUSH1 0x20 ADD SWAP1 DUP2 MSTORE PUSH1 0x20 ADD PUSH0 KECCAK256 PUSH0 CALLER PUSH20 0xFFFFFFFFFFFFFFFFFFFFFFFFFFFFFFFFFFFFFFFF AND PUSH20 0xFFFFFFFFFFFFFFFFFFFFFFFFFFFFFFFFFFFFFFFF AND DUP2 MSTORE PUSH1 0x20 ADD SWAP1 DUP2 MSTORE PUSH1 0x20 ADD PUSH0 KECCAK256 SLOAD SUB PUSH2 0x1532 JUMPI PUSH1 0x1 DUP2 PUSH1 0x5 ADD PUSH0 DUP3 DUP3 SLOAD PUSH2 0x152A SWAP2 SWAP1 PUSH2 0x2125 JUMP JUMPDEST SWAP3 POP POP DUP2 SWAP1 SSTORE POP JUMPDEST CALLVALUE PUSH1 0x2 PUSH0 DUP6 DUP2 MSTORE PUSH1 0x20 ADD SWAP1 DUP2 MSTORE PUSH1 0x20 ADD PUSH0 KECCAK256 PUSH0 CALLER PUSH20 0xFFFFFFFFFFFFFFFFFFFFFFFFFFFFFFFFFFFFFFFF AND PUSH20 0xFFFFFFFFFFFFFFFFFFFFFFFFFFFFFFFFFFFFFFFF AND DUP2 MSTORE PUSH1 0x20 ADD SWAP1 DUP2 MSTORE PUSH1 0x20 ADD PUSH0 KECCAK256 PUSH0 DUP3 DUP3 SLOAD PUSH2 0x158D SWAP2 SWAP1 PUSH2 0x2125 JUMP JUMPDEST SWAP3 POP POP DUP2 SWAP1 SSTORE POP CALLVALUE DUP2 PUSH1 0x3 ADD PUSH0 DUP3 DUP3 SLOAD PUSH2 0x15A7 SWAP2 SWAP1 PUSH2 0x2125 JUMP JUMPDEST SWAP3 POP POP DUP2 SWAP1 SSTORE POP CALLER PUSH20 0xFFFFFFFFFFFFFFFFFFFFFFFFFFFFFFFFFFFFFFFF AND DUP4 PUSH32 0x9A98994924B3F454E430A7E3C884AA145467FF2913F30A4B4C428A25797C7975 CALLVALUE DUP5 PUSH1 0x3 ADD SLOAD PUSH1 0x40 MLOAD PUSH2 0x15FB SWAP3 SWAP2 SWAP1 PUSH2 0x2158 JUMP JUMPDEST PUSH1 0x40 MLOAD DUP1 SWAP2 SUB SWAP1 LOG3 POP POP PUSH2 0x160D PUSH2 0x1A3D JUMP JUMPDEST POP JUMP JUMPDEST PUSH0 PUSH1 0x2 PUSH0 DUP5 DUP2 MSTORE PUSH1 0x20 ADD SWAP1 DUP2 MSTORE PUSH1 0x20 ADD PUSH0 KECCAK256 PUSH0 DUP4 PUSH20 0xFFFFFFFFFFFFFFFFFFFFFFFFFFFFFFFFFFFFFFFF AND PUSH20 0xFFFFFFFFFFFFFFFFFFFFFFFFFFFFFFFFFFFFFFFF AND DUP2 MSTORE PUSH1 0x20 ADD SWAP1 DUP2 MSTORE PUSH1 0x20 ADD PUSH0 KECCAK256 SLOAD SWAP1 POP SWAP3 SWAP2 POP POP JUMP JUMPDEST PUSH2 0x1388 DUP2 JUMP JUMPDEST PUSH2 0x1674 PUSH2 0x1A1B JUMP JUMPDEST DUP2 PUSH1 0x1 PUSH0 DUP3 DUP2 MSTORE PUSH1 0x20 ADD SWAP1 DUP2 MSTORE PUSH1 0x20 ADD PUSH0 KECCAK256 PUSH1 0x7 ADD PUSH0 SWAP1 SLOAD SWAP1 PUSH2 0x100 EXP SWAP1 DIV PUSH1 0xFF AND PUSH2 0x16CC JUMPI PUSH1 0x40 MLOAD PUSH32 0x9B35ED3B00000000000000000000000000000000000000000000000000000000 DUP2 MSTORE PUSH1 0x4 ADD PUSH1 0x40 MLOAD DUP1 SWAP2 SUB SWAP1 REVERT JUMPDEST PUSH0 PUSH1 0x1 PUSH0 DUP6 DUP2 MSTORE PUSH1 0x20 ADD SWAP1 DUP2 MSTORE PUSH1 0x20 ADD PUSH0 KECCAK256 SWAP1 POP PUSH0 PUSH1 0x3 PUSH0 DUP7 DUP2 MSTORE PUSH1 0x20 ADD SWAP1 DUP2 MSTORE PUSH1 0x20 ADD PUSH0 KECCAK256 PUSH0 DUP6 DUP2 MSTORE PUSH1 0x20 ADD SWAP1 DUP2 MSTORE PUSH1 0x20 ADD PUSH0 KECCAK256 SWAP1 POP PUSH0 DUP2 PUSH1 0x2 ADD SLOAD SUB PUSH2 0x1740 JUMPI PUSH1 0x40 MLOAD PUSH32 0xD9C78E0200000000000000000000000000000000000000000000000000000000 DUP2 MSTORE PUSH1 0x4 ADD PUSH1 0x40 MLOAD DUP1 SWAP2 SUB SWAP1 REVERT JUMPDEST DUP1 PUSH1 0x5 ADD PUSH0 SWAP1 SLOAD SWAP1 PUSH2 0x100 EXP SWAP1 DIV PUSH1 0xFF AND ISZERO PUSH2 0x1788 JUMPI PUSH1 0x40 MLOAD PUSH32 0x51618D5300000000000000000000000000000000000000000000000000000000 DUP2 MSTORE PUSH1 0x4 ADD PUSH1 0x40 MLOAD DUP1 SWAP2 SUB SWAP1 REVERT JUMPDEST DUP1 PUSH1 0x2 ADD SLOAD TIMESTAMP LT ISZERO PUSH2 0x17C6 JUMPI PUSH1 0x40 MLOAD PUSH32 0x335F0A6400000000000000000000000000000000000000000000000000000000 DUP2 MSTORE PUSH1 0x4 ADD PUSH1 0x40 MLOAD DUP1 SWAP2 SUB SWAP1 REVERT JUMPDEST PUSH0 DUP2 PUSH1 0x4 ADD SLOAD DUP3 PUSH1 0x3 ADD SLOAD GT SWAP1 POP PUSH0 PUSH2 0x1388 DUP5 PUSH1 0x3 ADD SLOAD PUSH2 0x17E7 SWAP2 SWAP1 PUSH2 0x259B JUMP JUMPDEST PUSH2 0x2710 DUP5 PUSH1 0x3 ADD SLOAD PUSH2 0x17F9 SWAP2 SWAP1 PUSH2 0x259B JUMP JUMPDEST GT SWAP1 POP DUP2 ISZERO DUP1 PUSH2 0x1807 JUMPI POP DUP1 ISZERO JUMPDEST ISZERO PUSH2 0x183E JUMPI PUSH1 0x40 MLOAD PUSH32 0xCC6633C500000000000000000000000000000000000000000000000000000000 DUP2 MSTORE PUSH1 0x4 ADD PUSH1 0x40 MLOAD DUP1 SWAP2 SUB SWAP1 REVERT JUMPDEST PUSH0 DUP5 PUSH1 0x4 ADD SLOAD DUP6 PUSH1 0x3 ADD SLOAD PUSH2 0x1853 SWAP2 SWAP1 PUSH2 0x217F JUMP JUMPDEST SWAP1 POP DUP1 DUP5 PUSH1 0x1 ADD SLOAD GT ISZERO PUSH2 0x1893 JUMPI PUSH1 0x40 MLOAD PUSH32 0x62D5BFEC00000000000000000000000000000000000000000000000000000000 DUP2 MSTORE PUSH1 0x4 ADD PUSH1 0x40 MLOAD DUP1 SWAP2 SUB SWAP1 REVERT JUMPDEST PUSH1 0x1 DUP5 PUSH1 0x5 ADD PUSH0 PUSH2 0x100 EXP DUP2 SLOAD DUP2 PUSH1 0xFF MUL NOT AND SWAP1 DUP4 ISZERO ISZERO MUL OR SWAP1 SSTORE POP DUP4 PUSH1 0x1 ADD SLOAD DUP6 PUSH1 0x4 ADD PUSH0 DUP3 DUP3 SLOAD PUSH2 0x18C6 SWAP2 SWAP1 PUSH2 0x2125 JUMP JUMPDEST SWAP3 POP POP DUP2 SWAP1 SSTORE POP PUSH0 DUP6 PUSH0 ADD PUSH0 SWAP1 SLOAD SWAP1 PUSH2 0x100 EXP SWAP1 DIV PUSH20 0xFFFFFFFFFFFFFFFFFFFFFFFFFFFFFFFFFFFFFFFF AND PUSH20 0xFFFFFFFFFFFFFFFFFFFFFFFFFFFFFFFFFFFFFFFF AND DUP6 PUSH1 0x1 ADD SLOAD PUSH1 0x40 MLOAD PUSH2 0x1918 SWAP1 PUSH2 0x21DF JUMP JUMPDEST PUSH0 PUSH1 0x40 MLOAD DUP1 DUP4 SUB DUP2 DUP6 DUP8 GAS CALL SWAP3 POP POP POP RETURNDATASIZE DUP1 PUSH0 DUP2 EQ PUSH2 0x1952 JUMPI PUSH1 0x40 MLOAD SWAP2 POP PUSH1 0x1F NOT PUSH1 0x3F RETURNDATASIZE ADD AND DUP3 ADD PUSH1 0x40 MSTORE RETURNDATASIZE DUP3 MSTORE RETURNDATASIZE PUSH0 PUSH1 0x20 DUP5 ADD RETURNDATACOPY PUSH2 0x1957 JUMP JUMPDEST PUSH1 0x60 SWAP2 POP JUMPDEST POP POP SWAP1 POP DUP1 PUSH2 0x1992 JUMPI PUSH1 0x40 MLOAD PUSH32 0x90B8EC1800000000000000000000000000000000000000000000000000000000 DUP2 MSTORE PUSH1 0x4 ADD PUSH1 0x40 MLOAD DUP1 SWAP2 SUB SWAP1 REVERT JUMPDEST DUP6 PUSH0 ADD PUSH0 SWAP1 SLOAD SWAP1 PUSH2 0x100 EXP SWAP1 DIV PUSH20 0xFFFFFFFFFFFFFFFFFFFFFFFFFFFFFFFFFFFFFFFF AND PUSH20 0xFFFFFFFFFFFFFFFFFFFFFFFFFFFFFFFFFFFFFFFF AND DUP9 DUP11 PUSH32 0xD5EB304362FFE48045A3AE2ED7E0D2CFED08EB62F44DC87C694D42606E8205D9 DUP9 PUSH1 0x1 ADD SLOAD PUSH1 0x40 MLOAD PUSH2 0x1A00 SWAP2 SWAP1 PUSH2 0x1CD3 JUMP JUMPDEST PUSH1 0x40 MLOAD DUP1 SWAP2 SUB SWAP1 LOG4 POP POP POP POP POP POP POP PUSH2 0x1A17 PUSH2 0x1A3D JUMP JUMPDEST POP POP JUMP JUMPDEST PUSH2 0x1A23 PUSH2 0x1A57 JUMP JUMPDEST PUSH1 0x2 PUSH2 0x1A35 PUSH2 0x1A30 PUSH2 0x1A98 JUMP JUMPDEST PUSH2 0x1AC1 JUMP JUMPDEST PUSH0 ADD DUP2 SWAP1 SSTORE POP JUMP JUMPDEST PUSH1 0x1 PUSH2 0x1A4F PUSH2 0x1A4A PUSH2 0x1A98 JUMP JUMPDEST PUSH2 0x1AC1 JUMP JUMPDEST PUSH0 ADD DUP2 SWAP1 SSTORE POP JUMP JUMPDEST PUSH2 0x1A5F PUSH2 0x1ACA JUMP JUMPDEST ISZERO PUSH2 0x1A96 JUMPI PUSH1 0x40 MLOAD PUSH32 0x3EE5AEB500000000000000000000000000000000000000000000000000000000 DUP2 MSTORE PUSH1 0x4 ADD PUSH1 0x40 MLOAD DUP1 SWAP2 SUB SWAP1 REVERT JUMPDEST JUMP JUMPDEST PUSH0 PUSH32 0x9B779B17422D0DF92223018B32B4D1FA46E071723D6817E2486D003BECC55F00 PUSH0 SHL SWAP1 POP SWAP1 JUMP JUMPDEST PUSH0 DUP2 SWAP1 POP SWAP2 SWAP1 POP JUMP JUMPDEST PUSH0 PUSH1 0x2 PUSH2 0x1ADD PUSH2 0x1AD8 PUSH2 0x1A98 JUMP JUMPDEST PUSH2 0x1AC1 JUMP JUMPDEST PUSH0 ADD SLOAD EQ SWAP1 POP SWAP1 JUMP JUMPDEST PUSH1 0x40 MLOAD DUP1 PUSH2 0x100 ADD PUSH1 0x40 MSTORE DUP1 PUSH0 PUSH20 0xFFFFFFFFFFFFFFFFFFFFFFFFFFFFFFFFFFFFFFFF AND DUP2 MSTORE PUSH1 0x20 ADD PUSH0 DUP2 MSTORE PUSH1 0x20 ADD PUSH0 DUP2 MSTORE PUSH1 0x20 ADD PUSH0 DUP2 MSTORE PUSH1 0x20 ADD PUSH0 DUP2 MSTORE PUSH1 0x20 ADD PUSH0 DUP2 MSTORE PUSH1 0x20 ADD PUSH0 DUP2 MSTORE PUSH1 0x20 ADD PUSH0 ISZERO ISZERO DUP2 MSTORE POP SWAP1 JUMP JUMPDEST PUSH1 0x40 MLOAD DUP1 PUSH1 0xC0 ADD PUSH1 0x40 MSTORE DUP1 PUSH1 0x60 DUP2 MSTORE PUSH1 0x20 ADD PUSH0 DUP2 MSTORE PUSH1 0x20 ADD PUSH0 DUP2 MSTORE PUSH1 0x20 ADD PUSH0 DUP2 MSTORE PUSH1 0x20 ADD PUSH0 DUP2 MSTORE PUSH1 0x20 ADD PUSH0 ISZERO ISZERO DUP2 MSTORE POP SWAP1 JUMP JUMPDEST PUSH0 PUSH0 REVERT JUMPDEST PUSH0 PUSH0 REVERT JUMPDEST PUSH0 DUP2 SWAP1 POP SWAP2 SWAP1 POP JUMP JUMPDEST PUSH2 0x1B88 DUP2 PUSH2 0x1B76 JUMP JUMPDEST DUP2 EQ PUSH2 0x1B92 JUMPI PUSH0 PUSH0 REVERT JUMPDEST POP JUMP JUMPDEST PUSH0 DUP2 CALLDATALOAD SWAP1 POP PUSH2 0x1BA3 DUP2 PUSH2 0x1B7F JUMP JUMPDEST SWAP3 SWAP2 POP POP JUMP JUMPDEST PUSH0 PUSH20 0xFFFFFFFFFFFFFFFFFFFFFFFFFFFFFFFFFFFFFFFF DUP3 AND SWAP1 POP SWAP2 SWAP1 POP JUMP JUMPDEST PUSH0 PUSH2 0x1BD2 DUP3 PUSH2 0x1BA9 JUMP JUMPDEST SWAP1 POP SWAP2 SWAP1 POP JUMP JUMPDEST PUSH2 0x1BE2 DUP2 PUSH2 0x1BC8 JUMP JUMPDEST DUP2 EQ PUSH2 0x1BEC JUMPI PUSH0 PUSH0 REVERT JUMPDEST POP JUMP JUMPDEST PUSH0 DUP2 CALLDATALOAD SWAP1 POP PUSH2 0x1BFD DUP2 PUSH2 0x1BD9 JUMP JUMPDEST SWAP3 SWAP2 POP POP JUMP JUMPDEST PUSH0 PUSH0 PUSH0 PUSH1 0x60 DUP5 DUP7 SUB SLT ISZERO PUSH2 0x1C1A JUMPI PUSH2 0x1C19 PUSH2 0x1B6E JUMP JUMPDEST JUMPDEST PUSH0 PUSH2 0x1C27 DUP7 DUP3 DUP8 ADD PUSH2 0x1B95 JUMP JUMPDEST SWAP4 POP POP PUSH1 0x20 PUSH2 0x1C38 DUP7 DUP3 DUP8 ADD PUSH2 0x1B95 JUMP JUMPDEST SWAP3 POP POP PUSH1 0x40 PUSH2 0x1C49 DUP7 DUP3 DUP8 ADD PUSH2 0x1BEF JUMP JUMPDEST SWAP2 POP POP SWAP3 POP SWAP3 POP SWAP3 JUMP JUMPDEST PUSH0 DUP2 ISZERO ISZERO SWAP1 POP SWAP2 SWAP1 POP JUMP JUMPDEST PUSH2 0x1C67 DUP2 PUSH2 0x1C53 JUMP JUMPDEST DUP3 MSTORE POP POP JUMP JUMPDEST PUSH0 PUSH1 0x20 DUP3 ADD SWAP1 POP PUSH2 0x1C80 PUSH0 DUP4 ADD DUP5 PUSH2 0x1C5E JUMP JUMPDEST SWAP3 SWAP2 POP POP JUMP JUMPDEST PUSH0 PUSH0 PUSH1 0x40 DUP4 DUP6 SUB SLT ISZERO PUSH2 0x1C9C JUMPI PUSH2 0x1C9B PUSH2 0x1B6E JUMP JUMPDEST JUMPDEST PUSH0 PUSH2 0x1CA9 DUP6 DUP3 DUP7 ADD PUSH2 0x1B95 JUMP JUMPDEST SWAP3 POP POP PUSH1 0x20 PUSH2 0x1CBA DUP6 DUP3 DUP7 ADD PUSH2 0x1B95 JUMP JUMPDEST SWAP2 POP POP SWAP3 POP SWAP3 SWAP1 POP JUMP JUMPDEST PUSH2 0x1CCD DUP2 PUSH2 0x1B76 JUMP JUMPDEST DUP3 MSTORE POP POP JUMP JUMPDEST PUSH0 PUSH1 0x20 DUP3 ADD SWAP1 POP PUSH2 0x1CE6 PUSH0 DUP4 ADD DUP5 PUSH2 0x1CC4 JUMP JUMPDEST SWAP3 SWAP2 POP POP JUMP JUMPDEST PUSH0 PUSH0 PUSH1 0x40 DUP4 DUP6 SUB SLT ISZERO PUSH2 0x1D02 JUMPI PUSH2 0x1D01 PUSH2 0x1B6E JUMP JUMPDEST JUMPDEST PUSH0 PUSH2 0x1D0F DUP6 DUP3 DUP7 ADD PUSH2 0x1B95 JUMP JUMPDEST SWAP3 POP POP PUSH1 0x20 PUSH2 0x1D20 DUP6 DUP3 DUP7 ADD PUSH2 0x1BEF JUMP JUMPDEST SWAP2 POP POP SWAP3 POP SWAP3 SWAP1 POP JUMP JUMPDEST PUSH0 PUSH1 0x20 DUP3 DUP5 SUB SLT ISZERO PUSH2 0x1D3F JUMPI PUSH2 0x1D3E PUSH2 0x1B6E JUMP JUMPDEST JUMPDEST PUSH0 PUSH2 0x1D4C DUP5 DUP3 DUP6 ADD PUSH2 0x1B95 JUMP JUMPDEST SWAP2 POP POP SWAP3 SWAP2 POP POP JUMP JUMPDEST PUSH2 0x1D5E DUP2 PUSH2 0x1BC8 JUMP JUMPDEST DUP3 MSTORE POP POP JUMP JUMPDEST PUSH2 0x1D6D DUP2 PUSH2 0x1B76 JUMP JUMPDEST DUP3 MSTORE POP POP JUMP JUMPDEST PUSH2 0x1D7C DUP2 PUSH2 0x1C53 JUMP JUMPDEST DUP3 MSTORE POP POP JUMP JUMPDEST PUSH2 0x100 DUP3 ADD PUSH0 DUP3 ADD MLOAD PUSH2 0x1D97 PUSH0 DUP6 ADD DUP3 PUSH2 0x1D55 JUMP JUMPDEST POP PUSH1 0x20 DUP3 ADD MLOAD PUSH2 0x1DAA PUSH1 0x20 DUP6 ADD DUP3 PUSH2 0x1D64 JUMP JUMPDEST POP PUSH1 0x40 DUP3 ADD MLOAD PUSH2 0x1DBD PUSH1 0x40 DUP6 ADD DUP3 PUSH2 0x1D64 JUMP JUMPDEST POP PUSH1 0x60 DUP3 ADD MLOAD PUSH2 0x1DD0 PUSH1 0x60 DUP6 ADD DUP3 PUSH2 0x1D64 JUMP JUMPDEST POP PUSH1 0x80 DUP3 ADD MLOAD PUSH2 0x1DE3 PUSH1 0x80 DUP6 ADD DUP3 PUSH2 0x1D64 JUMP JUMPDEST POP PUSH1 0xA0 DUP3 ADD MLOAD PUSH2 0x1DF6 PUSH1 0xA0 DUP6 ADD DUP3 PUSH2 0x1D64 JUMP JUMPDEST POP PUSH1 0xC0 DUP3 ADD MLOAD PUSH2 0x1E09 PUSH1 0xC0 DUP6 ADD DUP3 PUSH2 0x1D64 JUMP JUMPDEST POP PUSH1 0xE0 DUP3 ADD MLOAD PUSH2 0x1E1C PUSH1 0xE0 DUP6 ADD DUP3 PUSH2 0x1D73 JUMP JUMPDEST POP POP POP POP JUMP JUMPDEST PUSH0 PUSH2 0x100 DUP3 ADD SWAP1 POP PUSH2 0x1E36 PUSH0 DUP4 ADD DUP5 PUSH2 0x1D82 JUMP JUMPDEST SWAP3 SWAP2 POP POP JUMP JUMPDEST PUSH0 PUSH0 REVERT JUMPDEST PUSH0 PUSH0 REVERT JUMPDEST PUSH0 PUSH0 REVERT JUMPDEST PUSH0 PUSH0 DUP4 PUSH1 0x1F DUP5 ADD SLT PUSH2 0x1E5D JUMPI PUSH2 0x1E5C PUSH2 0x1E3C JUMP JUMPDEST JUMPDEST DUP3 CALLDATALOAD SWAP1 POP PUSH8 0xFFFFFFFFFFFFFFFF DUP2 GT ISZERO PUSH2 0x1E7A JUMPI PUSH2 0x1E79 PUSH2 0x1E40 JUMP JUMPDEST JUMPDEST PUSH1 0x20 DUP4 ADD SWAP2 POP DUP4 PUSH1 0x1 DUP3 MUL DUP4 ADD GT ISZERO PUSH2 0x1E96 JUMPI PUSH2 0x1E95 PUSH2 0x1E44 JUMP JUMPDEST JUMPDEST SWAP3 POP SWAP3 SWAP1 POP JUMP JUMPDEST PUSH0 PUSH0 PUSH0 PUSH0 PUSH0 PUSH1 0x80 DUP7 DUP9 SUB SLT ISZERO PUSH2 0x1EB6 JUMPI PUSH2 0x1EB5 PUSH2 0x1B6E JUMP JUMPDEST JUMPDEST PUSH0 PUSH2 0x1EC3 DUP9 DUP3 DUP10 ADD PUSH2 0x1B95 JUMP JUMPDEST SWAP6 POP POP PUSH1 0x20 PUSH2 0x1ED4 DUP9 DUP3 DUP10 ADD PUSH2 0x1B95 JUMP JUMPDEST SWAP5 POP POP PUSH1 0x40 DUP7 ADD CALLDATALOAD PUSH8 0xFFFFFFFFFFFFFFFF DUP2 GT ISZERO PUSH2 0x1EF5 JUMPI PUSH2 0x1EF4 PUSH2 0x1B72 JUMP JUMPDEST JUMPDEST PUSH2 0x1F01 DUP9 DUP3 DUP10 ADD PUSH2 0x1E48 JUMP JUMPDEST SWAP4 POP SWAP4 POP POP PUSH1 0x60 PUSH2 0x1F14 DUP9 DUP3 DUP10 ADD PUSH2 0x1B95 JUMP JUMPDEST SWAP2 POP POP SWAP3 SWAP6 POP SWAP3 SWAP6 SWAP1 SWAP4 POP JUMP JUMPDEST PUSH2 0x1F2A DUP2 PUSH2 0x1C53 JUMP JUMPDEST DUP2 EQ PUSH2 0x1F34 JUMPI PUSH0 PUSH0 REVERT JUMPDEST POP JUMP JUMPDEST PUSH0 DUP2 CALLDATALOAD SWAP1 POP PUSH2 0x1F45 DUP2 PUSH2 0x1F21 JUMP JUMPDEST SWAP3 SWAP2 POP POP JUMP JUMPDEST PUSH0 PUSH0 PUSH0 PUSH1 0x60 DUP5 DUP7 SUB SLT ISZERO PUSH2 0x1F62 JUMPI PUSH2 0x1F61 PUSH2 0x1B6E JUMP JUMPDEST JUMPDEST PUSH0 PUSH2 0x1F6F DUP7 DUP3 DUP8 ADD PUSH2 0x1B95 JUMP JUMPDEST SWAP4 POP POP PUSH1 0x20 PUSH2 0x1F80 DUP7 DUP3 DUP8 ADD PUSH2 0x1B95 JUMP JUMPDEST SWAP3 POP POP PUSH1 0x40 PUSH2 0x1F91 DUP7 DUP3 DUP8 ADD PUSH2 0x1F37 JUMP JUMPDEST SWAP2 POP POP SWAP3 POP SWAP3 POP SWAP3 JUMP JUMPDEST PUSH0 DUP2 MLOAD SWAP1 POP SWAP2 SWAP1 POP JUMP JUMPDEST PUSH0 DUP3 DUP3 MSTORE PUSH1 0x20 DUP3 ADD SWAP1 POP SWAP3 SWAP2 POP POP JUMP JUMPDEST DUP3 DUP2 DUP4 MCOPY PUSH0 DUP4 DUP4 ADD MSTORE POP POP POP JUMP JUMPDEST PUSH0 PUSH1 0x1F NOT PUSH1 0x1F DUP4 ADD AND SWAP1 POP SWAP2 SWAP1 POP JUMP JUMPDEST PUSH0 PUSH2 0x1FDD DUP3 PUSH2 0x1F9B JUMP JUMPDEST PUSH2 0x1FE7 DUP2 DUP6 PUSH2 0x1FA5 JUMP JUMPDEST SWAP4 POP PUSH2 0x1FF7 DUP2 DUP6 PUSH1 0x20 DUP7 ADD PUSH2 0x1FB5 JUMP JUMPDEST PUSH2 0x2000 DUP2 PUSH2 0x1FC3 JUMP JUMPDEST DUP5 ADD SWAP2 POP POP SWAP3 SWAP2 POP POP JUMP JUMPDEST PUSH0 PUSH1 0xC0 DUP4 ADD PUSH0 DUP4 ADD MLOAD DUP5 DUP3 SUB PUSH0 DUP7 ADD MSTORE PUSH2 0x2025 DUP3 DUP3 PUSH2 0x1FD3 JUMP JUMPDEST SWAP2 POP POP PUSH1 0x20 DUP4 ADD MLOAD PUSH2 0x203A PUSH1 0x20 DUP7 ADD DUP3 PUSH2 0x1D64 JUMP JUMPDEST POP PUSH1 0x40 DUP4 ADD MLOAD PUSH2 0x204D PUSH1 0x40 DUP7 ADD DUP3 PUSH2 0x1D64 JUMP JUMPDEST POP PUSH1 0x60 DUP4 ADD MLOAD PUSH2 0x2060 PUSH1 0x60 DUP7 ADD DUP3 PUSH2 0x1D64 JUMP JUMPDEST POP PUSH1 0x80 DUP4 ADD MLOAD PUSH2 0x2073 PUSH1 0x80 DUP7 ADD DUP3 PUSH2 0x1D64 JUMP JUMPDEST POP PUSH1 0xA0 DUP4 ADD MLOAD PUSH2 0x2086 PUSH1 0xA0 DUP7 ADD DUP3 PUSH2 0x1D73 JUMP JUMPDEST POP DUP1 SWAP2 POP POP SWAP3 SWAP2 POP POP JUMP JUMPDEST PUSH0 PUSH1 0x20 DUP3 ADD SWAP1 POP DUP2 DUP2 SUB PUSH0 DUP4 ADD MSTORE PUSH2 0x20A9 DUP2 DUP5 PUSH2 0x200B JUMP JUMPDEST SWAP1 POP SWAP3 SWAP2 POP POP JUMP JUMPDEST PUSH32 0x4E487B7100000000000000000000000000000000000000000000000000000000 PUSH0 MSTORE PUSH1 0x11 PUSH1 0x4 MSTORE PUSH1 0x24 PUSH0 REVERT JUMPDEST PUSH0 PUSH2 0x20E8 DUP3 PUSH2 0x1B76 JUMP JUMPDEST SWAP2 POP PUSH32 0xFFFFFFFFFFFFFFFFFFFFFFFFFFFFFFFFFFFFFFFFFFFFFFFFFFFFFFFFFFFFFFFF DUP3 SUB PUSH2 0x211A JUMPI PUSH2 0x2119 PUSH2 0x20B1 JUMP JUMPDEST JUMPDEST PUSH1 0x1 DUP3 ADD SWAP1 POP SWAP2 SWAP1 POP JUMP JUMPDEST PUSH0 PUSH2 0x212F DUP3 PUSH2 0x1B76 JUMP JUMPDEST SWAP2 POP PUSH2 0x213A DUP4 PUSH2 0x1B76 JUMP JUMPDEST SWAP3 POP DUP3 DUP3 ADD SWAP1 POP DUP1 DUP3 GT ISZERO PUSH2 0x2152 JUMPI PUSH2 0x2151 PUSH2 0x20B1 JUMP JUMPDEST JUMPDEST SWAP3 SWAP2 POP POP JUMP JUMPDEST PUSH0 PUSH1 0x40 DUP3 ADD SWAP1 POP PUSH2 0x216B PUSH0 DUP4 ADD DUP6 PUSH2 0x1CC4 JUMP JUMPDEST PUSH2 0x2178 PUSH1 0x20 DUP4 ADD DUP5 PUSH2 0x1CC4 JUMP JUMPDEST SWAP4 SWAP3 POP POP POP JUMP JUMPDEST PUSH0 PUSH2 0x2189 DUP3 PUSH2 0x1B76 JUMP JUMPDEST SWAP2 POP PUSH2 0x2194 DUP4 PUSH2 0x1B76 JUMP JUMPDEST SWAP3 POP DUP3 DUP3 SUB SWAP1 POP DUP2 DUP2 GT ISZERO PUSH2 0x21AC JUMPI PUSH2 0x21AB PUSH2 0x20B1 JUMP JUMPDEST JUMPDEST SWAP3 SWAP2 POP POP JUMP JUMPDEST PUSH0 DUP2 SWAP1 POP SWAP3 SWAP2 POP POP JUMP JUMPDEST POP JUMP JUMPDEST PUSH0 PUSH2 0x21CA PUSH0 DUP4 PUSH2 0x21B2 JUMP JUMPDEST SWAP2 POP PUSH2 0x21D5 DUP3 PUSH2 0x21BC JUMP JUMPDEST PUSH0 DUP3 ADD SWAP1 POP SWAP2 SWAP1 POP JUMP JUMPDEST PUSH0 PUSH2 0x21E9 DUP3 PUSH2 0x21BF JUMP JUMPDEST SWAP2 POP DUP2 SWAP1 POP SWAP2 SWAP1 POP JUMP JUMPDEST PUSH32 0x4E487B7100000000000000000000000000000000000000000000000000000000 PUSH0 MSTORE PUSH1 0x41 PUSH1 0x4 MSTORE PUSH1 0x24 PUSH0 REVERT JUMPDEST PUSH32 0x4E487B7100000000000000000000000000000000000000000000000000000000 PUSH0 MSTORE PUSH1 0x22 PUSH1 0x4 MSTORE PUSH1 0x24 PUSH0 REVERT JUMPDEST PUSH0 PUSH1 0x2 DUP3 DIV SWAP1 POP PUSH1 0x1 DUP3 AND DUP1 PUSH2 0x2264 JUMPI PUSH1 0x7F DUP3 AND SWAP2 POP JUMPDEST PUSH1 0x20 DUP3 LT DUP2 SUB PUSH2 0x2277 JUMPI PUSH2 0x2276 PUSH2 0x2220 JUMP JUMPDEST JUMPDEST POP SWAP2 SWAP1 POP JUMP JUMPDEST PUSH0 DUP2 SWAP1 POP DUP2 PUSH0 MSTORE PUSH1 0x20 PUSH0 KECCAK256 SWAP1 POP SWAP2 SWAP1 POP JUMP JUMPDEST PUSH0 PUSH1 0x20 PUSH1 0x1F DUP4 ADD DIV SWAP1 POP SWAP2 SWAP1 POP JUMP JUMPDEST PUSH0 DUP3 DUP3 SHL SWAP1 POP SWAP3 SWAP2 POP POP JUMP JUMPDEST PUSH0 PUSH1 0x8 DUP4 MUL PUSH2 0x22D9 PUSH32 0xFFFFFFFFFFFFFFFFFFFFFFFFFFFFFFFFFFFFFFFFFFFFFFFFFFFFFFFFFFFFFFFF DUP3 PUSH2 0x229E JUMP JUMPDEST PUSH2 0x22E3 DUP7 DUP4 PUSH2 0x229E JUMP JUMPDEST SWAP6 POP DUP1 NOT DUP5 AND SWAP4 POP DUP1 DUP7 AND DUP5 OR SWAP3 POP POP POP SWAP4 SWAP3 POP POP POP JUMP JUMPDEST PUSH0 DUP2 SWAP1 POP SWAP2 SWAP1 POP JUMP JUMPDEST PUSH0 PUSH2 0x231E PUSH2 0x2319 PUSH2 0x2314 DUP5 PUSH2 0x1B76 JUMP JUMPDEST PUSH2 0x22FB JUMP JUMPDEST PUSH2 0x1B76 JUMP JUMPDEST SWAP1 POP SWAP2 SWAP1 POP JUMP JUMPDEST PUSH0 DUP2 SWAP1 POP SWAP2 SWAP1 POP JUMP JUMPDEST PUSH2 0x2337 DUP4 PUSH2 0x2304 JUMP JUMPDEST PUSH2 0x234B PUSH2 0x2343 DUP3 PUSH2 0x2325 JUMP JUMPDEST DUP5 DUP5 SLOAD PUSH2 0x22AA JUMP JUMPDEST DUP3 SSTORE POP POP POP POP JUMP JUMPDEST PUSH0 PUSH0 SWAP1 POP SWAP1 JUMP JUMPDEST PUSH2 0x2362 PUSH2 0x2353 JUMP JUMPDEST PUSH2 0x236D DUP2 DUP5 DUP5 PUSH2 0x232E JUMP JUMPDEST POP POP POP JUMP JUMPDEST JUMPDEST DUP2 DUP2 LT ISZERO PUSH2 0x2390 JUMPI PUSH2 0x2385 PUSH0 DUP3 PUSH2 0x235A JUMP JUMPDEST PUSH1 0x1 DUP2 ADD SWAP1 POP PUSH2 0x2373 JUMP JUMPDEST POP POP JUMP JUMPDEST PUSH1 0x1F DUP3 GT ISZERO PUSH2 0x23D5 JUMPI PUSH2 0x23A6 DUP2 PUSH2 0x227D JUMP JUMPDEST PUSH2 0x23AF DUP5 PUSH2 0x228F JUMP JUMPDEST DUP2 ADD PUSH1 0x20 DUP6 LT ISZERO PUSH2 0x23BE JUMPI DUP2 SWAP1 POP JUMPDEST PUSH2 0x23D2 PUSH2 0x23CA DUP6 PUSH2 0x228F JUMP JUMPDEST DUP4 ADD DUP3 PUSH2 0x2372 JUMP JUMPDEST POP POP JUMPDEST POP POP POP JUMP JUMPDEST PUSH0 DUP3 DUP3 SHR SWAP1 POP SWAP3 SWAP2 POP POP JUMP JUMPDEST PUSH0 PUSH2 0x23F5 PUSH0 NOT DUP5 PUSH1 0x8 MUL PUSH2 0x23DA JUMP JUMPDEST NOT DUP1 DUP4 AND SWAP2 POP POP SWAP3 SWAP2 POP POP JUMP JUMPDEST PUSH0 PUSH2 0x240D DUP4 DUP4 PUSH2 0x23E6 JUMP JUMPDEST SWAP2 POP DUP3 PUSH1 0x2 MUL DUP3 OR SWAP1 POP SWAP3 SWAP2 POP POP JUMP JUMPDEST PUSH2 0x2426 DUP3 PUSH2 0x1F9B JUMP JUMPDEST PUSH8 0xFFFFFFFFFFFFFFFF DUP2 GT ISZERO PUSH2 0x243F JUMPI PUSH2 0x243E PUSH2 0x21F3 JUMP JUMPDEST JUMPDEST PUSH2 0x2449 DUP3 SLOAD PUSH2 0x224D JUMP JUMPDEST PUSH2 0x2454 DUP3 DUP3 DUP6 PUSH2 0x2394 JUMP JUMPDEST PUSH0 PUSH1 0x20 SWAP1 POP PUSH1 0x1F DUP4 GT PUSH1 0x1 DUP2 EQ PUSH2 0x2485 JUMPI PUSH0 DUP5 ISZERO PUSH2 0x2473 JUMPI DUP3 DUP8 ADD MLOAD SWAP1 POP JUMPDEST PUSH2 0x247D DUP6 DUP3 PUSH2 0x2402 JUMP JUMPDEST DUP7 SSTORE POP PUSH2 0x24E4 JUMP JUMPDEST PUSH1 0x1F NOT DUP5 AND PUSH2 0x2493 DUP7 PUSH2 0x227D JUMP JUMPDEST PUSH0 JUMPDEST DUP3 DUP2 LT ISZERO PUSH2 0x24BA JUMPI DUP5 DUP10 ADD MLOAD DUP3 SSTORE PUSH1 0x1 DUP3 ADD SWAP2 POP PUSH1 0x20 DUP6 ADD SWAP5 POP PUSH1 0x20 DUP2 ADD SWAP1 POP PUSH2 0x2495 JUMP JUMPDEST DUP7 DUP4 LT ISZERO PUSH2 0x24D7 JUMPI DUP5 DUP10 ADD MLOAD PUSH2 0x24D3 PUSH1 0x1F DUP10 AND DUP3 PUSH2 0x23E6 JUMP JUMPDEST DUP4 SSTORE POP JUMPDEST PUSH1 0x1 PUSH1 0x2 DUP9 MUL ADD DUP9 SSTORE POP POP POP JUMPDEST POP POP POP POP POP POP JUMP JUMPDEST PUSH0 DUP3 DUP3 MSTORE PUSH1 0x20 DUP3 ADD SWAP1 POP SWAP3 SWAP2 POP POP JUMP JUMPDEST DUP3 DUP2 DUP4 CALLDATACOPY PUSH0 DUP4 DUP4 ADD MSTORE POP POP POP JUMP JUMPDEST PUSH0 PUSH2 0x2515 DUP4 DUP6 PUSH2 0x24EC JUMP JUMPDEST SWAP4 POP PUSH2 0x2522 DUP4 DUP6 DUP5 PUSH2 0x24FC JUMP JUMPDEST PUSH2 0x252B DUP4 PUSH2 0x1FC3 JUMP JUMPDEST DUP5 ADD SWAP1 POP SWAP4 SWAP3 POP POP POP JUMP JUMPDEST PUSH0 PUSH1 0x60 DUP3 ADD SWAP1 POP PUSH2 0x2549 PUSH0 DUP4 ADD DUP8 PUSH2 0x1CC4 JUMP JUMPDEST PUSH2 0x2556 PUSH1 0x20 DUP4 ADD DUP7 PUSH2 0x1CC4 JUMP JUMPDEST DUP2 DUP2 SUB PUSH1 0x40 DUP4 ADD MSTORE PUSH2 0x2569 DUP2 DUP5 DUP7 PUSH2 0x250A JUMP JUMPDEST SWAP1 POP SWAP6 SWAP5 POP POP POP POP POP JUMP JUMPDEST PUSH0 PUSH1 0x40 DUP3 ADD SWAP1 POP PUSH2 0x2587 PUSH0 DUP4 ADD DUP6 PUSH2 0x1C5E JUMP JUMPDEST PUSH2 0x2594 PUSH1 0x20 DUP4 ADD DUP5 PUSH2 0x1CC4 JUMP JUMPDEST SWAP4 SWAP3 POP POP POP JUMP JUMPDEST PUSH0 PUSH2 0x25A5 DUP3 PUSH2 0x1B76 JUMP JUMPDEST SWAP2 POP PUSH2 0x25B0 DUP4 PUSH2 0x1B76 JUMP JUMPDEST SWAP3 POP DUP3 DUP3 MUL PUSH2 0x25BE DUP2 PUSH2 0x1B76 JUMP JUMPDEST SWAP2 POP DUP3 DUP3 DIV DUP5 EQ DUP4 ISZERO OR PUSH2 0x25D5 JUMPI PUSH2 0x25D4 PUSH2 0x20B1 JUMP JUMPDEST JUMPDEST POP SWAP3 SWAP2 POP POP JUMP INVALID LOG2 PUSH5 0x6970667358 0x22 SLT KECCAK256 PUSH26 0xA0A6B2668A226E26DFE18B4D006A950C6FA3FAFBAB24852280DA CALLDATALOAD SHL DUP11 0x4B PUSH16 0x64736F6C634300081E00330000000000 "
				},
				"gasEstimates": {
					"creation": {
						"codeDepositCost": "1949200",
						"executionCost": "infinite",
						"totalCost": "infinite"
					},
					"external": {
						"APPROVAL_THRESHOLD_BPS()": "391",
						"availableFunds(uint256)": "infinite",
						"claimRefund(uint256)": "infinite",
						"contribute(uint256)": "infinite",
						"contributions(uint256,address)": "infinite",
						"createCampaign(uint256,uint256)": "infinite",
						"createProposal(uint256,uint256,string,uint256)": "infinite",
						"getCampaign(uint256)": "infinite",
						"getProposal(uint256,uint256)": "infinite",
						"hasVoted(uint256,uint256,address)": "infinite",
						"nextCampaignId()": "2447",
						"releaseFunds(uint256,uint256)": "infinite",
						"vote(uint256,uint256,bool)": "infinite",
						"votingPowerOf(uint256,address)": "infinite"
					}
				},
				"methodIdentifiers": {
					"APPROVAL_THRESHOLD_BPS()": "cd89fd41",
					"availableFunds(uint256)": "7995ea8f",
					"claimRefund(uint256)": "5b7baf64",
					"contribute(uint256)": "c1cbbca7",
					"contributions(uint256,address)": "3d891f59",
					"createCampaign(uint256,uint256)": "22502268",
					"createProposal(uint256,uint256,string,uint256)": "5d0ed3b0",
					"getCampaign(uint256)": "5598f8cc",
					"getProposal(uint256,uint256)": "aba21009",
					"hasVoted(uint256,uint256,address)": "0d39a1d3",
					"nextCampaignId()": "7903a756",
					"releaseFunds(uint256,uint256)": "df7843ae",
					"vote(uint256,uint256,bool)": "6a18ff7a",
					"votingPowerOf(uint256,address)": "c28fe7d5"
				}
			},
			"storageLayout": {
				"storage": [
					{
						"astId": 327,
						"contract": "contracts/CrowdfundingDAO.sol:CrowdfundingDAO",
						"label": "nextCampaignId",
						"offset": 0,
						"slot": "0",
						"type": "t_uint256"
					},
					{
						"astId": 333,
						"contract": "contracts/CrowdfundingDAO.sol:CrowdfundingDAO",
						"label": "_campaigns",
						"offset": 0,
						"slot": "1",
						"type": "t_mapping(t_uint256,t_struct(Campaign)303_storage)"
					},
					{
						"astId": 340,
						"contract": "contracts/CrowdfundingDAO.sol:CrowdfundingDAO",
						"label": "contributions",
						"offset": 0,
						"slot": "2",
						"type": "t_mapping(t_uint256,t_mapping(t_address,t_uint256))"
					},
					{
						"astId": 348,
						"contract": "contracts/CrowdfundingDAO.sol:CrowdfundingDAO",
						"label": "_proposals",
						"offset": 0,
						"slot": "3",
						"type": "t_mapping(t_uint256,t_mapping(t_uint256,t_struct(Proposal)317_storage))"
					},
					{
						"astId": 357,
						"contract": "contracts/CrowdfundingDAO.sol:CrowdfundingDAO",
						"label": "hasVoted",
						"offset": 0,
						"slot": "4",
						"type": "t_mapping(t_uint256,t_mapping(t_uint256,t_mapping(t_address,t_bool)))"
					}
				],
				"types": {
					"t_address": {
						"encoding": "inplace",
						"label": "address",
						"numberOfBytes": "20"
					},
					"t_bool": {
						"encoding": "inplace",
						"label": "bool",
						"numberOfBytes": "1"
					},
					"t_mapping(t_address,t_bool)": {
						"encoding": "mapping",
						"key": "t_address",
						"label": "mapping(address => bool)",
						"numberOfBytes": "32",
						"value": "t_bool"
					},
					"t_mapping(t_address,t_uint256)": {
						"encoding": "mapping",
						"key": "t_address",
						"label": "mapping(address => uint256)",
						"numberOfBytes": "32",
						"value": "t_uint256"
					},
					"t_mapping(t_uint256,t_mapping(t_address,t_bool))": {
						"encoding": "mapping",
						"key": "t_uint256",
						"label": "mapping(uint256 => mapping(address => bool))",
						"numberOfBytes": "32",
						"value": "t_mapping(t_address,t_bool)"
					},
					"t_mapping(t_uint256,t_mapping(t_address,t_uint256))": {
						"encoding": "mapping",
						"key": "t_uint256",
						"label": "mapping(uint256 => mapping(address => uint256))",
						"numberOfBytes": "32",
						"value": "t_mapping(t_address,t_uint256)"
					},
					"t_mapping(t_uint256,t_mapping(t_uint256,t_mapping(t_address,t_bool)))": {
						"encoding": "mapping",
						"key": "t_uint256",
						"label": "mapping(uint256 => mapping(uint256 => mapping(address => bool)))",
						"numberOfBytes": "32",
						"value": "t_mapping(t_uint256,t_mapping(t_address,t_bool))"
					},
					"t_mapping(t_uint256,t_mapping(t_uint256,t_struct(Proposal)317_storage))": {
						"encoding": "mapping",
						"key": "t_uint256",
						"label": "mapping(uint256 => mapping(uint256 => struct CrowdfundingDAO.Proposal))",
						"numberOfBytes": "32",
						"value": "t_mapping(t_uint256,t_struct(Proposal)317_storage)"
					},
					"t_mapping(t_uint256,t_struct(Campaign)303_storage)": {
						"encoding": "mapping",
						"key": "t_uint256",
						"label": "mapping(uint256 => struct CrowdfundingDAO.Campaign)",
						"numberOfBytes": "32",
						"value": "t_struct(Campaign)303_storage"
					},
					"t_mapping(t_uint256,t_struct(Proposal)317_storage)": {
						"encoding": "mapping",
						"key": "t_uint256",
						"label": "mapping(uint256 => struct CrowdfundingDAO.Proposal)",
						"numberOfBytes": "32",
						"value": "t_struct(Proposal)317_storage"
					},
					"t_string_storage": {
						"encoding": "bytes",
						"label": "string",
						"numberOfBytes": "32"
					},
					"t_struct(Campaign)303_storage": {
						"encoding": "inplace",
						"label": "struct CrowdfundingDAO.Campaign",
						"members": [
							{
								"astId": 288,
								"contract": "contracts/CrowdfundingDAO.sol:CrowdfundingDAO",
								"label": "creator",
								"offset": 0,
								"slot": "0",
								"type": "t_address"
							},
							{
								"astId": 290,
								"contract": "contracts/CrowdfundingDAO.sol:CrowdfundingDAO",
								"label": "goal",
								"offset": 0,
								"slot": "1",
								"type": "t_uint256"
							},
							{
								"astId": 292,
								"contract": "contracts/CrowdfundingDAO.sol:CrowdfundingDAO",
								"label": "deadline",
								"offset": 0,
								"slot": "2",
								"type": "t_uint256"
							},
							{
								"astId": 294,
								"contract": "contracts/CrowdfundingDAO.sol:CrowdfundingDAO",
								"label": "raised",
								"offset": 0,
								"slot": "3",
								"type": "t_uint256"
							},
							{
								"astId": 296,
								"contract": "contracts/CrowdfundingDAO.sol:CrowdfundingDAO",
								"label": "releasedAmount",
								"offset": 0,
								"slot": "4",
								"type": "t_uint256"
							},
							{
								"astId": 298,
								"contract": "contracts/CrowdfundingDAO.sol:CrowdfundingDAO",
								"label": "contributorCount",
								"offset": 0,
								"slot": "5",
								"type": "t_uint256"
							},
							{
								"astId": 300,
								"contract": "contracts/CrowdfundingDAO.sol:CrowdfundingDAO",
								"label": "proposalCount",
								"offset": 0,
								"slot": "6",
								"type": "t_uint256"
							},
							{
								"astId": 302,
								"contract": "contracts/CrowdfundingDAO.sol:CrowdfundingDAO",
								"label": "exists",
								"offset": 0,
								"slot": "7",
								"type": "t_bool"
							}
						],
						"numberOfBytes": "256"
					},
					"t_struct(Proposal)317_storage": {
						"encoding": "inplace",
						"label": "struct CrowdfundingDAO.Proposal",
						"members": [
							{
								"astId": 306,
								"contract": "contracts/CrowdfundingDAO.sol:CrowdfundingDAO",
								"label": "description",
								"offset": 0,
								"slot": "0",
								"type": "t_string_storage"
							},
							{
								"astId": 308,
								"contract": "contracts/CrowdfundingDAO.sol:CrowdfundingDAO",
								"label": "amount",
								"offset": 0,
								"slot": "1",
								"type": "t_uint256"
							},
							{
								"astId": 310,
								"contract": "contracts/CrowdfundingDAO.sol:CrowdfundingDAO",
								"label": "votingDeadline",
								"offset": 0,
								"slot": "2",
								"type": "t_uint256"
							},
							{
								"astId": 312,
								"contract": "contracts/CrowdfundingDAO.sol:CrowdfundingDAO",
								"label": "votesFor",
								"offset": 0,
								"slot": "3",
								"type": "t_uint256"
							},
							{
								"astId": 314,
								"contract": "contracts/CrowdfundingDAO.sol:CrowdfundingDAO",
								"label": "votesAgainst",
								"offset": 0,
								"slot": "4",
								"type": "t_uint256"
							},
							{
								"astId": 316,
								"contract": "contracts/CrowdfundingDAO.sol:CrowdfundingDAO",
								"label": "executed",
								"offset": 0,
								"slot": "5",
								"type": "t_bool"
							}
						],
						"numberOfBytes": "192"
					},
					"t_uint256": {
						"encoding": "inplace",
						"label": "uint256",
						"numberOfBytes": "32"
					}
				}
			},
			"userdoc": {
				"kind": "user",
				"methods": {
					"APPROVAL_THRESHOLD_BPS()": {
						"notice": "Threshold (in basis points) of total raised required for a proposal to pass."
					},
					"availableFunds(uint256)": {
						"notice": "Returns the wei still available to be proposed/spent for a campaign."
					},
					"claimRefund(uint256)": {
						"notice": "Claim a refund of your contribution if the campaign FAILED to reach its goal         by the deadline."
					},
					"contribute(uint256)": {
						"notice": "Contribute ETH to an active campaign. Voting power equals total contribution."
					},
					"contributions(uint256,address)": {
						"notice": "campaignId => contributor => amount contributed (wei). Doubles as voting power."
					},
					"createCampaign(uint256,uint256)": {
						"notice": "Create a new crowdfunding campaign."
					},
					"createProposal(uint256,uint256,string,uint256)": {
						"notice": "Create a spending proposal for a funded campaign. Only the creator may call this."
					},
					"getCampaign(uint256)": {
						"notice": "Returns the full campaign struct for the given id."
					},
					"getProposal(uint256,uint256)": {
						"notice": "Returns the full proposal struct for the given campaign/proposal pair."
					},
					"hasVoted(uint256,uint256,address)": {
						"notice": "campaignId => proposalId => voter => whether they have already voted."
					},
					"nextCampaignId()": {
						"notice": "Auto-incrementing id assigned to the next created campaign."
					},
					"releaseFunds(uint256,uint256)": {
						"notice": "Release funds to the creator for an approved proposal once voting has ended."
					},
					"vote(uint256,uint256,bool)": {
						"notice": "Vote on a spending proposal. Voting power equals your contribution to the campaign."
					},
					"votingPowerOf(uint256,address)": {
						"notice": "Returns the voting power (contribution in wei) of an address for a campaign."
					}
				},
				"notice": "A decentralized, DAO-style crowdfunding platform where raised funds are         NOT freely withdrawable by the campaign creator. Instead, after a campaign         is funded, the creator must submit \"spending proposals\" that contributors         vote on. Funds are only released when a proposal is approved by a majority         of contribution-weighted voting power.",
				"version": 1
			}
		}
	}
}